{
  "abi": [
    {
      "inputs": [],
      "stateMutability": "nonpayable",
      "type": "constructor"
    },
    {
      "inputs": [
        {
          "internalType": "uint256[5]",
          "name": "splitRatio",
          "type": "uint256[5]"
        },
        {
          "internalType": "uint256",
          "name": "memberFee",
          "type": "uint256"
        },
        {
          "internalType": "uint256",
          "name": "vipFee",
          "type": "uint256"
        }
      ],
      "name": "createGroup",
      "outputs": [],
      "stateMutability": "nonpayable",
      "type": "function"
    },
    {
      "inputs": [
        {
          "internalType": "uint256",
          "name": "",
          "type": "uint256"
        }
      ],
      "name": "deployedGroups",
      "outputs": [
        {
          "internalType": "address payable",
          "name": "",
          "type": "address"
        }
      ],
      "stateMutability": "view",
      "type": "function"
    },
    {
      "inputs": [],
      "name": "getDeployedGroups",
      "outputs": [
        {
          "internalType": "address payable[]",
          "name": "",
          "type": "address[]"
        }
      ],
      "stateMutability": "view",
      "type": "function"
    },
    {
      "inputs": [],
      "name": "system",
      "outputs": [
        {
          "internalType": "address payable",
          "name": "",
          "type": "address"
        }
      ],
      "stateMutability": "view",
      "type": "function"
    }
  ],
  "devdoc": {
    "kind": "dev",
    "methods": {},
    "version": 1
  },
  "evm": {
    "assembly": "    /* \"Group.sol\":62:684  contract GroupFactory {... */\n  mstore(0x40, 0x80)\n    /* \"Group.sol\":175:236  constructor() {... */\n  callvalue\n  dup1\n  iszero\n  tag_1\n  jumpi\n  0x00\n  dup1\n  revert\ntag_1:\n  pop\n    /* \"Group.sol\":217:227  msg.sender */\n  caller\n    /* \"Group.sol\":200:206  system */\n  0x00\n  dup1\n    /* \"Group.sol\":200:228  system = payable(msg.sender) */\n  0x0100\n  exp\n  dup2\n  sload\n  dup2\n  0xffffffffffffffffffffffffffffffffffffffff\n  mul\n  not\n  and\n  swap1\n  dup4\n  0xffffffffffffffffffffffffffffffffffffffff\n  and\n  mul\n  or\n  swap1\n  sstore\n  pop\n    /* \"Group.sol\":62:684  contract GroupFactory {... */\n  dataSize(sub_0)\n  dup1\n  dataOffset(sub_0)\n  0x00\n  codecopy\n  0x00\n  return\nstop\n\nsub_0: assembly {\n        /* \"Group.sol\":62:684  contract GroupFactory {... */\n      mstore(0x40, 0x80)\n      callvalue\n      dup1\n      iszero\n      tag_1\n      jumpi\n      0x00\n      dup1\n      revert\n    tag_1:\n      pop\n      jumpi(tag_2, lt(calldatasize, 0x04))\n      shr(0xe0, calldataload(0x00))\n      dup1\n      0x086a17d8\n      eq\n      tag_3\n      jumpi\n      dup1\n      0x2968740d\n      eq\n      tag_4\n      jumpi\n      dup1\n      0x52422603\n      eq\n      tag_5\n      jumpi\n      dup1\n      0x95bf75fd\n      eq\n      tag_6\n      jumpi\n    tag_2:\n      0x00\n      dup1\n      revert\n        /* \"Group.sol\":127:166  address payable[] public deployedGroups */\n    tag_3:\n      tag_7\n      0x04\n      dup1\n      calldatasize\n      sub\n      dup2\n      add\n      swap1\n      tag_8\n      swap2\n      swap1\n      tag_9\n      jump\t// in\n    tag_8:\n      tag_10\n      jump\t// in\n    tag_7:\n      mload(0x40)\n      tag_11\n      swap2\n      swap1\n      tag_12\n      jump\t// in\n    tag_11:\n      mload(0x40)\n      dup1\n      swap2\n      sub\n      swap1\n      return\n        /* \"Group.sol\":533:681  function getDeployedGroups()... */\n    tag_4:\n      tag_13\n      tag_14\n      jump\t// in\n    tag_13:\n      mload(0x40)\n      tag_15\n      swap2\n      swap1\n      tag_16\n      jump\t// in\n    tag_15:\n      mload(0x40)\n      dup1\n      swap2\n      sub\n      swap1\n      return\n        /* \"Group.sol\":244:525  function createGroup(... */\n    tag_5:\n      tag_17\n      0x04\n      dup1\n      calldatasize\n      sub\n      dup2\n      add\n      swap1\n      tag_18\n      swap2\n      swap1\n      tag_19\n      jump\t// in\n    tag_18:\n      tag_20\n      jump\t// in\n    tag_17:\n      stop\n        /* \"Group.sol\":91:120  address payable public system */\n    tag_6:\n      tag_21\n      tag_22\n      jump\t// in\n    tag_21:\n      mload(0x40)\n      tag_23\n      swap2\n      swap1\n      tag_12\n      jump\t// in\n    tag_23:\n      mload(0x40)\n      dup1\n      swap2\n      sub\n      swap1\n      return\n        /* \"Group.sol\":127:166  address payable[] public deployedGroups */\n    tag_10:\n      0x01\n      dup2\n      dup2\n      sload\n      dup2\n      lt\n      tag_24\n      jumpi\n      0x00\n      dup1\n      revert\n    tag_24:\n      swap1\n      0x00\n      mstore\n      keccak256(0x00, 0x20)\n      add\n      0x00\n      swap2\n      pop\n      sload\n      swap1\n      0x0100\n      exp\n      swap1\n      div\n      0xffffffffffffffffffffffffffffffffffffffff\n      and\n      dup2\n      jump\t// out\n        /* \"Group.sol\":533:681  function getDeployedGroups()... */\n    tag_14:\n        /* \"Group.sol\":610:634  address payable[] memory */\n      0x60\n        /* \"Group.sol\":659:673  deployedGroups */\n      0x01\n        /* \"Group.sol\":652:673  return deployedGroups */\n      dup1\n      sload\n      dup1\n      0x20\n      mul\n      0x20\n      add\n      mload(0x40)\n      swap1\n      dup2\n      add\n      0x40\n      mstore\n      dup1\n      swap3\n      swap2\n      swap1\n      dup2\n      dup2\n      mstore\n      0x20\n      add\n      dup3\n      dup1\n      sload\n      dup1\n      iszero\n      tag_27\n      jumpi\n      0x20\n      mul\n      dup3\n      add\n      swap2\n      swap1\n      0x00\n      mstore\n      keccak256(0x00, 0x20)\n      swap1\n    tag_28:\n      dup2\n      0x00\n      swap1\n      sload\n      swap1\n      0x0100\n      exp\n      swap1\n      div\n      0xffffffffffffffffffffffffffffffffffffffff\n      and\n      0xffffffffffffffffffffffffffffffffffffffff\n      and\n      dup2\n      mstore\n      0x20\n      add\n      swap1\n      0x01\n      add\n      swap1\n      dup1\n      dup4\n      gt\n      tag_28\n      jumpi\n    tag_27:\n      pop\n      pop\n      pop\n      pop\n      pop\n      swap1\n      pop\n        /* \"Group.sol\":533:681  function getDeployedGroups()... */\n      swap1\n      jump\t// out\n        /* \"Group.sol\":244:525  function createGroup(... */\n    tag_20:\n        /* \"Group.sol\":382:396  Group newGroup */\n      0x00\n        /* \"Group.sol\":409:415  system */\n      dup1\n      0x00\n      swap1\n      sload\n      swap1\n      0x0100\n      exp\n      swap1\n      div\n      0xffffffffffffffffffffffffffffffffffffffff\n      and\n        /* \"Group.sol\":417:427  splitRatio */\n      dup5\n        /* \"Group.sol\":429:438  memberFee */\n      dup5\n        /* \"Group.sol\":440:446  vipFee */\n      dup5\n        /* \"Group.sol\":448:458  msg.sender */\n      caller\n        /* \"Group.sol\":399:459  new Group(system, splitRatio, memberFee, vipFee, msg.sender) */\n      mload(0x40)\n      tag_30\n      swap1\n      tag_31\n      jump\t// in\n    tag_30:\n      tag_32\n      swap6\n      swap5\n      swap4\n      swap3\n      swap2\n      swap1\n      tag_33\n      jump\t// in\n    tag_32:\n      mload(0x40)\n      dup1\n      swap2\n      sub\n      swap1\n      0x00\n      create\n      dup1\n      iszero\n      dup1\n      iszero\n      tag_34\n      jumpi\n      returndatasize\n      0x00\n      dup1\n      returndatacopy\n      revert(0x00, returndatasize)\n    tag_34:\n      pop\n        /* \"Group.sol\":382:459  Group newGroup = new Group(system, splitRatio, memberFee, vipFee, msg.sender) */\n      swap1\n      pop\n        /* \"Group.sol\":470:484  deployedGroups */\n      0x01\n        /* \"Group.sol\":506:514  newGroup */\n      dup2\n        /* \"Group.sol\":470:517  deployedGroups.push(payable(address(newGroup))) */\n      swap1\n      dup1\n      0x01\n      dup2\n      sload\n      add\n      dup1\n      dup3\n      sstore\n      dup1\n      swap2\n      pop\n      pop\n      0x01\n      swap1\n      sub\n      swap1\n      0x00\n      mstore\n      keccak256(0x00, 0x20)\n      add\n      0x00\n      swap1\n      swap2\n      swap1\n      swap2\n      swap1\n      swap2\n      0x0100\n      exp\n      dup2\n      sload\n      dup2\n      0xffffffffffffffffffffffffffffffffffffffff\n      mul\n      not\n      and\n      swap1\n      dup4\n      0xffffffffffffffffffffffffffffffffffffffff\n      and\n      mul\n      or\n      swap1\n      sstore\n      pop\n        /* \"Group.sol\":371:525  {... */\n      pop\n        /* \"Group.sol\":244:525  function createGroup(... */\n      pop\n      pop\n      pop\n      jump\t// out\n        /* \"Group.sol\":91:120  address payable public system */\n    tag_22:\n      0x00\n      dup1\n      sload\n      swap1\n      0x0100\n      exp\n      swap1\n      div\n      0xffffffffffffffffffffffffffffffffffffffff\n      and\n      dup2\n      jump\t// out\n    tag_31:\n      dataSize(sub_0)\n      dup1\n      dataOffset(sub_0)\n      dup4\n      codecopy\n      add\n      swap1\n      jump\t// out\n        /* \"#utility.yul\":7:82   */\n    tag_36:\n        /* \"#utility.yul\":40:46   */\n      0x00\n        /* \"#utility.yul\":73:75   */\n      0x40\n        /* \"#utility.yul\":67:76   */\n      mload\n        /* \"#utility.yul\":57:76   */\n      swap1\n      pop\n        /* \"#utility.yul\":7:82   */\n      swap1\n      jump\t// out\n        /* \"#utility.yul\":88:205   */\n    tag_37:\n        /* \"#utility.yul\":197:198   */\n      0x00\n        /* \"#utility.yul\":194:195   */\n      dup1\n        /* \"#utility.yul\":187:199   */\n      revert\n        /* \"#utility.yul\":334:411   */\n    tag_39:\n        /* \"#utility.yul\":371:378   */\n      0x00\n        /* \"#utility.yul\":400:405   */\n      dup2\n        /* \"#utility.yul\":389:405   */\n      swap1\n      pop\n        /* \"#utility.yul\":334:411   */\n      swap2\n      swap1\n      pop\n      jump\t// out\n        /* \"#utility.yul\":417:539   */\n    tag_40:\n        /* \"#utility.yul\":490:514   */\n      tag_82\n        /* \"#utility.yul\":508:513   */\n      dup2\n        /* \"#utility.yul\":490:514   */\n      tag_39\n      jump\t// in\n    tag_82:\n        /* \"#utility.yul\":483:488   */\n      dup2\n        /* \"#utility.yul\":480:515   */\n      eq\n        /* \"#utility.yul\":470:533   */\n      tag_83\n      jumpi\n        /* \"#utility.yul\":529:530   */\n      0x00\n        /* \"#utility.yul\":526:527   */\n      dup1\n        /* \"#utility.yul\":519:531   */\n      revert\n        /* \"#utility.yul\":470:533   */\n    tag_83:\n        /* \"#utility.yul\":417:539   */\n      pop\n      jump\t// out\n        /* \"#utility.yul\":545:684   */\n    tag_41:\n        /* \"#utility.yul\":591:596   */\n      0x00\n        /* \"#utility.yul\":629:635   */\n      dup2\n        /* \"#utility.yul\":616:636   */\n      calldataload\n        /* \"#utility.yul\":607:636   */\n      swap1\n      pop\n        /* \"#utility.yul\":645:678   */\n      tag_85\n        /* \"#utility.yul\":672:677   */\n      dup2\n        /* \"#utility.yul\":645:678   */\n      tag_40\n      jump\t// in\n    tag_85:\n        /* \"#utility.yul\":545:684   */\n      swap3\n      swap2\n      pop\n      pop\n      jump\t// out\n        /* \"#utility.yul\":690:1019   */\n    tag_9:\n        /* \"#utility.yul\":749:755   */\n      0x00\n        /* \"#utility.yul\":798:800   */\n      0x20\n        /* \"#utility.yul\":786:795   */\n      dup3\n        /* \"#utility.yul\":777:784   */\n      dup5\n        /* \"#utility.yul\":773:796   */\n      sub\n        /* \"#utility.yul\":769:801   */\n      slt\n        /* \"#utility.yul\":766:885   */\n      iszero\n      tag_87\n      jumpi\n        /* \"#utility.yul\":804:883   */\n      tag_88\n      tag_37\n      jump\t// in\n    tag_88:\n        /* \"#utility.yul\":766:885   */\n    tag_87:\n        /* \"#utility.yul\":924:925   */\n      0x00\n        /* \"#utility.yul\":949:1002   */\n      tag_89\n        /* \"#utility.yul\":994:1001   */\n      dup5\n        /* \"#utility.yul\":985:991   */\n      dup3\n        /* \"#utility.yul\":974:983   */\n      dup6\n        /* \"#utility.yul\":970:992   */\n      add\n        /* \"#utility.yul\":949:1002   */\n      tag_41\n      jump\t// in\n    tag_89:\n        /* \"#utility.yul\":939:1002   */\n      swap2\n      pop\n        /* \"#utility.yul\":895:1012   */\n      pop\n        /* \"#utility.yul\":690:1019   */\n      swap3\n      swap2\n      pop\n      pop\n      jump\t// out\n        /* \"#utility.yul\":1025:1151   */\n    tag_42:\n        /* \"#utility.yul\":1062:1069   */\n      0x00\n        /* \"#utility.yul\":1102:1144   */\n      0xffffffffffffffffffffffffffffffffffffffff\n        /* \"#utility.yul\":1095:1100   */\n      dup3\n        /* \"#utility.yul\":1091:1145   */\n      and\n        /* \"#utility.yul\":1080:1145   */\n      swap1\n      pop\n        /* \"#utility.yul\":1025:1151   */\n      swap2\n      swap1\n      pop\n      jump\t// out\n        /* \"#utility.yul\":1157:1261   */\n    tag_43:\n        /* \"#utility.yul\":1202:1209   */\n      0x00\n        /* \"#utility.yul\":1231:1255   */\n      tag_92\n        /* \"#utility.yul\":1249:1254   */\n      dup3\n        /* \"#utility.yul\":1231:1255   */\n      tag_42\n      jump\t// in\n    tag_92:\n        /* \"#utility.yul\":1220:1255   */\n      swap1\n      pop\n        /* \"#utility.yul\":1157:1261   */\n      swap2\n      swap1\n      pop\n      jump\t// out\n        /* \"#utility.yul\":1267:1409   */\n    tag_44:\n        /* \"#utility.yul\":1370:1402   */\n      tag_94\n        /* \"#utility.yul\":1396:1401   */\n      dup2\n        /* \"#utility.yul\":1370:1402   */\n      tag_43\n      jump\t// in\n    tag_94:\n        /* \"#utility.yul\":1365:1368   */\n      dup3\n        /* \"#utility.yul\":1358:1403   */\n      mstore\n        /* \"#utility.yul\":1267:1409   */\n      pop\n      pop\n      jump\t// out\n        /* \"#utility.yul\":1415:1669   */\n    tag_12:\n        /* \"#utility.yul\":1524:1528   */\n      0x00\n        /* \"#utility.yul\":1562:1564   */\n      0x20\n        /* \"#utility.yul\":1551:1560   */\n      dup3\n        /* \"#utility.yul\":1547:1565   */\n      add\n        /* \"#utility.yul\":1539:1565   */\n      swap1\n      pop\n        /* \"#utility.yul\":1575:1662   */\n      tag_96\n        /* \"#utility.yul\":1659:1660   */\n      0x00\n        /* \"#utility.yul\":1648:1657   */\n      dup4\n        /* \"#utility.yul\":1644:1661   */\n      add\n        /* \"#utility.yul\":1635:1641   */\n      dup5\n        /* \"#utility.yul\":1575:1662   */\n      tag_44\n      jump\t// in\n    tag_96:\n        /* \"#utility.yul\":1415:1669   */\n      swap3\n      swap2\n      pop\n      pop\n      jump\t// out\n        /* \"#utility.yul\":1675:1797   */\n    tag_45:\n        /* \"#utility.yul\":1750:1756   */\n      0x00\n        /* \"#utility.yul\":1784:1789   */\n      dup2\n        /* \"#utility.yul\":1778:1790   */\n      mload\n        /* \"#utility.yul\":1768:1790   */\n      swap1\n      pop\n        /* \"#utility.yul\":1675:1797   */\n      swap2\n      swap1\n      pop\n      jump\t// out\n        /* \"#utility.yul\":1803:1995   */\n    tag_46:\n        /* \"#utility.yul\":1910:1921   */\n      0x00\n        /* \"#utility.yul\":1944:1950   */\n      dup3\n        /* \"#utility.yul\":1939:1942   */\n      dup3\n        /* \"#utility.yul\":1932:1951   */\n      mstore\n        /* \"#utility.yul\":1984:1988   */\n      0x20\n        /* \"#utility.yul\":1979:1982   */\n      dup3\n        /* \"#utility.yul\":1975:1989   */\n      add\n        /* \"#utility.yul\":1960:1989   */\n      swap1\n      pop\n        /* \"#utility.yul\":1803:1995   */\n      swap3\n      swap2\n      pop\n      pop\n      jump\t// out\n        /* \"#utility.yul\":2001:2141   */\n    tag_47:\n        /* \"#utility.yul\":2076:2080   */\n      0x00\n        /* \"#utility.yul\":2099:2102   */\n      dup2\n        /* \"#utility.yul\":2091:2102   */\n      swap1\n      pop\n        /* \"#utility.yul\":2129:2133   */\n      0x20\n        /* \"#utility.yul\":2124:2127   */\n      dup3\n        /* \"#utility.yul\":2120:2134   */\n      add\n        /* \"#utility.yul\":2112:2134   */\n      swap1\n      pop\n        /* \"#utility.yul\":2001:2141   */\n      swap2\n      swap1\n      pop\n      jump\t// out\n        /* \"#utility.yul\":2147:2279   */\n    tag_48:\n        /* \"#utility.yul\":2240:2272   */\n      tag_101\n        /* \"#utility.yul\":2266:2271   */\n      dup2\n        /* \"#utility.yul\":2240:2272   */\n      tag_43\n      jump\t// in\n    tag_101:\n        /* \"#utility.yul\":2235:2238   */\n      dup3\n        /* \"#utility.yul\":2228:2273   */\n      mstore\n        /* \"#utility.yul\":2147:2279   */\n      pop\n      pop\n      jump\t// out\n        /* \"#utility.yul\":2285:2496   */\n    tag_49:\n        /* \"#utility.yul\":2370:2380   */\n      0x00\n        /* \"#utility.yul\":2391:2453   */\n      tag_103\n        /* \"#utility.yul\":2449:2452   */\n      dup4\n        /* \"#utility.yul\":2441:2447   */\n      dup4\n        /* \"#utility.yul\":2391:2453   */\n      tag_48\n      jump\t// in\n    tag_103:\n        /* \"#utility.yul\":2485:2489   */\n      0x20\n        /* \"#utility.yul\":2480:2483   */\n      dup4\n        /* \"#utility.yul\":2476:2490   */\n      add\n        /* \"#utility.yul\":2462:2490   */\n      swap1\n      pop\n        /* \"#utility.yul\":2285:2496   */\n      swap3\n      swap2\n      pop\n      pop\n      jump\t// out\n        /* \"#utility.yul\":2502:2623   */\n    tag_50:\n        /* \"#utility.yul\":2580:2584   */\n      0x00\n        /* \"#utility.yul\":2612:2616   */\n      0x20\n        /* \"#utility.yul\":2607:2610   */\n      dup3\n        /* \"#utility.yul\":2603:2617   */\n      add\n        /* \"#utility.yul\":2595:2617   */\n      swap1\n      pop\n        /* \"#utility.yul\":2502:2623   */\n      swap2\n      swap1\n      pop\n      jump\t// out\n        /* \"#utility.yul\":2675:3471   */\n    tag_51:\n        /* \"#utility.yul\":2810:2813   */\n      0x00\n        /* \"#utility.yul\":2839:2901   */\n      tag_106\n        /* \"#utility.yul\":2895:2900   */\n      dup3\n        /* \"#utility.yul\":2839:2901   */\n      tag_45\n      jump\t// in\n    tag_106:\n        /* \"#utility.yul\":2917:3011   */\n      tag_107\n        /* \"#utility.yul\":3004:3010   */\n      dup2\n        /* \"#utility.yul\":2999:3002   */\n      dup6\n        /* \"#utility.yul\":2917:3011   */\n      tag_46\n      jump\t// in\n    tag_107:\n        /* \"#utility.yul\":2910:3011   */\n      swap4\n      pop\n        /* \"#utility.yul\":3035:3099   */\n      tag_108\n        /* \"#utility.yul\":3093:3098   */\n      dup4\n        /* \"#utility.yul\":3035:3099   */\n      tag_47\n      jump\t// in\n    tag_108:\n        /* \"#utility.yul\":3122:3129   */\n      dup1\n        /* \"#utility.yul\":3153:3154   */\n      0x00\n        /* \"#utility.yul\":3138:3446   */\n    tag_109:\n        /* \"#utility.yul\":3163:3169   */\n      dup4\n        /* \"#utility.yul\":3160:3161   */\n      dup2\n        /* \"#utility.yul\":3157:3170   */\n      lt\n        /* \"#utility.yul\":3138:3446   */\n      iszero\n      tag_111\n      jumpi\n        /* \"#utility.yul\":3239:3245   */\n      dup2\n        /* \"#utility.yul\":3233:3246   */\n      mload\n        /* \"#utility.yul\":3266:3345   */\n      tag_112\n        /* \"#utility.yul\":3341:3344   */\n      dup9\n        /* \"#utility.yul\":3326:3339   */\n      dup3\n        /* \"#utility.yul\":3266:3345   */\n      tag_49\n      jump\t// in\n    tag_112:\n        /* \"#utility.yul\":3259:3345   */\n      swap8\n      pop\n        /* \"#utility.yul\":3368:3436   */\n      tag_113\n        /* \"#utility.yul\":3429:3435   */\n      dup4\n        /* \"#utility.yul\":3368:3436   */\n      tag_50\n      jump\t// in\n    tag_113:\n        /* \"#utility.yul\":3358:3436   */\n      swap3\n      pop\n        /* \"#utility.yul\":3198:3446   */\n      pop\n        /* \"#utility.yul\":3185:3186   */\n      0x01\n        /* \"#utility.yul\":3182:3183   */\n      dup2\n        /* \"#utility.yul\":3178:3187   */\n      add\n        /* \"#utility.yul\":3173:3187   */\n      swap1\n      pop\n        /* \"#utility.yul\":3138:3446   */\n      jump(tag_109)\n    tag_111:\n        /* \"#utility.yul\":3142:3156   */\n      pop\n        /* \"#utility.yul\":3462:3465   */\n      dup6\n        /* \"#utility.yul\":3455:3465   */\n      swap4\n      pop\n        /* \"#utility.yul\":2815:3471   */\n      pop\n      pop\n      pop\n        /* \"#utility.yul\":2675:3471   */\n      swap3\n      swap2\n      pop\n      pop\n      jump\t// out\n        /* \"#utility.yul\":3477:3882   */\n    tag_16:\n        /* \"#utility.yul\":3636:3640   */\n      0x00\n        /* \"#utility.yul\":3674:3676   */\n      0x20\n        /* \"#utility.yul\":3663:3672   */\n      dup3\n        /* \"#utility.yul\":3659:3677   */\n      add\n        /* \"#utility.yul\":3651:3677   */\n      swap1\n      pop\n        /* \"#utility.yul\":3723:3732   */\n      dup2\n        /* \"#utility.yul\":3717:3721   */\n      dup2\n        /* \"#utility.yul\":3713:3733   */\n      sub\n        /* \"#utility.yul\":3709:3710   */\n      0x00\n        /* \"#utility.yul\":3698:3707   */\n      dup4\n        /* \"#utility.yul\":3694:3711   */\n      add\n        /* \"#utility.yul\":3687:3734   */\n      mstore\n        /* \"#utility.yul\":3751:3875   */\n      tag_115\n        /* \"#utility.yul\":3870:3874   */\n      dup2\n        /* \"#utility.yul\":3861:3867   */\n      dup5\n        /* \"#utility.yul\":3751:3875   */\n      tag_51\n      jump\t// in\n    tag_115:\n        /* \"#utility.yul\":3743:3875   */\n      swap1\n      pop\n        /* \"#utility.yul\":3477:3882   */\n      swap3\n      swap2\n      pop\n      pop\n      jump\t// out\n        /* \"#utility.yul\":3888:4005   */\n    tag_52:\n        /* \"#utility.yul\":3997:3998   */\n      0x00\n        /* \"#utility.yul\":3994:3995   */\n      dup1\n        /* \"#utility.yul\":3987:3999   */\n      revert\n        /* \"#utility.yul\":4011:4113   */\n    tag_53:\n        /* \"#utility.yul\":4052:4058   */\n      0x00\n        /* \"#utility.yul\":4103:4105   */\n      0x1f\n        /* \"#utility.yul\":4099:4106   */\n      not\n        /* \"#utility.yul\":4094:4096   */\n      0x1f\n        /* \"#utility.yul\":4087:4092   */\n      dup4\n        /* \"#utility.yul\":4083:4097   */\n      add\n        /* \"#utility.yul\":4079:4107   */\n      and\n        /* \"#utility.yul\":4069:4107   */\n      swap1\n      pop\n        /* \"#utility.yul\":4011:4113   */\n      swap2\n      swap1\n      pop\n      jump\t// out\n        /* \"#utility.yul\":4119:4299   */\n    tag_54:\n        /* \"#utility.yul\":4167:4244   */\n      0x4e487b7100000000000000000000000000000000000000000000000000000000\n        /* \"#utility.yul\":4164:4165   */\n      0x00\n        /* \"#utility.yul\":4157:4245   */\n      mstore\n        /* \"#utility.yul\":4264:4268   */\n      0x41\n        /* \"#utility.yul\":4261:4262   */\n      0x04\n        /* \"#utility.yul\":4254:4269   */\n      mstore\n        /* \"#utility.yul\":4288:4292   */\n      0x24\n        /* \"#utility.yul\":4285:4286   */\n      0x00\n        /* \"#utility.yul\":4278:4293   */\n      revert\n        /* \"#utility.yul\":4305:4586   */\n    tag_55:\n        /* \"#utility.yul\":4388:4415   */\n      tag_120\n        /* \"#utility.yul\":4410:4414   */\n      dup3\n        /* \"#utility.yul\":4388:4415   */\n      tag_53\n      jump\t// in\n    tag_120:\n        /* \"#utility.yul\":4380:4386   */\n      dup2\n        /* \"#utility.yul\":4376:4416   */\n      add\n        /* \"#utility.yul\":4518:4524   */\n      dup2\n        /* \"#utility.yul\":4506:4516   */\n      dup2\n        /* \"#utility.yul\":4503:4525   */\n      lt\n        /* \"#utility.yul\":4482:4500   */\n      0xffffffffffffffff\n        /* \"#utility.yul\":4470:4480   */\n      dup3\n        /* \"#utility.yul\":4467:4501   */\n      gt\n        /* \"#utility.yul\":4464:4526   */\n      or\n        /* \"#utility.yul\":4461:4549   */\n      iszero\n      tag_121\n      jumpi\n        /* \"#utility.yul\":4529:4547   */\n      tag_122\n      tag_54\n      jump\t// in\n    tag_122:\n        /* \"#utility.yul\":4461:4549   */\n    tag_121:\n        /* \"#utility.yul\":4569:4579   */\n      dup1\n        /* \"#utility.yul\":4565:4567   */\n      0x40\n        /* \"#utility.yul\":4558:4580   */\n      mstore\n        /* \"#utility.yul\":4348:4586   */\n      pop\n        /* \"#utility.yul\":4305:4586   */\n      pop\n      pop\n      jump\t// out\n        /* \"#utility.yul\":4592:4721   */\n    tag_56:\n        /* \"#utility.yul\":4626:4632   */\n      0x00\n        /* \"#utility.yul\":4653:4673   */\n      tag_124\n      tag_36\n      jump\t// in\n    tag_124:\n        /* \"#utility.yul\":4643:4673   */\n      swap1\n      pop\n        /* \"#utility.yul\":4682:4715   */\n      tag_125\n        /* \"#utility.yul\":4710:4714   */\n      dup3\n        /* \"#utility.yul\":4702:4708   */\n      dup3\n        /* \"#utility.yul\":4682:4715   */\n      tag_55\n      jump\t// in\n    tag_125:\n        /* \"#utility.yul\":4592:4721   */\n      swap2\n      swap1\n      pop\n      jump\t// out\n        /* \"#utility.yul\":4727:4976   */\n    tag_57:\n        /* \"#utility.yul\":4802:4806   */\n      0x00\n        /* \"#utility.yul\":4892:4910   */\n      0xffffffffffffffff\n        /* \"#utility.yul\":4884:4890   */\n      dup3\n        /* \"#utility.yul\":4881:4911   */\n      gt\n        /* \"#utility.yul\":4878:4934   */\n      iszero\n      tag_127\n      jumpi\n        /* \"#utility.yul\":4914:4932   */\n      tag_128\n      tag_54\n      jump\t// in\n    tag_128:\n        /* \"#utility.yul\":4878:4934   */\n    tag_127:\n        /* \"#utility.yul\":4964:4968   */\n      0x20\n        /* \"#utility.yul\":4956:4962   */\n      dup3\n        /* \"#utility.yul\":4952:4969   */\n      mul\n        /* \"#utility.yul\":4944:4969   */\n      swap1\n      pop\n        /* \"#utility.yul\":4727:4976   */\n      swap2\n      swap1\n      pop\n      jump\t// out\n        /* \"#utility.yul\":4982:5099   */\n    tag_58:\n        /* \"#utility.yul\":5091:5092   */\n      0x00\n        /* \"#utility.yul\":5088:5089   */\n      dup1\n        /* \"#utility.yul\":5081:5093   */\n      revert\n        /* \"#utility.yul\":5123:5766   */\n    tag_59:\n        /* \"#utility.yul\":5217:5222   */\n      0x00\n        /* \"#utility.yul\":5242:5321   */\n      tag_131\n        /* \"#utility.yul\":5258:5320   */\n      tag_132\n        /* \"#utility.yul\":5313:5319   */\n      dup5\n        /* \"#utility.yul\":5258:5320   */\n      tag_57\n      jump\t// in\n    tag_132:\n        /* \"#utility.yul\":5242:5321   */\n      tag_56\n      jump\t// in\n    tag_131:\n        /* \"#utility.yul\":5233:5321   */\n      swap1\n      pop\n        /* \"#utility.yul\":5341:5346   */\n      dup1\n        /* \"#utility.yul\":5394:5398   */\n      0x20\n        /* \"#utility.yul\":5386:5392   */\n      dup5\n        /* \"#utility.yul\":5382:5399   */\n      mul\n        /* \"#utility.yul\":5374:5380   */\n      dup4\n        /* \"#utility.yul\":5370:5400   */\n      add\n        /* \"#utility.yul\":5423:5426   */\n      dup6\n        /* \"#utility.yul\":5415:5421   */\n      dup2\n        /* \"#utility.yul\":5412:5427   */\n      gt\n        /* \"#utility.yul\":5409:5531   */\n      iszero\n      tag_133\n      jumpi\n        /* \"#utility.yul\":5442:5521   */\n      tag_134\n      tag_58\n      jump\t// in\n    tag_134:\n        /* \"#utility.yul\":5409:5531   */\n    tag_133:\n        /* \"#utility.yul\":5557:5563   */\n      dup4\n        /* \"#utility.yul\":5540:5760   */\n    tag_135:\n        /* \"#utility.yul\":5574:5580   */\n      dup2\n        /* \"#utility.yul\":5569:5572   */\n      dup2\n        /* \"#utility.yul\":5566:5581   */\n      lt\n        /* \"#utility.yul\":5540:5760   */\n      iszero\n      tag_137\n      jumpi\n        /* \"#utility.yul\":5649:5652   */\n      dup1\n        /* \"#utility.yul\":5678:5715   */\n      tag_138\n        /* \"#utility.yul\":5711:5714   */\n      dup9\n        /* \"#utility.yul\":5699:5709   */\n      dup3\n        /* \"#utility.yul\":5678:5715   */\n      tag_41\n      jump\t// in\n    tag_138:\n        /* \"#utility.yul\":5673:5676   */\n      dup5\n        /* \"#utility.yul\":5666:5716   */\n      mstore\n        /* \"#utility.yul\":5745:5749   */\n      0x20\n        /* \"#utility.yul\":5740:5743   */\n      dup5\n        /* \"#utility.yul\":5736:5750   */\n      add\n        /* \"#utility.yul\":5729:5750   */\n      swap4\n      pop\n        /* \"#utility.yul\":5616:5760   */\n      pop\n        /* \"#utility.yul\":5600:5604   */\n      0x20\n        /* \"#utility.yul\":5595:5598   */\n      dup2\n        /* \"#utility.yul\":5591:5605   */\n      add\n        /* \"#utility.yul\":5584:5605   */\n      swap1\n      pop\n        /* \"#utility.yul\":5540:5760   */\n      jump(tag_135)\n    tag_137:\n        /* \"#utility.yul\":5544:5565   */\n      pop\n        /* \"#utility.yul\":5223:5766   */\n      pop\n      pop\n        /* \"#utility.yul\":5123:5766   */\n      swap4\n      swap3\n      pop\n      pop\n      pop\n      jump\t// out\n        /* \"#utility.yul\":5790:6129   */\n    tag_60:\n        /* \"#utility.yul\":5859:5864   */\n      0x00\n        /* \"#utility.yul\":5908:5911   */\n      dup3\n        /* \"#utility.yul\":5901:5905   */\n      0x1f\n        /* \"#utility.yul\":5893:5899   */\n      dup4\n        /* \"#utility.yul\":5889:5906   */\n      add\n        /* \"#utility.yul\":5885:5912   */\n      slt\n        /* \"#utility.yul\":5875:5997   */\n      tag_140\n      jumpi\n        /* \"#utility.yul\":5916:5995   */\n      tag_141\n      tag_52\n      jump\t// in\n    tag_141:\n        /* \"#utility.yul\":5875:5997   */\n    tag_140:\n        /* \"#utility.yul\":6020:6024   */\n      0x05\n        /* \"#utility.yul\":6042:6123   */\n      tag_142\n        /* \"#utility.yul\":6119:6122   */\n      dup5\n        /* \"#utility.yul\":6111:6117   */\n      dup3\n        /* \"#utility.yul\":6103:6109   */\n      dup6\n        /* \"#utility.yul\":6042:6123   */\n      tag_59\n      jump\t// in\n    tag_142:\n        /* \"#utility.yul\":6033:6123   */\n      swap2\n      pop\n        /* \"#utility.yul\":5865:6129   */\n      pop\n        /* \"#utility.yul\":5790:6129   */\n      swap3\n      swap2\n      pop\n      pop\n      jump\t// out\n        /* \"#utility.yul\":6135:6803   */\n    tag_19:\n        /* \"#utility.yul\":6235:6241   */\n      0x00\n        /* \"#utility.yul\":6243:6249   */\n      dup1\n        /* \"#utility.yul\":6251:6257   */\n      0x00\n        /* \"#utility.yul\":6300:6303   */\n      0xe0\n        /* \"#utility.yul\":6288:6297   */\n      dup5\n        /* \"#utility.yul\":6279:6286   */\n      dup7\n        /* \"#utility.yul\":6275:6298   */\n      sub\n        /* \"#utility.yul\":6271:6304   */\n      slt\n        /* \"#utility.yul\":6268:6388   */\n      iszero\n      tag_144\n      jumpi\n        /* \"#utility.yul\":6307:6386   */\n      tag_145\n      tag_37\n      jump\t// in\n    tag_145:\n        /* \"#utility.yul\":6268:6388   */\n    tag_144:\n        /* \"#utility.yul\":6427:6428   */\n      0x00\n        /* \"#utility.yul\":6452:6528   */\n      tag_146\n        /* \"#utility.yul\":6520:6527   */\n      dup7\n        /* \"#utility.yul\":6511:6517   */\n      dup3\n        /* \"#utility.yul\":6500:6509   */\n      dup8\n        /* \"#utility.yul\":6496:6518   */\n      add\n        /* \"#utility.yul\":6452:6528   */\n      tag_60\n      jump\t// in\n    tag_146:\n        /* \"#utility.yul\":6442:6528   */\n      swap4\n      pop\n        /* \"#utility.yul\":6398:6538   */\n      pop\n        /* \"#utility.yul\":6577:6580   */\n      0xa0\n        /* \"#utility.yul\":6604:6657   */\n      tag_147\n        /* \"#utility.yul\":6649:6656   */\n      dup7\n        /* \"#utility.yul\":6640:6646   */\n      dup3\n        /* \"#utility.yul\":6629:6638   */\n      dup8\n        /* \"#utility.yul\":6625:6647   */\n      add\n        /* \"#utility.yul\":6604:6657   */\n      tag_41\n      jump\t// in\n    tag_147:\n        /* \"#utility.yul\":6594:6657   */\n      swap3\n      pop\n        /* \"#utility.yul\":6548:6667   */\n      pop\n        /* \"#utility.yul\":6706:6709   */\n      0xc0\n        /* \"#utility.yul\":6733:6786   */\n      tag_148\n        /* \"#utility.yul\":6778:6785   */\n      dup7\n        /* \"#utility.yul\":6769:6775   */\n      dup3\n        /* \"#utility.yul\":6758:6767   */\n      dup8\n        /* \"#utility.yul\":6754:6776   */\n      add\n        /* \"#utility.yul\":6733:6786   */\n      tag_41\n      jump\t// in\n    tag_148:\n        /* \"#utility.yul\":6723:6786   */\n      swap2\n      pop\n        /* \"#utility.yul\":6677:6796   */\n      pop\n        /* \"#utility.yul\":6135:6803   */\n      swap3\n      pop\n      swap3\n      pop\n      swap3\n      jump\t// out\n        /* \"#utility.yul\":6809:6869   */\n    tag_61:\n        /* \"#utility.yul\":6837:6840   */\n      0x00\n        /* \"#utility.yul\":6858:6863   */\n      dup2\n        /* \"#utility.yul\":6851:6863   */\n      swap1\n      pop\n        /* \"#utility.yul\":6809:6869   */\n      swap2\n      swap1\n      pop\n      jump\t// out\n        /* \"#utility.yul\":6875:7017   */\n    tag_62:\n        /* \"#utility.yul\":6925:6934   */\n      0x00\n        /* \"#utility.yul\":6958:7011   */\n      tag_151\n        /* \"#utility.yul\":6976:7010   */\n      tag_152\n        /* \"#utility.yul\":6985:7009   */\n      tag_153\n        /* \"#utility.yul\":7003:7008   */\n      dup5\n        /* \"#utility.yul\":6985:7009   */\n      tag_42\n      jump\t// in\n    tag_153:\n        /* \"#utility.yul\":6976:7010   */\n      tag_61\n      jump\t// in\n    tag_152:\n        /* \"#utility.yul\":6958:7011   */\n      tag_42\n      jump\t// in\n    tag_151:\n        /* \"#utility.yul\":6945:7011   */\n      swap1\n      pop\n        /* \"#utility.yul\":6875:7017   */\n      swap2\n      swap1\n      pop\n      jump\t// out\n        /* \"#utility.yul\":7023:7149   */\n    tag_63:\n        /* \"#utility.yul\":7073:7082   */\n      0x00\n        /* \"#utility.yul\":7106:7143   */\n      tag_155\n        /* \"#utility.yul\":7137:7142   */\n      dup3\n        /* \"#utility.yul\":7106:7143   */\n      tag_62\n      jump\t// in\n    tag_155:\n        /* \"#utility.yul\":7093:7143   */\n      swap1\n      pop\n        /* \"#utility.yul\":7023:7149   */\n      swap2\n      swap1\n      pop\n      jump\t// out\n        /* \"#utility.yul\":7155:7289   */\n    tag_64:\n        /* \"#utility.yul\":7213:7222   */\n      0x00\n        /* \"#utility.yul\":7246:7283   */\n      tag_157\n        /* \"#utility.yul\":7277:7282   */\n      dup3\n        /* \"#utility.yul\":7246:7283   */\n      tag_63\n      jump\t// in\n    tag_157:\n        /* \"#utility.yul\":7233:7283   */\n      swap1\n      pop\n        /* \"#utility.yul\":7155:7289   */\n      swap2\n      swap1\n      pop\n      jump\t// out\n        /* \"#utility.yul\":7295:7442   */\n    tag_65:\n        /* \"#utility.yul\":7390:7435   */\n      tag_159\n        /* \"#utility.yul\":7429:7434   */\n      dup2\n        /* \"#utility.yul\":7390:7435   */\n      tag_64\n      jump\t// in\n    tag_159:\n        /* \"#utility.yul\":7385:7388   */\n      dup3\n        /* \"#utility.yul\":7378:7436   */\n      mstore\n        /* \"#utility.yul\":7295:7442   */\n      pop\n      pop\n      jump\t// out\n        /* \"#utility.yul\":7448:7552   */\n    tag_66:\n        /* \"#utility.yul\":7513:7519   */\n      0x00\n        /* \"#utility.yul\":7541:7545   */\n      0x05\n        /* \"#utility.yul\":7531:7545   */\n      swap1\n      pop\n        /* \"#utility.yul\":7448:7552   */\n      swap2\n      swap1\n      pop\n      jump\t// out\n        /* \"#utility.yul\":7558:7701   */\n    tag_67:\n        /* \"#utility.yul\":7655:7666   */\n      0x00\n        /* \"#utility.yul\":7692:7695   */\n      dup2\n        /* \"#utility.yul\":7677:7695   */\n      swap1\n      pop\n        /* \"#utility.yul\":7558:7701   */\n      swap3\n      swap2\n      pop\n      pop\n      jump\t// out\n        /* \"#utility.yul\":7707:7805   */\n    tag_68:\n        /* \"#utility.yul\":7772:7776   */\n      0x00\n        /* \"#utility.yul\":7795:7798   */\n      dup2\n        /* \"#utility.yul\":7787:7798   */\n      swap1\n      pop\n        /* \"#utility.yul\":7707:7805   */\n      swap2\n      swap1\n      pop\n      jump\t// out\n        /* \"#utility.yul\":7811:7919   */\n    tag_69:\n        /* \"#utility.yul\":7888:7912   */\n      tag_164\n        /* \"#utility.yul\":7906:7911   */\n      dup2\n        /* \"#utility.yul\":7888:7912   */\n      tag_39\n      jump\t// in\n    tag_164:\n        /* \"#utility.yul\":7883:7886   */\n      dup3\n        /* \"#utility.yul\":7876:7913   */\n      mstore\n        /* \"#utility.yul\":7811:7919   */\n      pop\n      pop\n      jump\t// out\n        /* \"#utility.yul\":7925:8104   */\n    tag_70:\n        /* \"#utility.yul\":7994:8004   */\n      0x00\n        /* \"#utility.yul\":8015:8061   */\n      tag_166\n        /* \"#utility.yul\":8057:8060   */\n      dup4\n        /* \"#utility.yul\":8049:8055   */\n      dup4\n        /* \"#utility.yul\":8015:8061   */\n      tag_69\n      jump\t// in\n    tag_166:\n        /* \"#utility.yul\":8093:8097   */\n      0x20\n        /* \"#utility.yul\":8088:8091   */\n      dup4\n        /* \"#utility.yul\":8084:8098   */\n      add\n        /* \"#utility.yul\":8070:8098   */\n      swap1\n      pop\n        /* \"#utility.yul\":7925:8104   */\n      swap3\n      swap2\n      pop\n      pop\n      jump\t// out\n        /* \"#utility.yul\":8110:8221   */\n    tag_71:\n        /* \"#utility.yul\":8178:8182   */\n      0x00\n        /* \"#utility.yul\":8210:8214   */\n      0x20\n        /* \"#utility.yul\":8205:8208   */\n      dup3\n        /* \"#utility.yul\":8201:8215   */\n      add\n        /* \"#utility.yul\":8193:8215   */\n      swap1\n      pop\n        /* \"#utility.yul\":8110:8221   */\n      swap2\n      swap1\n      pop\n      jump\t// out\n        /* \"#utility.yul\":8259:8953   */\n    tag_72:\n        /* \"#utility.yul\":8395:8447   */\n      tag_169\n        /* \"#utility.yul\":8441:8446   */\n      dup2\n        /* \"#utility.yul\":8395:8447   */\n      tag_66\n      jump\t// in\n    tag_169:\n        /* \"#utility.yul\":8463:8547   */\n      tag_170\n        /* \"#utility.yul\":8540:8546   */\n      dup2\n        /* \"#utility.yul\":8535:8538   */\n      dup5\n        /* \"#utility.yul\":8463:8547   */\n      tag_67\n      jump\t// in\n    tag_170:\n        /* \"#utility.yul\":8456:8547   */\n      swap3\n      pop\n        /* \"#utility.yul\":8571:8625   */\n      tag_171\n        /* \"#utility.yul\":8619:8624   */\n      dup3\n        /* \"#utility.yul\":8571:8625   */\n      tag_68\n      jump\t// in\n    tag_171:\n        /* \"#utility.yul\":8648:8655   */\n      dup1\n        /* \"#utility.yul\":8679:8680   */\n      0x00\n        /* \"#utility.yul\":8664:8946   */\n    tag_172:\n        /* \"#utility.yul\":8689:8695   */\n      dup4\n        /* \"#utility.yul\":8686:8687   */\n      dup2\n        /* \"#utility.yul\":8683:8696   */\n      lt\n        /* \"#utility.yul\":8664:8946   */\n      iszero\n      tag_174\n      jumpi\n        /* \"#utility.yul\":8765:8771   */\n      dup2\n        /* \"#utility.yul\":8759:8772   */\n      mload\n        /* \"#utility.yul\":8792:8855   */\n      tag_175\n        /* \"#utility.yul\":8851:8854   */\n      dup8\n        /* \"#utility.yul\":8836:8849   */\n      dup3\n        /* \"#utility.yul\":8792:8855   */\n      tag_70\n      jump\t// in\n    tag_175:\n        /* \"#utility.yul\":8785:8855   */\n      swap7\n      pop\n        /* \"#utility.yul\":8878:8936   */\n      tag_176\n        /* \"#utility.yul\":8929:8935   */\n      dup4\n        /* \"#utility.yul\":8878:8936   */\n      tag_71\n      jump\t// in\n    tag_176:\n        /* \"#utility.yul\":8868:8936   */\n      swap3\n      pop\n        /* \"#utility.yul\":8724:8946   */\n      pop\n        /* \"#utility.yul\":8711:8712   */\n      0x01\n        /* \"#utility.yul\":8708:8709   */\n      dup2\n        /* \"#utility.yul\":8704:8713   */\n      add\n        /* \"#utility.yul\":8699:8713   */\n      swap1\n      pop\n        /* \"#utility.yul\":8664:8946   */\n      jump(tag_172)\n    tag_174:\n        /* \"#utility.yul\":8668:8682   */\n      pop\n        /* \"#utility.yul\":8371:8953   */\n      pop\n      pop\n      pop\n        /* \"#utility.yul\":8259:8953   */\n      pop\n      pop\n      jump\t// out\n        /* \"#utility.yul\":8959:9077   */\n    tag_73:\n        /* \"#utility.yul\":9046:9070   */\n      tag_178\n        /* \"#utility.yul\":9064:9069   */\n      dup2\n        /* \"#utility.yul\":9046:9070   */\n      tag_39\n      jump\t// in\n    tag_178:\n        /* \"#utility.yul\":9041:9044   */\n      dup3\n        /* \"#utility.yul\":9034:9071   */\n      mstore\n        /* \"#utility.yul\":8959:9077   */\n      pop\n      pop\n      jump\t// out\n        /* \"#utility.yul\":9083:9179   */\n    tag_74:\n        /* \"#utility.yul\":9120:9127   */\n      0x00\n        /* \"#utility.yul\":9149:9173   */\n      tag_180\n        /* \"#utility.yul\":9167:9172   */\n      dup3\n        /* \"#utility.yul\":9149:9173   */\n      tag_42\n      jump\t// in\n    tag_180:\n        /* \"#utility.yul\":9138:9173   */\n      swap1\n      pop\n        /* \"#utility.yul\":9083:9179   */\n      swap2\n      swap1\n      pop\n      jump\t// out\n        /* \"#utility.yul\":9185:9303   */\n    tag_75:\n        /* \"#utility.yul\":9272:9296   */\n      tag_182\n        /* \"#utility.yul\":9290:9295   */\n      dup2\n        /* \"#utility.yul\":9272:9296   */\n      tag_74\n      jump\t// in\n    tag_182:\n        /* \"#utility.yul\":9267:9270   */\n      dup3\n        /* \"#utility.yul\":9260:9297   */\n      mstore\n        /* \"#utility.yul\":9185:9303   */\n      pop\n      pop\n      jump\t// out\n        /* \"#utility.yul\":9309:10083   */\n    tag_33:\n        /* \"#utility.yul\":9568:9572   */\n      0x00\n        /* \"#utility.yul\":9606:9609   */\n      0x0120\n        /* \"#utility.yul\":9595:9604   */\n      dup3\n        /* \"#utility.yul\":9591:9610   */\n      add\n        /* \"#utility.yul\":9583:9610   */\n      swap1\n      pop\n        /* \"#utility.yul\":9620:9699   */\n      tag_184\n        /* \"#utility.yul\":9696:9697   */\n      0x00\n        /* \"#utility.yul\":9685:9694   */\n      dup4\n        /* \"#utility.yul\":9681:9698   */\n      add\n        /* \"#utility.yul\":9672:9678   */\n      dup9\n        /* \"#utility.yul\":9620:9699   */\n      tag_65\n      jump\t// in\n    tag_184:\n        /* \"#utility.yul\":9709:9827   */\n      tag_185\n        /* \"#utility.yul\":9823:9825   */\n      0x20\n        /* \"#utility.yul\":9812:9821   */\n      dup4\n        /* \"#utility.yul\":9808:9826   */\n      add\n        /* \"#utility.yul\":9799:9805   */\n      dup8\n        /* \"#utility.yul\":9709:9827   */\n      tag_72\n      jump\t// in\n    tag_185:\n        /* \"#utility.yul\":9837:9910   */\n      tag_186\n        /* \"#utility.yul\":9905:9908   */\n      0xc0\n        /* \"#utility.yul\":9894:9903   */\n      dup4\n        /* \"#utility.yul\":9890:9909   */\n      add\n        /* \"#utility.yul\":9881:9887   */\n      dup7\n        /* \"#utility.yul\":9837:9910   */\n      tag_73\n      jump\t// in\n    tag_186:\n        /* \"#utility.yul\":9920:9993   */\n      tag_187\n        /* \"#utility.yul\":9988:9991   */\n      0xe0\n        /* \"#utility.yul\":9977:9986   */\n      dup4\n        /* \"#utility.yul\":9973:9992   */\n      add\n        /* \"#utility.yul\":9964:9970   */\n      dup6\n        /* \"#utility.yul\":9920:9993   */\n      tag_73\n      jump\t// in\n    tag_187:\n        /* \"#utility.yul\":10003:10076   */\n      tag_188\n        /* \"#utility.yul\":10071:10074   */\n      0x0100\n        /* \"#utility.yul\":10060:10069   */\n      dup4\n        /* \"#utility.yul\":10056:10075   */\n      add\n        /* \"#utility.yul\":10047:10053   */\n      dup5\n        /* \"#utility.yul\":10003:10076   */\n      tag_75\n      jump\t// in\n    tag_188:\n        /* \"#utility.yul\":9309:10083   */\n      swap7\n      swap6\n      pop\n      pop\n      pop\n      pop\n      pop\n      pop\n      jump\t// out\n    stop\n\n    sub_0: assembly {\n            /* \"Group.sol\":688:6824  contract Group {... */\n          mstore(0x40, 0x80)\n            /* \"Group.sol\":1722:2283  constructor(... */\n          callvalue\n          dup1\n          iszero\n          tag_1\n          jumpi\n          0x00\n          dup1\n          revert\n        tag_1:\n          pop\n          mload(0x40)\n          sub(codesize, bytecodeSize)\n          dup1\n          bytecodeSize\n          dup4\n          codecopy\n          dup2\n          dup2\n          add\n          0x40\n          mstore\n          dup2\n          add\n          swap1\n          tag_2\n          swap2\n          swap1\n          tag_3\n          jump\t// in\n        tag_2:\n            /* \"Group.sol\":2076:2079  100 */\n          0x64\n            /* \"Group.sol\":2058:2068  splitRatio */\n          dup5\n            /* \"Group.sol\":2069:2070  4 */\n          0x04\n            /* \"Group.sol\":2058:2071  splitRatio[4] */\n          0x05\n          dup2\n          lt\n          tag_6\n          jumpi\n          tag_7\n          tag_8\n          jump\t// in\n        tag_7:\n        tag_6:\n          0x20\n          mul\n          add\n          mload\n            /* \"Group.sol\":2025:2035  splitRatio */\n          dup6\n            /* \"Group.sol\":2036:2037  3 */\n          0x03\n            /* \"Group.sol\":2025:2038  splitRatio[3] */\n          0x05\n          dup2\n          lt\n          tag_9\n          jumpi\n          tag_10\n          tag_8\n          jump\t// in\n        tag_10:\n        tag_9:\n          0x20\n          mul\n          add\n          mload\n            /* \"Group.sol\":1992:2002  splitRatio */\n          dup7\n            /* \"Group.sol\":2003:2004  2 */\n          0x02\n            /* \"Group.sol\":1992:2005  splitRatio[2] */\n          0x05\n          dup2\n          lt\n          tag_11\n          jumpi\n          tag_12\n          tag_8\n          jump\t// in\n        tag_12:\n        tag_11:\n          0x20\n          mul\n          add\n          mload\n            /* \"Group.sol\":1959:1969  splitRatio */\n          dup8\n            /* \"Group.sol\":1970:1971  1 */\n          0x01\n            /* \"Group.sol\":1959:1972  splitRatio[1] */\n          0x05\n          dup2\n          lt\n          tag_13\n          jumpi\n          tag_14\n          tag_8\n          jump\t// in\n        tag_14:\n        tag_13:\n          0x20\n          mul\n          add\n          mload\n            /* \"Group.sol\":1926:1936  splitRatio */\n          dup9\n            /* \"Group.sol\":1937:1938  0 */\n          0x00\n            /* \"Group.sol\":1926:1939  splitRatio[0] */\n          0x05\n          dup2\n          lt\n          tag_15\n          jumpi\n          tag_16\n          tag_8\n          jump\t// in\n        tag_16:\n        tag_15:\n          0x20\n          mul\n          add\n          mload\n            /* \"Group.sol\":1926:1972  splitRatio[0] +... */\n          tag_17\n          swap2\n          swap1\n          tag_18\n          jump\t// in\n        tag_17:\n            /* \"Group.sol\":1926:2005  splitRatio[0] +... */\n          tag_19\n          swap2\n          swap1\n          tag_18\n          jump\t// in\n        tag_19:\n            /* \"Group.sol\":1926:2038  splitRatio[0] +... */\n          tag_20\n          swap2\n          swap1\n          tag_18\n          jump\t// in\n        tag_20:\n            /* \"Group.sol\":1926:2071  splitRatio[0] +... */\n          tag_21\n          swap2\n          swap1\n          tag_18\n          jump\t// in\n        tag_21:\n            /* \"Group.sol\":1925:2079  (splitRatio[0] +... */\n          eq\n            /* \"Group.sol\":1903:2090  require(... */\n          tag_22\n          jumpi\n          0x00\n          dup1\n          revert\n        tag_22:\n            /* \"Group.sol\":2118:2131  systemAddress */\n          dup5\n            /* \"Group.sol\":2101:2107  system */\n          0x01\n          0x00\n            /* \"Group.sol\":2101:2132  system = payable(systemAddress) */\n          0x0100\n          exp\n          dup2\n          sload\n          dup2\n          0xffffffffffffffffffffffffffffffffffffffff\n          mul\n          not\n          and\n          swap1\n          dup4\n          0xffffffffffffffffffffffffffffffffffffffff\n          and\n          mul\n          or\n          swap1\n          sstore\n          pop\n            /* \"Group.sol\":2161:2171  splitRatio */\n          dup4\n            /* \"Group.sol\":2143:2158  splitRatioMoney */\n          0x02\n            /* \"Group.sol\":2143:2171  splitRatioMoney = splitRatio */\n          swap1\n          0x05\n          tag_23\n          swap3\n          swap2\n          swap1\n          tag_24\n          jump\t// in\n        tag_23:\n          pop\n            /* \"Group.sol\":2200:2209  memberFee */\n          dup3\n            /* \"Group.sol\":2182:2197  normalMemberFee */\n          0x07\n            /* \"Group.sol\":2182:2209  normalMemberFee = memberFee */\n          dup2\n          swap1\n          sstore\n          pop\n            /* \"Group.sol\":2235:2241  vipFee */\n          dup2\n            /* \"Group.sol\":2220:2232  vipMemberFee */\n          0x08\n            /* \"Group.sol\":2220:2241  vipMemberFee = vipFee */\n          dup2\n          swap1\n          sstore\n          pop\n            /* \"Group.sol\":2267:2274  creator */\n          dup1\n            /* \"Group.sol\":2252:2256  host */\n          0x00\n          dup1\n            /* \"Group.sol\":2252:2275  host = payable(creator) */\n          0x0100\n          exp\n          dup2\n          sload\n          dup2\n          0xffffffffffffffffffffffffffffffffffffffff\n          mul\n          not\n          and\n          swap1\n          dup4\n          0xffffffffffffffffffffffffffffffffffffffff\n          and\n          mul\n          or\n          swap1\n          sstore\n          pop\n            /* \"Group.sol\":1722:2283  constructor(... */\n          pop\n          pop\n          pop\n          pop\n          pop\n            /* \"Group.sol\":688:6824  contract Group {... */\n          jump(tag_25)\n        tag_24:\n          dup3\n          0x05\n          dup2\n          add\n          swap3\n          dup3\n          iszero\n          tag_26\n          jumpi\n          swap2\n          0x20\n          mul\n          dup3\n          add\n        tag_27:\n          dup3\n          dup2\n          gt\n          iszero\n          tag_28\n          jumpi\n          dup3\n          mload\n          dup3\n          sstore\n          swap2\n          0x20\n          add\n          swap2\n          swap1\n          0x01\n          add\n          swap1\n          jump(tag_27)\n        tag_28:\n        tag_26:\n          pop\n          swap1\n          pop\n          tag_29\n          swap2\n          swap1\n          tag_30\n          jump\t// in\n        tag_29:\n          pop\n          swap1\n          jump\t// out\n        tag_30:\n        tag_31:\n          dup1\n          dup3\n          gt\n          iszero\n          tag_32\n          jumpi\n          0x00\n          dup2\n          0x00\n          swap1\n          sstore\n          pop\n          0x01\n          add\n          jump(tag_31)\n        tag_32:\n          pop\n          swap1\n          jump\t// out\n            /* \"#utility.yul\":7:82   */\n        tag_33:\n            /* \"#utility.yul\":40:46   */\n          0x00\n            /* \"#utility.yul\":73:75   */\n          0x40\n            /* \"#utility.yul\":67:76   */\n          mload\n            /* \"#utility.yul\":57:76   */\n          swap1\n          pop\n            /* \"#utility.yul\":7:82   */\n          swap1\n          jump\t// out\n            /* \"#utility.yul\":88:205   */\n        tag_34:\n            /* \"#utility.yul\":197:198   */\n          0x00\n            /* \"#utility.yul\":194:195   */\n          dup1\n            /* \"#utility.yul\":187:199   */\n          revert\n            /* \"#utility.yul\":334:460   */\n        tag_36:\n            /* \"#utility.yul\":371:378   */\n          0x00\n            /* \"#utility.yul\":411:453   */\n          0xffffffffffffffffffffffffffffffffffffffff\n            /* \"#utility.yul\":404:409   */\n          dup3\n            /* \"#utility.yul\":400:454   */\n          and\n            /* \"#utility.yul\":389:454   */\n          swap1\n          pop\n            /* \"#utility.yul\":334:460   */\n          swap2\n          swap1\n          pop\n          jump\t// out\n            /* \"#utility.yul\":466:562   */\n        tag_37:\n            /* \"#utility.yul\":503:510   */\n          0x00\n            /* \"#utility.yul\":532:556   */\n          tag_59\n            /* \"#utility.yul\":550:555   */\n          dup3\n            /* \"#utility.yul\":532:556   */\n          tag_36\n          jump\t// in\n        tag_59:\n            /* \"#utility.yul\":521:556   */\n          swap1\n          pop\n            /* \"#utility.yul\":466:562   */\n          swap2\n          swap1\n          pop\n          jump\t// out\n            /* \"#utility.yul\":568:690   */\n        tag_38:\n            /* \"#utility.yul\":641:665   */\n          tag_61\n            /* \"#utility.yul\":659:664   */\n          dup2\n            /* \"#utility.yul\":641:665   */\n          tag_37\n          jump\t// in\n        tag_61:\n            /* \"#utility.yul\":634:639   */\n          dup2\n            /* \"#utility.yul\":631:666   */\n          eq\n            /* \"#utility.yul\":621:684   */\n          tag_62\n          jumpi\n            /* \"#utility.yul\":680:681   */\n          0x00\n            /* \"#utility.yul\":677:678   */\n          dup1\n            /* \"#utility.yul\":670:682   */\n          revert\n            /* \"#utility.yul\":621:684   */\n        tag_62:\n            /* \"#utility.yul\":568:690   */\n          pop\n          jump\t// out\n            /* \"#utility.yul\":696:839   */\n        tag_39:\n            /* \"#utility.yul\":753:758   */\n          0x00\n            /* \"#utility.yul\":784:790   */\n          dup2\n            /* \"#utility.yul\":778:791   */\n          mload\n            /* \"#utility.yul\":769:791   */\n          swap1\n          pop\n            /* \"#utility.yul\":800:833   */\n          tag_64\n            /* \"#utility.yul\":827:832   */\n          dup2\n            /* \"#utility.yul\":800:833   */\n          tag_38\n          jump\t// in\n        tag_64:\n            /* \"#utility.yul\":696:839   */\n          swap3\n          swap2\n          pop\n          pop\n          jump\t// out\n            /* \"#utility.yul\":845:962   */\n        tag_40:\n            /* \"#utility.yul\":954:955   */\n          0x00\n            /* \"#utility.yul\":951:952   */\n          dup1\n            /* \"#utility.yul\":944:956   */\n          revert\n            /* \"#utility.yul\":968:1070   */\n        tag_41:\n            /* \"#utility.yul\":1009:1015   */\n          0x00\n            /* \"#utility.yul\":1060:1062   */\n          0x1f\n            /* \"#utility.yul\":1056:1063   */\n          not\n            /* \"#utility.yul\":1051:1053   */\n          0x1f\n            /* \"#utility.yul\":1044:1049   */\n          dup4\n            /* \"#utility.yul\":1040:1054   */\n          add\n            /* \"#utility.yul\":1036:1064   */\n          and\n            /* \"#utility.yul\":1026:1064   */\n          swap1\n          pop\n            /* \"#utility.yul\":968:1070   */\n          swap2\n          swap1\n          pop\n          jump\t// out\n            /* \"#utility.yul\":1076:1256   */\n        tag_42:\n            /* \"#utility.yul\":1124:1201   */\n          0x4e487b7100000000000000000000000000000000000000000000000000000000\n            /* \"#utility.yul\":1121:1122   */\n          0x00\n            /* \"#utility.yul\":1114:1202   */\n          mstore\n            /* \"#utility.yul\":1221:1225   */\n          0x41\n            /* \"#utility.yul\":1218:1219   */\n          0x04\n            /* \"#utility.yul\":1211:1226   */\n          mstore\n            /* \"#utility.yul\":1245:1249   */\n          0x24\n            /* \"#utility.yul\":1242:1243   */\n          0x00\n            /* \"#utility.yul\":1235:1250   */\n          revert\n            /* \"#utility.yul\":1262:1543   */\n        tag_43:\n            /* \"#utility.yul\":1345:1372   */\n          tag_69\n            /* \"#utility.yul\":1367:1371   */\n          dup3\n            /* \"#utility.yul\":1345:1372   */\n          tag_41\n          jump\t// in\n        tag_69:\n            /* \"#utility.yul\":1337:1343   */\n          dup2\n            /* \"#utility.yul\":1333:1373   */\n          add\n            /* \"#utility.yul\":1475:1481   */\n          dup2\n            /* \"#utility.yul\":1463:1473   */\n          dup2\n            /* \"#utility.yul\":1460:1482   */\n          lt\n            /* \"#utility.yul\":1439:1457   */\n          0xffffffffffffffff\n            /* \"#utility.yul\":1427:1437   */\n          dup3\n            /* \"#utility.yul\":1424:1458   */\n          gt\n            /* \"#utility.yul\":1421:1483   */\n          or\n            /* \"#utility.yul\":1418:1506   */\n          iszero\n          tag_70\n          jumpi\n            /* \"#utility.yul\":1486:1504   */\n          tag_71\n          tag_42\n          jump\t// in\n        tag_71:\n            /* \"#utility.yul\":1418:1506   */\n        tag_70:\n            /* \"#utility.yul\":1526:1536   */\n          dup1\n            /* \"#utility.yul\":1522:1524   */\n          0x40\n            /* \"#utility.yul\":1515:1537   */\n          mstore\n            /* \"#utility.yul\":1305:1543   */\n          pop\n            /* \"#utility.yul\":1262:1543   */\n          pop\n          pop\n          jump\t// out\n            /* \"#utility.yul\":1549:1678   */\n        tag_44:\n            /* \"#utility.yul\":1583:1589   */\n          0x00\n            /* \"#utility.yul\":1610:1630   */\n          tag_73\n          tag_33\n          jump\t// in\n        tag_73:\n            /* \"#utility.yul\":1600:1630   */\n          swap1\n          pop\n            /* \"#utility.yul\":1639:1672   */\n          tag_74\n            /* \"#utility.yul\":1667:1671   */\n          dup3\n            /* \"#utility.yul\":1659:1665   */\n          dup3\n            /* \"#utility.yul\":1639:1672   */\n          tag_43\n          jump\t// in\n        tag_74:\n            /* \"#utility.yul\":1549:1678   */\n          swap2\n          swap1\n          pop\n          jump\t// out\n            /* \"#utility.yul\":1684:1933   */\n        tag_45:\n            /* \"#utility.yul\":1759:1763   */\n          0x00\n            /* \"#utility.yul\":1849:1867   */\n          0xffffffffffffffff\n            /* \"#utility.yul\":1841:1847   */\n          dup3\n            /* \"#utility.yul\":1838:1868   */\n          gt\n            /* \"#utility.yul\":1835:1891   */\n          iszero\n          tag_76\n          jumpi\n            /* \"#utility.yul\":1871:1889   */\n          tag_77\n          tag_42\n          jump\t// in\n        tag_77:\n            /* \"#utility.yul\":1835:1891   */\n        tag_76:\n            /* \"#utility.yul\":1921:1925   */\n          0x20\n            /* \"#utility.yul\":1913:1919   */\n          dup3\n            /* \"#utility.yul\":1909:1926   */\n          mul\n            /* \"#utility.yul\":1901:1926   */\n          swap1\n          pop\n            /* \"#utility.yul\":1684:1933   */\n          swap2\n          swap1\n          pop\n          jump\t// out\n            /* \"#utility.yul\":1939:2056   */\n        tag_46:\n            /* \"#utility.yul\":2048:2049   */\n          0x00\n            /* \"#utility.yul\":2045:2046   */\n          dup1\n            /* \"#utility.yul\":2038:2050   */\n          revert\n            /* \"#utility.yul\":2062:2139   */\n        tag_47:\n            /* \"#utility.yul\":2099:2106   */\n          0x00\n            /* \"#utility.yul\":2128:2133   */\n          dup2\n            /* \"#utility.yul\":2117:2133   */\n          swap1\n          pop\n            /* \"#utility.yul\":2062:2139   */\n          swap2\n          swap1\n          pop\n          jump\t// out\n            /* \"#utility.yul\":2145:2267   */\n        tag_48:\n            /* \"#utility.yul\":2218:2242   */\n          tag_81\n            /* \"#utility.yul\":2236:2241   */\n          dup2\n            /* \"#utility.yul\":2218:2242   */\n          tag_47\n          jump\t// in\n        tag_81:\n            /* \"#utility.yul\":2211:2216   */\n          dup2\n            /* \"#utility.yul\":2208:2243   */\n          eq\n            /* \"#utility.yul\":2198:2261   */\n          tag_82\n          jumpi\n            /* \"#utility.yul\":2257:2258   */\n          0x00\n            /* \"#utility.yul\":2254:2255   */\n          dup1\n            /* \"#utility.yul\":2247:2259   */\n          revert\n            /* \"#utility.yul\":2198:2261   */\n        tag_82:\n            /* \"#utility.yul\":2145:2267   */\n          pop\n          jump\t// out\n            /* \"#utility.yul\":2273:2416   */\n        tag_49:\n            /* \"#utility.yul\":2330:2335   */\n          0x00\n            /* \"#utility.yul\":2361:2367   */\n          dup2\n            /* \"#utility.yul\":2355:2368   */\n          mload\n            /* \"#utility.yul\":2346:2368   */\n          swap1\n          pop\n            /* \"#utility.yul\":2377:2410   */\n          tag_84\n            /* \"#utility.yul\":2404:2409   */\n          dup2\n            /* \"#utility.yul\":2377:2410   */\n          tag_48\n          jump\t// in\n        tag_84:\n            /* \"#utility.yul\":2273:2416   */\n          swap3\n          swap2\n          pop\n          pop\n          jump\t// out\n            /* \"#utility.yul\":2440:3105   */\n        tag_50:\n            /* \"#utility.yul\":2545:2550   */\n          0x00\n            /* \"#utility.yul\":2570:2649   */\n          tag_86\n            /* \"#utility.yul\":2586:2648   */\n          tag_87\n            /* \"#utility.yul\":2641:2647   */\n          dup5\n            /* \"#utility.yul\":2586:2648   */\n          tag_45\n          jump\t// in\n        tag_87:\n            /* \"#utility.yul\":2570:2649   */\n          tag_44\n          jump\t// in\n        tag_86:\n            /* \"#utility.yul\":2561:2649   */\n          swap1\n          pop\n            /* \"#utility.yul\":2669:2674   */\n          dup1\n            /* \"#utility.yul\":2722:2726   */\n          0x20\n            /* \"#utility.yul\":2714:2720   */\n          dup5\n            /* \"#utility.yul\":2710:2727   */\n          mul\n            /* \"#utility.yul\":2702:2708   */\n          dup4\n            /* \"#utility.yul\":2698:2728   */\n          add\n            /* \"#utility.yul\":2751:2754   */\n          dup6\n            /* \"#utility.yul\":2743:2749   */\n          dup2\n            /* \"#utility.yul\":2740:2755   */\n          gt\n            /* \"#utility.yul\":2737:2859   */\n          iszero\n          tag_88\n          jumpi\n            /* \"#utility.yul\":2770:2849   */\n          tag_89\n          tag_46\n          jump\t// in\n        tag_89:\n            /* \"#utility.yul\":2737:2859   */\n        tag_88:\n            /* \"#utility.yul\":2885:2891   */\n          dup4\n            /* \"#utility.yul\":2868:3099   */\n        tag_90:\n            /* \"#utility.yul\":2902:2908   */\n          dup2\n            /* \"#utility.yul\":2897:2900   */\n          dup2\n            /* \"#utility.yul\":2894:2909   */\n          lt\n            /* \"#utility.yul\":2868:3099   */\n          iszero\n          tag_92\n          jumpi\n            /* \"#utility.yul\":2977:2980   */\n          dup1\n            /* \"#utility.yul\":3006:3054   */\n          tag_93\n            /* \"#utility.yul\":3050:3053   */\n          dup9\n            /* \"#utility.yul\":3038:3048   */\n          dup3\n            /* \"#utility.yul\":3006:3054   */\n          tag_49\n          jump\t// in\n        tag_93:\n            /* \"#utility.yul\":3001:3004   */\n          dup5\n            /* \"#utility.yul\":2994:3055   */\n          mstore\n            /* \"#utility.yul\":3084:3088   */\n          0x20\n            /* \"#utility.yul\":3079:3082   */\n          dup5\n            /* \"#utility.yul\":3075:3089   */\n          add\n            /* \"#utility.yul\":3068:3089   */\n          swap4\n          pop\n            /* \"#utility.yul\":2944:3099   */\n          pop\n            /* \"#utility.yul\":2928:2932   */\n          0x20\n            /* \"#utility.yul\":2923:2926   */\n          dup2\n            /* \"#utility.yul\":2919:2933   */\n          add\n            /* \"#utility.yul\":2912:2933   */\n          swap1\n          pop\n            /* \"#utility.yul\":2868:3099   */\n          jump(tag_90)\n        tag_92:\n            /* \"#utility.yul\":2872:2893   */\n          pop\n            /* \"#utility.yul\":2551:3105   */\n          pop\n          pop\n            /* \"#utility.yul\":2440:3105   */\n          swap4\n          swap3\n          pop\n          pop\n          pop\n          jump\t// out\n            /* \"#utility.yul\":3129:3490   */\n        tag_51:\n            /* \"#utility.yul\":3209:3214   */\n          0x00\n            /* \"#utility.yul\":3258:3261   */\n          dup3\n            /* \"#utility.yul\":3251:3255   */\n          0x1f\n            /* \"#utility.yul\":3243:3249   */\n          dup4\n            /* \"#utility.yul\":3239:3256   */\n          add\n            /* \"#utility.yul\":3235:3262   */\n          slt\n            /* \"#utility.yul\":3225:3347   */\n          tag_95\n          jumpi\n            /* \"#utility.yul\":3266:3345   */\n          tag_96\n          tag_40\n          jump\t// in\n        tag_96:\n            /* \"#utility.yul\":3225:3347   */\n        tag_95:\n            /* \"#utility.yul\":3370:3374   */\n          0x05\n            /* \"#utility.yul\":3392:3484   */\n          tag_97\n            /* \"#utility.yul\":3480:3483   */\n          dup5\n            /* \"#utility.yul\":3472:3478   */\n          dup3\n            /* \"#utility.yul\":3464:3470   */\n          dup6\n            /* \"#utility.yul\":3392:3484   */\n          tag_50\n          jump\t// in\n        tag_97:\n            /* \"#utility.yul\":3383:3484   */\n          swap2\n          pop\n            /* \"#utility.yul\":3215:3490   */\n          pop\n            /* \"#utility.yul\":3129:3490   */\n          swap3\n          swap2\n          pop\n          pop\n          jump\t// out\n            /* \"#utility.yul\":3496:4521   */\n        tag_3:\n            /* \"#utility.yul\":3625:3631   */\n          0x00\n            /* \"#utility.yul\":3633:3639   */\n          dup1\n            /* \"#utility.yul\":3641:3647   */\n          0x00\n            /* \"#utility.yul\":3649:3655   */\n          dup1\n            /* \"#utility.yul\":3657:3663   */\n          0x00\n            /* \"#utility.yul\":3706:3709   */\n          0x0120\n            /* \"#utility.yul\":3694:3703   */\n          dup7\n            /* \"#utility.yul\":3685:3692   */\n          dup9\n            /* \"#utility.yul\":3681:3704   */\n          sub\n            /* \"#utility.yul\":3677:3710   */\n          slt\n            /* \"#utility.yul\":3674:3794   */\n          iszero\n          tag_99\n          jumpi\n            /* \"#utility.yul\":3713:3792   */\n          tag_100\n          tag_34\n          jump\t// in\n        tag_100:\n            /* \"#utility.yul\":3674:3794   */\n        tag_99:\n            /* \"#utility.yul\":3833:3834   */\n          0x00\n            /* \"#utility.yul\":3858:3922   */\n          tag_101\n            /* \"#utility.yul\":3914:3921   */\n          dup9\n            /* \"#utility.yul\":3905:3911   */\n          dup3\n            /* \"#utility.yul\":3894:3903   */\n          dup10\n            /* \"#utility.yul\":3890:3912   */\n          add\n            /* \"#utility.yul\":3858:3922   */\n          tag_39\n          jump\t// in\n        tag_101:\n            /* \"#utility.yul\":3848:3922   */\n          swap6\n          pop\n            /* \"#utility.yul\":3804:3932   */\n          pop\n            /* \"#utility.yul\":3971:3973   */\n          0x20\n            /* \"#utility.yul\":3997:4084   */\n          tag_102\n            /* \"#utility.yul\":4076:4083   */\n          dup9\n            /* \"#utility.yul\":4067:4073   */\n          dup3\n            /* \"#utility.yul\":4056:4065   */\n          dup10\n            /* \"#utility.yul\":4052:4074   */\n          add\n            /* \"#utility.yul\":3997:4084   */\n          tag_51\n          jump\t// in\n        tag_102:\n            /* \"#utility.yul\":3987:4084   */\n          swap5\n          pop\n            /* \"#utility.yul\":3942:4094   */\n          pop\n            /* \"#utility.yul\":4133:4136   */\n          0xc0\n            /* \"#utility.yul\":4160:4224   */\n          tag_103\n            /* \"#utility.yul\":4216:4223   */\n          dup9\n            /* \"#utility.yul\":4207:4213   */\n          dup3\n            /* \"#utility.yul\":4196:4205   */\n          dup10\n            /* \"#utility.yul\":4192:4214   */\n          add\n            /* \"#utility.yul\":4160:4224   */\n          tag_49\n          jump\t// in\n        tag_103:\n            /* \"#utility.yul\":4150:4224   */\n          swap4\n          pop\n            /* \"#utility.yul\":4104:4234   */\n          pop\n            /* \"#utility.yul\":4273:4276   */\n          0xe0\n            /* \"#utility.yul\":4300:4364   */\n          tag_104\n            /* \"#utility.yul\":4356:4363   */\n          dup9\n            /* \"#utility.yul\":4347:4353   */\n          dup3\n            /* \"#utility.yul\":4336:4345   */\n          dup10\n            /* \"#utility.yul\":4332:4354   */\n          add\n            /* \"#utility.yul\":4300:4364   */\n          tag_49\n          jump\t// in\n        tag_104:\n            /* \"#utility.yul\":4290:4364   */\n          swap3\n          pop\n            /* \"#utility.yul\":4244:4374   */\n          pop\n            /* \"#utility.yul\":4413:4416   */\n          0x0100\n            /* \"#utility.yul\":4440:4504   */\n          tag_105\n            /* \"#utility.yul\":4496:4503   */\n          dup9\n            /* \"#utility.yul\":4487:4493   */\n          dup3\n            /* \"#utility.yul\":4476:4485   */\n          dup10\n            /* \"#utility.yul\":4472:4494   */\n          add\n            /* \"#utility.yul\":4440:4504   */\n          tag_39\n          jump\t// in\n        tag_105:\n            /* \"#utility.yul\":4430:4504   */\n          swap2\n          pop\n            /* \"#utility.yul\":4384:4514   */\n          pop\n            /* \"#utility.yul\":3496:4521   */\n          swap3\n          swap6\n          pop\n          swap3\n          swap6\n          swap1\n          swap4\n          pop\n          jump\t// out\n            /* \"#utility.yul\":4527:4707   */\n        tag_8:\n            /* \"#utility.yul\":4575:4652   */\n          0x4e487b7100000000000000000000000000000000000000000000000000000000\n            /* \"#utility.yul\":4572:4573   */\n          0x00\n            /* \"#utility.yul\":4565:4653   */\n          mstore\n            /* \"#utility.yul\":4672:4676   */\n          0x32\n            /* \"#utility.yul\":4669:4670   */\n          0x04\n            /* \"#utility.yul\":4662:4677   */\n          mstore\n            /* \"#utility.yul\":4696:4700   */\n          0x24\n            /* \"#utility.yul\":4693:4694   */\n          0x00\n            /* \"#utility.yul\":4686:4701   */\n          revert\n            /* \"#utility.yul\":4713:4893   */\n        tag_52:\n            /* \"#utility.yul\":4761:4838   */\n          0x4e487b7100000000000000000000000000000000000000000000000000000000\n            /* \"#utility.yul\":4758:4759   */\n          0x00\n            /* \"#utility.yul\":4751:4839   */\n          mstore\n            /* \"#utility.yul\":4858:4862   */\n          0x11\n            /* \"#utility.yul\":4855:4856   */\n          0x04\n            /* \"#utility.yul\":4848:4863   */\n          mstore\n            /* \"#utility.yul\":4882:4886   */\n          0x24\n            /* \"#utility.yul\":4879:4880   */\n          0x00\n            /* \"#utility.yul\":4872:4887   */\n          revert\n            /* \"#utility.yul\":4899:5204   */\n        tag_18:\n            /* \"#utility.yul\":4939:4942   */\n          0x00\n            /* \"#utility.yul\":4958:4978   */\n          tag_109\n            /* \"#utility.yul\":4976:4977   */\n          dup3\n            /* \"#utility.yul\":4958:4978   */\n          tag_47\n          jump\t// in\n        tag_109:\n            /* \"#utility.yul\":4953:4978   */\n          swap2\n          pop\n            /* \"#utility.yul\":4992:5012   */\n          tag_110\n            /* \"#utility.yul\":5010:5011   */\n          dup4\n            /* \"#utility.yul\":4992:5012   */\n          tag_47\n          jump\t// in\n        tag_110:\n            /* \"#utility.yul\":4987:5012   */\n          swap3\n          pop\n            /* \"#utility.yul\":5146:5147   */\n          dup3\n            /* \"#utility.yul\":5078:5144   */\n          0xffffffffffffffffffffffffffffffffffffffffffffffffffffffffffffffff\n            /* \"#utility.yul\":5074:5148   */\n          sub\n            /* \"#utility.yul\":5071:5072   */\n          dup3\n            /* \"#utility.yul\":5068:5149   */\n          gt\n            /* \"#utility.yul\":5065:5172   */\n          iszero\n          tag_111\n          jumpi\n            /* \"#utility.yul\":5152:5170   */\n          tag_112\n          tag_52\n          jump\t// in\n        tag_112:\n            /* \"#utility.yul\":5065:5172   */\n        tag_111:\n            /* \"#utility.yul\":5196:5197   */\n          dup3\n            /* \"#utility.yul\":5193:5194   */\n          dup3\n            /* \"#utility.yul\":5189:5198   */\n          add\n            /* \"#utility.yul\":5182:5198   */\n          swap1\n          pop\n            /* \"#utility.yul\":4899:5204   */\n          swap3\n          swap2\n          pop\n          pop\n          jump\t// out\n            /* \"Group.sol\":688:6824  contract Group {... */\n        tag_25:\n          dataSize(sub_0)\n          dup1\n          dataOffset(sub_0)\n          0x00\n          codecopy\n          0x00\n          return\n        stop\n\n        sub_0: assembly {\n                /* \"Group.sol\":688:6824  contract Group {... */\n              mstore(0x40, 0x80)\n              jumpi(tag_1, lt(calldatasize, 0x04))\n              shr(0xe0, calldataload(0x00))\n              dup1\n              0x8e6b8ed3\n              gt\n              tag_32\n              jumpi\n              dup1\n              0xb69ef8a8\n              gt\n              tag_33\n              jumpi\n              dup1\n              0xcc66664f\n              gt\n              tag_34\n              jumpi\n              dup1\n              0xcc66664f\n              eq\n              tag_28\n              jumpi\n              dup1\n              0xd10c5475\n              eq\n              tag_29\n              jumpi\n              dup1\n              0xed88c68e\n              eq\n              tag_30\n              jumpi\n              dup1\n              0xf437bc59\n              eq\n              tag_31\n              jumpi\n              jump(tag_1)\n            tag_34:\n              dup1\n              0xb69ef8a8\n              eq\n              tag_24\n              jumpi\n              dup1\n              0xba44eecf\n              eq\n              tag_25\n              jumpi\n              dup1\n              0xc1dfba03\n              eq\n              tag_26\n              jumpi\n              dup1\n              0xc30e83f8\n              eq\n              tag_27\n              jumpi\n              jump(tag_1)\n            tag_33:\n              dup1\n              0x9bad74be\n              gt\n              tag_35\n              jumpi\n              dup1\n              0x9bad74be\n              eq\n              tag_20\n              jumpi\n              dup1\n              0xad7bbc29\n              eq\n              tag_21\n              jumpi\n              dup1\n              0xaeaf1e51\n              eq\n              tag_22\n              jumpi\n              dup1\n              0xaeee6fca\n              eq\n              tag_23\n              jumpi\n              jump(tag_1)\n            tag_35:\n              dup1\n              0x8e6b8ed3\n              eq\n              tag_17\n              jumpi\n              dup1\n              0x9026dee8\n              eq\n              tag_18\n              jumpi\n              dup1\n              0x95bf75fd\n              eq\n              tag_19\n              jumpi\n              jump(tag_1)\n            tag_32:\n              dup1\n              0x58e45bb7\n              gt\n              tag_36\n              jumpi\n              dup1\n              0x6a9c408f\n              gt\n              tag_37\n              jumpi\n              dup1\n              0x6a9c408f\n              eq\n              tag_13\n              jumpi\n              dup1\n              0x70480275\n              eq\n              tag_14\n              jumpi\n              dup1\n              0x7e458492\n              eq\n              tag_15\n              jumpi\n              dup1\n              0x7f4e2be1\n              eq\n              tag_16\n              jumpi\n              jump(tag_1)\n            tag_37:\n              dup1\n              0x58e45bb7\n              eq\n              tag_9\n              jumpi\n              dup1\n              0x5f63cf78\n              eq\n              tag_10\n              jumpi\n              dup1\n              0x6045051a\n              eq\n              tag_11\n              jumpi\n              dup1\n              0x65a4cec0\n              eq\n              tag_12\n              jumpi\n              jump(tag_1)\n            tag_36:\n              dup1\n              0x2826b690\n              gt\n              tag_38\n              jumpi\n              dup1\n              0x2826b690\n              eq\n              tag_5\n              jumpi\n              dup1\n              0x31ae450b\n              eq\n              tag_6\n              jumpi\n              dup1\n              0x33220ded\n              eq\n              tag_7\n              jumpi\n              dup1\n              0x3ba0e661\n              eq\n              tag_8\n              jumpi\n              jump(tag_1)\n            tag_38:\n              dup1\n              0x0f30fa3f\n              eq\n              tag_2\n              jumpi\n              dup1\n              0x171bf224\n              eq\n              tag_3\n              jumpi\n              dup1\n              0x1c4e870f\n              eq\n              tag_4\n              jumpi\n            tag_1:\n              0x00\n              dup1\n              revert\n                /* \"Group.sol\":4142:4457  function removeVip(uint256 index) public payable {... */\n            tag_2:\n              tag_39\n              0x04\n              dup1\n              calldatasize\n              sub\n              dup2\n              add\n              swap1\n              tag_40\n              swap2\n              swap1\n              tag_41\n              jump\t// in\n            tag_40:\n              tag_42\n              jump\t// in\n            tag_39:\n              stop\n                /* \"Group.sol\":3354:3777  function removeInspector(uint256 index) public restrictedHost {... */\n            tag_3:\n              callvalue\n              dup1\n              iszero\n              tag_43\n              jumpi\n              0x00\n              dup1\n              revert\n            tag_43:\n              pop\n              tag_44\n              0x04\n              dup1\n              calldatasize\n              sub\n              dup2\n              add\n              swap1\n              tag_45\n              swap2\n              swap1\n              tag_41\n              jump\t// in\n            tag_45:\n              tag_46\n              jump\t// in\n            tag_44:\n              stop\n                /* \"Group.sol\":1370:1394  uint256 public hostMoney */\n            tag_4:\n              callvalue\n              dup1\n              iszero\n              tag_47\n              jumpi\n              0x00\n              dup1\n              revert\n            tag_47:\n              pop\n              tag_48\n              tag_49\n              jump\t// in\n            tag_48:\n              mload(0x40)\n              tag_50\n              swap2\n              swap1\n              tag_51\n              jump\t// in\n            tag_50:\n              mload(0x40)\n              dup1\n              swap2\n              sub\n              swap1\n              return\n                /* \"Group.sol\":4578:4682  function getVips() public view returns (address payable[] memory) {... */\n            tag_5:\n              callvalue\n              dup1\n              iszero\n              tag_52\n              jumpi\n              0x00\n              dup1\n              revert\n            tag_52:\n              pop\n              tag_53\n              tag_54\n              jump\t// in\n            tag_53:\n              mload(0x40)\n              tag_55\n              swap2\n              swap1\n              tag_56\n              jump\t// in\n            tag_55:\n              mload(0x40)\n              dup1\n              swap2\n              sub\n              swap1\n              return\n                /* \"Group.sol\":4690:4798  function getAdmins() public view returns (address payable[] memory) {... */\n            tag_6:\n              callvalue\n              dup1\n              iszero\n              tag_57\n              jumpi\n              0x00\n              dup1\n              revert\n            tag_57:\n              pop\n              tag_58\n              tag_59\n              jump\t// in\n            tag_58:\n              mload(0x40)\n              tag_60\n              swap2\n              swap1\n              tag_56\n              jump\t// in\n            tag_60:\n              mload(0x40)\n              dup1\n              swap2\n              sub\n              swap1\n              return\n                /* \"Group.sol\":806:839  uint256[5] public splitRatioMoney */\n            tag_7:\n              callvalue\n              dup1\n              iszero\n              tag_61\n              jumpi\n              0x00\n              dup1\n              revert\n            tag_61:\n              pop\n              tag_62\n              0x04\n              dup1\n              calldatasize\n              sub\n              dup2\n              add\n              swap1\n              tag_63\n              swap2\n              swap1\n              tag_41\n              jump\t// in\n            tag_63:\n              tag_64\n              jump\t// in\n            tag_62:\n              mload(0x40)\n              tag_65\n              swap2\n              swap1\n              tag_51\n              jump\t// in\n            tag_65:\n              mload(0x40)\n              dup1\n              swap2\n              sub\n              swap1\n              return\n                /* \"Group.sol\":936:963  uint256 public vipMemberFee */\n            tag_8:\n              callvalue\n              dup1\n              iszero\n              tag_66\n              jumpi\n              0x00\n              dup1\n              revert\n            tag_66:\n              pop\n              tag_67\n              tag_68\n              jump\t// in\n            tag_67:\n              mload(0x40)\n              tag_69\n              swap2\n              swap1\n              tag_51\n              jump\t// in\n            tag_69:\n              mload(0x40)\n              dup1\n              swap2\n              sub\n              swap1\n              return\n                /* \"Group.sol\":1288:1334  mapping(address => bool) public checkInspector */\n            tag_9:\n              callvalue\n              dup1\n              iszero\n              tag_70\n              jumpi\n              0x00\n              dup1\n              revert\n            tag_70:\n              pop\n              tag_71\n              0x04\n              dup1\n              calldatasize\n              sub\n              dup2\n              add\n              swap1\n              tag_72\n              swap2\n              swap1\n              tag_73\n              jump\t// in\n            tag_72:\n              tag_74\n              jump\t// in\n            tag_71:\n              mload(0x40)\n              tag_75\n              swap2\n              swap1\n              tag_76\n              jump\t// in\n            tag_75:\n              mload(0x40)\n              dup1\n              swap2\n              sub\n              swap1\n              return\n                /* \"Group.sol\":4930:6821  function giveMoney(... */\n            tag_10:\n              callvalue\n              dup1\n              iszero\n              tag_77\n              jumpi\n              0x00\n              dup1\n              revert\n            tag_77:\n              pop\n              tag_78\n              0x04\n              dup1\n              calldatasize\n              sub\n              dup2\n              add\n              swap1\n              tag_79\n              swap2\n              swap1\n              tag_80\n              jump\t// in\n            tag_79:\n              tag_81\n              jump\t// in\n            tag_78:\n              stop\n                /* \"Group.sol\":970:1007  address payable[] public vipAddresses */\n            tag_11:\n              callvalue\n              dup1\n              iszero\n              tag_82\n              jumpi\n              0x00\n              dup1\n              revert\n            tag_82:\n              pop\n              tag_83\n              0x04\n              dup1\n              calldatasize\n              sub\n              dup2\n              add\n              swap1\n              tag_84\n              swap2\n              swap1\n              tag_41\n              jump\t// in\n            tag_84:\n              tag_85\n              jump\t// in\n            tag_83:\n              mload(0x40)\n              tag_86\n              swap2\n              swap1\n              tag_87\n              jump\t// in\n            tag_86:\n              mload(0x40)\n              dup1\n              swap2\n              sub\n              swap1\n              return\n                /* \"Group.sol\":899:929  uint256 public normalMemberFee */\n            tag_12:\n              callvalue\n              dup1\n              iszero\n              tag_88\n              jumpi\n              0x00\n              dup1\n              revert\n            tag_88:\n              pop\n              tag_89\n              tag_90\n              jump\t// in\n            tag_89:\n              mload(0x40)\n              tag_91\n              swap2\n              swap1\n              tag_51\n              jump\t// in\n            tag_91:\n              mload(0x40)\n              dup1\n              swap2\n              sub\n              swap1\n              return\n                /* \"Group.sol\":1469:1492  uint256 public vipMoney */\n            tag_13:\n              callvalue\n              dup1\n              iszero\n              tag_92\n              jumpi\n              0x00\n              dup1\n              revert\n            tag_92:\n              pop\n              tag_93\n              tag_94\n              jump\t// in\n            tag_93:\n              mload(0x40)\n              tag_95\n              swap2\n              swap1\n              tag_51\n              jump\t// in\n            tag_95:\n              mload(0x40)\n              dup1\n              swap2\n              sub\n              swap1\n              return\n                /* \"Group.sol\":2291:2536  function addAdmin(address adminAddress) public restrictedHost {... */\n            tag_14:\n              callvalue\n              dup1\n              iszero\n              tag_96\n              jumpi\n              0x00\n              dup1\n              revert\n            tag_96:\n              pop\n              tag_97\n              0x04\n              dup1\n              calldatasize\n              sub\n              dup2\n              add\n              swap1\n              tag_98\n              swap2\n              swap1\n              tag_73\n              jump\t// in\n            tag_98:\n              tag_99\n              jump\t// in\n            tag_97:\n              stop\n                /* \"Group.sol\":2982:3263  function addInspector(address inspectorAddress) public restrictedHost {... */\n            tag_15:\n              callvalue\n              dup1\n              iszero\n              tag_100\n              jumpi\n              0x00\n              dup1\n              revert\n            tag_100:\n              pop\n              tag_101\n              0x04\n              dup1\n              calldatasize\n              sub\n              dup2\n              add\n              swap1\n              tag_102\n              swap2\n              swap1\n              tag_73\n              jump\t// in\n            tag_102:\n              tag_103\n              jump\t// in\n            tag_101:\n              stop\n                /* \"Group.sol\":1238:1281  address payable[] public inspectorAddresses */\n            tag_16:\n              callvalue\n              dup1\n              iszero\n              tag_104\n              jumpi\n              0x00\n              dup1\n              revert\n            tag_104:\n              pop\n              tag_105\n              0x04\n              dup1\n              calldatasize\n              sub\n              dup2\n              add\n              swap1\n              tag_106\n              swap2\n              swap1\n              tag_41\n              jump\t// in\n            tag_106:\n              tag_107\n              jump\t// in\n            tag_105:\n              mload(0x40)\n              tag_108\n              swap2\n              swap1\n              tag_87\n              jump\t// in\n            tag_108:\n              mload(0x40)\n              dup1\n              swap2\n              sub\n              swap1\n              return\n                /* \"Group.sol\":4806:4922  function getInspectors() public view returns (address payable[] memory) {... */\n            tag_17:\n              callvalue\n              dup1\n              iszero\n              tag_109\n              jumpi\n              0x00\n              dup1\n              revert\n            tag_109:\n              pop\n              tag_110\n              tag_111\n              jump\t// in\n            tag_110:\n              mload(0x40)\n              tag_112\n              swap2\n              swap1\n              tag_56\n              jump\t// in\n            tag_112:\n              mload(0x40)\n              dup1\n              swap2\n              sub\n              swap1\n              return\n                /* \"Group.sol\":1189:1231  mapping(address => bool) public checkAdmin */\n            tag_18:\n              callvalue\n              dup1\n              iszero\n              tag_113\n              jumpi\n              0x00\n              dup1\n              revert\n            tag_113:\n              pop\n              tag_114\n              0x04\n              dup1\n              calldatasize\n              sub\n              dup2\n              add\n              swap1\n              tag_115\n              swap2\n              swap1\n              tag_73\n              jump\t// in\n            tag_115:\n              tag_116\n              jump\t// in\n            tag_114:\n              mload(0x40)\n              tag_117\n              swap2\n              swap1\n              tag_76\n              jump\t// in\n            tag_117:\n              mload(0x40)\n              dup1\n              swap2\n              sub\n              swap1\n              return\n                /* \"Group.sol\":770:799  address payable public system */\n            tag_19:\n              callvalue\n              dup1\n              iszero\n              tag_118\n              jumpi\n              0x00\n              dup1\n              revert\n            tag_118:\n              pop\n              tag_119\n              tag_120\n              jump\t// in\n            tag_119:\n              mload(0x40)\n              tag_121\n              swap2\n              swap1\n              tag_87\n              jump\t// in\n            tag_121:\n              mload(0x40)\n              dup1\n              swap2\n              sub\n              swap1\n              return\n                /* \"Group.sol\":1108:1136  uint256 public totalReaction */\n            tag_20:\n              callvalue\n              dup1\n              iszero\n              tag_122\n              jumpi\n              0x00\n              dup1\n              revert\n            tag_122:\n              pop\n              tag_123\n              tag_124\n              jump\t// in\n            tag_123:\n              mload(0x40)\n              tag_125\n              swap2\n              swap1\n              tag_51\n              jump\t// in\n            tag_125:\n              mload(0x40)\n              dup1\n              swap2\n              sub\n              swap1\n              return\n                /* \"Group.sol\":2619:2974  function removeAdmin(uint256 index) public restrictedHost {... */\n            tag_21:\n              callvalue\n              dup1\n              iszero\n              tag_126\n              jumpi\n              0x00\n              dup1\n              revert\n            tag_126:\n              pop\n              tag_127\n              0x04\n              dup1\n              calldatasize\n              sub\n              dup2\n              add\n              swap1\n              tag_128\n              swap2\n              swap1\n              tag_41\n              jump\t// in\n            tag_128:\n              tag_129\n              jump\t// in\n            tag_127:\n              stop\n                /* \"Group.sol\":1401:1426  uint256 public adminMoney */\n            tag_22:\n              callvalue\n              dup1\n              iszero\n              tag_130\n              jumpi\n              0x00\n              dup1\n              revert\n            tag_130:\n              pop\n              tag_131\n              tag_132\n              jump\t// in\n            tag_131:\n              mload(0x40)\n              tag_133\n              swap2\n              swap1\n              tag_51\n              jump\t// in\n            tag_133:\n              mload(0x40)\n              dup1\n              swap2\n              sub\n              swap1\n              return\n                /* \"Group.sol\":1433:1462  uint256 public inspectorMoney */\n            tag_23:\n              callvalue\n              dup1\n              iszero\n              tag_134\n              jumpi\n              0x00\n              dup1\n              revert\n            tag_134:\n              pop\n              tag_135\n              tag_136\n              jump\t// in\n            tag_135:\n              mload(0x40)\n              tag_137\n              swap2\n              swap1\n              tag_51\n              jump\t// in\n            tag_137:\n              mload(0x40)\n              dup1\n              swap2\n              sub\n              swap1\n              return\n                /* \"Group.sol\":1341:1363  uint256 public balance */\n            tag_24:\n              callvalue\n              dup1\n              iszero\n              tag_138\n              jumpi\n              0x00\n              dup1\n              revert\n            tag_138:\n              pop\n              tag_139\n              tag_140\n              jump\t// in\n            tag_139:\n              mload(0x40)\n              tag_141\n              swap2\n              swap1\n              tag_51\n              jump\t// in\n            tag_141:\n              mload(0x40)\n              dup1\n              swap2\n              sub\n              swap1\n              return\n                /* \"Group.sol\":1143:1182  address payable[] public adminAddresses */\n            tag_25:\n              callvalue\n              dup1\n              iszero\n              tag_142\n              jumpi\n              0x00\n              dup1\n              revert\n            tag_142:\n              pop\n              tag_143\n              0x04\n              dup1\n              calldatasize\n              sub\n              dup2\n              add\n              swap1\n              tag_144\n              swap2\n              swap1\n              tag_41\n              jump\t// in\n            tag_144:\n              tag_145\n              jump\t// in\n            tag_143:\n              mload(0x40)\n              tag_146\n              swap2\n              swap1\n              tag_87\n              jump\t// in\n            tag_146:\n              mload(0x40)\n              dup1\n              swap2\n              sub\n              swap1\n              return\n                /* \"Group.sol\":1499:1525  uint256 public systemMoney */\n            tag_26:\n              callvalue\n              dup1\n              iszero\n              tag_147\n              jumpi\n              0x00\n              dup1\n              revert\n            tag_147:\n              pop\n              tag_148\n              tag_149\n              jump\t// in\n            tag_148:\n              mload(0x40)\n              tag_150\n              swap2\n              swap1\n              tag_51\n              jump\t// in\n            tag_150:\n              mload(0x40)\n              dup1\n              swap2\n              sub\n              swap1\n              return\n                /* \"Group.sol\":3785:3915  function joinNormalMember() public payable {... */\n            tag_27:\n              tag_151\n              tag_152\n              jump\t// in\n            tag_151:\n              stop\n                /* \"Group.sol\":1014:1054  mapping(address => bool) public checkVip */\n            tag_28:\n              callvalue\n              dup1\n              iszero\n              tag_153\n              jumpi\n              0x00\n              dup1\n              revert\n            tag_153:\n              pop\n              tag_154\n              0x04\n              dup1\n              calldatasize\n              sub\n              dup2\n              add\n              swap1\n              tag_155\n              swap2\n              swap1\n              tag_73\n              jump\t// in\n            tag_155:\n              tag_156\n              jump\t// in\n            tag_154:\n              mload(0x40)\n              tag_157\n              swap2\n              swap1\n              tag_76\n              jump\t// in\n            tag_157:\n              mload(0x40)\n              dup1\n              swap2\n              sub\n              swap1\n              return\n                /* \"Group.sol\":3923:4134  function joinVipMember() public payable {... */\n            tag_29:\n              tag_158\n              tag_159\n              jump\t// in\n            tag_158:\n              stop\n                /* \"Group.sol\":4465:4570  function donate() public payable {... */\n            tag_30:\n              tag_160\n              tag_161\n              jump\t// in\n            tag_160:\n              stop\n                /* \"Group.sol\":736:763  address payable public host */\n            tag_31:\n              callvalue\n              dup1\n              iszero\n              tag_162\n              jumpi\n              0x00\n              dup1\n              revert\n            tag_162:\n              pop\n              tag_163\n              tag_164\n              jump\t// in\n            tag_163:\n              mload(0x40)\n              tag_165\n              swap2\n              swap1\n              tag_87\n              jump\t// in\n            tag_165:\n              mload(0x40)\n              dup1\n              swap2\n              sub\n              swap1\n              return\n                /* \"Group.sol\":4142:4457  function removeVip(uint256 index) public payable {... */\n            tag_42:\n                /* \"Group.sol\":4224:4228  host */\n              0x00\n              dup1\n              sload\n              swap1\n              0x0100\n              exp\n              swap1\n              div\n              0xffffffffffffffffffffffffffffffffffffffff\n              and\n                /* \"Group.sol\":4210:4228  msg.sender == host */\n              0xffffffffffffffffffffffffffffffffffffffff\n              and\n                /* \"Group.sol\":4210:4220  msg.sender */\n              caller\n                /* \"Group.sol\":4210:4228  msg.sender == host */\n              0xffffffffffffffffffffffffffffffffffffffff\n              and\n              eq\n                /* \"Group.sol\":4210:4254  msg.sender == host || checkAdmin[msg.sender] */\n              dup1\n              tag_167\n              jumpi\n              pop\n                /* \"Group.sol\":4232:4242  checkAdmin */\n              0x0e\n                /* \"Group.sol\":4232:4254  checkAdmin[msg.sender] */\n              0x00\n                /* \"Group.sol\":4243:4253  msg.sender */\n              caller\n                /* \"Group.sol\":4232:4254  checkAdmin[msg.sender] */\n              0xffffffffffffffffffffffffffffffffffffffff\n              and\n              0xffffffffffffffffffffffffffffffffffffffff\n              and\n              dup2\n              mstore\n              0x20\n              add\n              swap1\n              dup2\n              mstore\n              0x20\n              add\n              0x00\n              keccak256\n              0x00\n              swap1\n              sload\n              swap1\n              0x0100\n              exp\n              swap1\n              div\n              0xff\n              and\n                /* \"Group.sol\":4210:4254  msg.sender == host || checkAdmin[msg.sender] */\n            tag_167:\n                /* \"Group.sol\":4202:4255  require(msg.sender == host || checkAdmin[msg.sender]) */\n              tag_168\n              jumpi\n              0x00\n              dup1\n              revert\n            tag_168:\n                /* \"Group.sol\":4282:4294  vipAddresses */\n              0x09\n                /* \"Group.sol\":4282:4301  vipAddresses.length */\n              dup1\n              sload\n              swap1\n              pop\n                /* \"Group.sol\":4274:4279  index */\n              dup2\n                /* \"Group.sol\":4274:4301  index < vipAddresses.length */\n              lt\n                /* \"Group.sol\":4266:4302  require(index < vipAddresses.length) */\n              tag_169\n              jumpi\n              0x00\n              dup1\n              revert\n            tag_169:\n                /* \"Group.sol\":4345:4350  false */\n              0x00\n                /* \"Group.sol\":4313:4321  checkVip */\n              0x0a\n                /* \"Group.sol\":4313:4342  checkVip[vipAddresses[index]] */\n              0x00\n                /* \"Group.sol\":4322:4334  vipAddresses */\n              0x09\n                /* \"Group.sol\":4335:4340  index */\n              dup5\n                /* \"Group.sol\":4322:4341  vipAddresses[index] */\n              dup2\n              sload\n              dup2\n              lt\n              tag_170\n              jumpi\n              tag_171\n              tag_172\n              jump\t// in\n            tag_171:\n            tag_170:\n              swap1\n              0x00\n              mstore\n              keccak256(0x00, 0x20)\n              add\n              0x00\n              swap1\n              sload\n              swap1\n              0x0100\n              exp\n              swap1\n              div\n              0xffffffffffffffffffffffffffffffffffffffff\n              and\n                /* \"Group.sol\":4313:4342  checkVip[vipAddresses[index]] */\n              0xffffffffffffffffffffffffffffffffffffffff\n              and\n              0xffffffffffffffffffffffffffffffffffffffff\n              and\n              dup2\n              mstore\n              0x20\n              add\n              swap1\n              dup2\n              mstore\n              0x20\n              add\n              0x00\n              keccak256\n              0x00\n                /* \"Group.sol\":4313:4350  checkVip[vipAddresses[index]] = false */\n              0x0100\n              exp\n              dup2\n              sload\n              dup2\n              0xff\n              mul\n              not\n              and\n              swap1\n              dup4\n              iszero\n              iszero\n              mul\n              or\n              swap1\n              sstore\n              pop\n                /* \"Group.sol\":4383:4395  vipAddresses */\n              0x09\n                /* \"Group.sol\":4418:4419  1 */\n              0x01\n                /* \"Group.sol\":4396:4408  vipAddresses */\n              0x09\n                /* \"Group.sol\":4396:4415  vipAddresses.length */\n              dup1\n              sload\n              swap1\n              pop\n                /* \"Group.sol\":4396:4419  vipAddresses.length - 1 */\n              tag_174\n              swap2\n              swap1\n              tag_175\n              jump\t// in\n            tag_174:\n                /* \"Group.sol\":4383:4420  vipAddresses[vipAddresses.length - 1] */\n              dup2\n              sload\n              dup2\n              lt\n              tag_176\n              jumpi\n              tag_177\n              tag_172\n              jump\t// in\n            tag_177:\n            tag_176:\n              swap1\n              0x00\n              mstore\n              keccak256(0x00, 0x20)\n              add\n              0x00\n              swap1\n              sload\n              swap1\n              0x0100\n              exp\n              swap1\n              div\n              0xffffffffffffffffffffffffffffffffffffffff\n              and\n                /* \"Group.sol\":4361:4373  vipAddresses */\n              0x09\n                /* \"Group.sol\":4374:4379  index */\n              dup3\n                /* \"Group.sol\":4361:4380  vipAddresses[index] */\n              dup2\n              sload\n              dup2\n              lt\n              tag_179\n              jumpi\n              tag_180\n              tag_172\n              jump\t// in\n            tag_180:\n            tag_179:\n              swap1\n              0x00\n              mstore\n              keccak256(0x00, 0x20)\n              add\n              0x00\n                /* \"Group.sol\":4361:4420  vipAddresses[index] = vipAddresses[vipAddresses.length - 1] */\n              0x0100\n              exp\n              dup2\n              sload\n              dup2\n              0xffffffffffffffffffffffffffffffffffffffff\n              mul\n              not\n              and\n              swap1\n              dup4\n              0xffffffffffffffffffffffffffffffffffffffff\n              and\n              mul\n              or\n              swap1\n              sstore\n              pop\n                /* \"Group.sol\":4431:4443  vipAddresses */\n              0x09\n                /* \"Group.sol\":4431:4449  vipAddresses.pop() */\n              dup1\n              sload\n              dup1\n              tag_182\n              jumpi\n              tag_183\n              tag_184\n              jump\t// in\n            tag_183:\n            tag_182:\n              0x01\n              swap1\n              sub\n              dup2\n              dup2\n              swap1\n              0x00\n              mstore\n              keccak256(0x00, 0x20)\n              add\n              exp(0x0100, 0x00)\n              dup2\n              sload\n              swap1\n              0xffffffffffffffffffffffffffffffffffffffff\n              mul\n              not\n              and\n              swap1\n              sstore\n              swap1\n              sstore\n                /* \"Group.sol\":4142:4457  function removeVip(uint256 index) public payable {... */\n              pop\n              jump\t// out\n                /* \"Group.sol\":3354:3777  function removeInspector(uint256 index) public restrictedHost {... */\n            tag_46:\n                /* \"Group.sol\":1593:1597  host */\n              0x00\n              dup1\n              sload\n              swap1\n              0x0100\n              exp\n              swap1\n              div\n              0xffffffffffffffffffffffffffffffffffffffff\n              and\n                /* \"Group.sol\":1579:1597  msg.sender == host */\n              0xffffffffffffffffffffffffffffffffffffffff\n              and\n                /* \"Group.sol\":1579:1589  msg.sender */\n              caller\n                /* \"Group.sol\":1579:1597  msg.sender == host */\n              0xffffffffffffffffffffffffffffffffffffffff\n              and\n              eq\n                /* \"Group.sol\":1571:1598  require(msg.sender == host) */\n              tag_187\n              jumpi\n              0x00\n              dup1\n              revert\n            tag_187:\n                /* \"Group.sol\":3536:3554  inspectorAddresses */\n              0x0f\n                /* \"Group.sol\":3536:3561  inspectorAddresses.length */\n              dup1\n              sload\n              swap1\n              pop\n                /* \"Group.sol\":3528:3533  index */\n              dup2\n                /* \"Group.sol\":3528:3561  index < inspectorAddresses.length */\n              lt\n                /* \"Group.sol\":3520:3562  require(index < inspectorAddresses.length) */\n              tag_189\n              jumpi\n              0x00\n              dup1\n              revert\n            tag_189:\n                /* \"Group.sol\":3617:3622  false */\n              0x00\n                /* \"Group.sol\":3573:3587  checkInspector */\n              0x10\n                /* \"Group.sol\":3573:3614  checkInspector[inspectorAddresses[index]] */\n              0x00\n                /* \"Group.sol\":3588:3606  inspectorAddresses */\n              0x0f\n                /* \"Group.sol\":3607:3612  index */\n              dup5\n                /* \"Group.sol\":3588:3613  inspectorAddresses[index] */\n              dup2\n              sload\n              dup2\n              lt\n              tag_190\n              jumpi\n              tag_191\n              tag_172\n              jump\t// in\n            tag_191:\n            tag_190:\n              swap1\n              0x00\n              mstore\n              keccak256(0x00, 0x20)\n              add\n              0x00\n              swap1\n              sload\n              swap1\n              0x0100\n              exp\n              swap1\n              div\n              0xffffffffffffffffffffffffffffffffffffffff\n              and\n                /* \"Group.sol\":3573:3614  checkInspector[inspectorAddresses[index]] */\n              0xffffffffffffffffffffffffffffffffffffffff\n              and\n              0xffffffffffffffffffffffffffffffffffffffff\n              and\n              dup2\n              mstore\n              0x20\n              add\n              swap1\n              dup2\n              mstore\n              0x20\n              add\n              0x00\n              keccak256\n              0x00\n                /* \"Group.sol\":3573:3622  checkInspector[inspectorAddresses[index]] = false */\n              0x0100\n              exp\n              dup2\n              sload\n              dup2\n              0xff\n              mul\n              not\n              and\n              swap1\n              dup4\n              iszero\n              iszero\n              mul\n              or\n              swap1\n              sstore\n              pop\n                /* \"Group.sol\":3661:3679  inspectorAddresses */\n              0x0f\n                /* \"Group.sol\":3722:3723  1 */\n              0x01\n                /* \"Group.sol\":3694:3712  inspectorAddresses */\n              0x0f\n                /* \"Group.sol\":3694:3719  inspectorAddresses.length */\n              dup1\n              sload\n              swap1\n              pop\n                /* \"Group.sol\":3694:3723  inspectorAddresses.length - 1 */\n              tag_193\n              swap2\n              swap1\n              tag_175\n              jump\t// in\n            tag_193:\n                /* \"Group.sol\":3661:3734  inspectorAddresses[... */\n              dup2\n              sload\n              dup2\n              lt\n              tag_194\n              jumpi\n              tag_195\n              tag_172\n              jump\t// in\n            tag_195:\n            tag_194:\n              swap1\n              0x00\n              mstore\n              keccak256(0x00, 0x20)\n              add\n              0x00\n              swap1\n              sload\n              swap1\n              0x0100\n              exp\n              swap1\n              div\n              0xffffffffffffffffffffffffffffffffffffffff\n              and\n                /* \"Group.sol\":3633:3651  inspectorAddresses */\n              0x0f\n                /* \"Group.sol\":3652:3657  index */\n              dup3\n                /* \"Group.sol\":3633:3658  inspectorAddresses[index] */\n              dup2\n              sload\n              dup2\n              lt\n              tag_197\n              jumpi\n              tag_198\n              tag_172\n              jump\t// in\n            tag_198:\n            tag_197:\n              swap1\n              0x00\n              mstore\n              keccak256(0x00, 0x20)\n              add\n              0x00\n                /* \"Group.sol\":3633:3734  inspectorAddresses[index] = inspectorAddresses[... */\n              0x0100\n              exp\n              dup2\n              sload\n              dup2\n              0xffffffffffffffffffffffffffffffffffffffff\n              mul\n              not\n              and\n              swap1\n              dup4\n              0xffffffffffffffffffffffffffffffffffffffff\n              and\n              mul\n              or\n              swap1\n              sstore\n              pop\n                /* \"Group.sol\":3745:3763  inspectorAddresses */\n              0x0f\n                /* \"Group.sol\":3745:3769  inspectorAddresses.pop() */\n              dup1\n              sload\n              dup1\n              tag_200\n              jumpi\n              tag_201\n              tag_184\n              jump\t// in\n            tag_201:\n            tag_200:\n              0x01\n              swap1\n              sub\n              dup2\n              dup2\n              swap1\n              0x00\n              mstore\n              keccak256(0x00, 0x20)\n              add\n              exp(0x0100, 0x00)\n              dup2\n              sload\n              swap1\n              0xffffffffffffffffffffffffffffffffffffffff\n              mul\n              not\n              and\n              swap1\n              sstore\n              swap1\n              sstore\n                /* \"Group.sol\":3354:3777  function removeInspector(uint256 index) public restrictedHost {... */\n              pop\n              jump\t// out\n                /* \"Group.sol\":1370:1394  uint256 public hostMoney */\n            tag_49:\n              sload(0x12)\n              dup2\n              jump\t// out\n                /* \"Group.sol\":4578:4682  function getVips() public view returns (address payable[] memory) {... */\n            tag_54:\n                /* \"Group.sol\":4618:4642  address payable[] memory */\n              0x60\n                /* \"Group.sol\":4662:4674  vipAddresses */\n              0x09\n                /* \"Group.sol\":4655:4674  return vipAddresses */\n              dup1\n              sload\n              dup1\n              0x20\n              mul\n              0x20\n              add\n              mload(0x40)\n              swap1\n              dup2\n              add\n              0x40\n              mstore\n              dup1\n              swap3\n              swap2\n              swap1\n              dup2\n              dup2\n              mstore\n              0x20\n              add\n              dup3\n              dup1\n              sload\n              dup1\n              iszero\n              tag_204\n              jumpi\n              0x20\n              mul\n              dup3\n              add\n              swap2\n              swap1\n              0x00\n              mstore\n              keccak256(0x00, 0x20)\n              swap1\n            tag_205:\n              dup2\n              0x00\n              swap1\n              sload\n              swap1\n              0x0100\n              exp\n              swap1\n              div\n              0xffffffffffffffffffffffffffffffffffffffff\n              and\n              0xffffffffffffffffffffffffffffffffffffffff\n              and\n              dup2\n              mstore\n              0x20\n              add\n              swap1\n              0x01\n              add\n              swap1\n              dup1\n              dup4\n              gt\n              tag_205\n              jumpi\n            tag_204:\n              pop\n              pop\n              pop\n              pop\n              pop\n              swap1\n              pop\n                /* \"Group.sol\":4578:4682  function getVips() public view returns (address payable[] memory) {... */\n              swap1\n              jump\t// out\n                /* \"Group.sol\":4690:4798  function getAdmins() public view returns (address payable[] memory) {... */\n            tag_59:\n                /* \"Group.sol\":4732:4756  address payable[] memory */\n              0x60\n                /* \"Group.sol\":4776:4790  adminAddresses */\n              0x0d\n                /* \"Group.sol\":4769:4790  return adminAddresses */\n              dup1\n              sload\n              dup1\n              0x20\n              mul\n              0x20\n              add\n              mload(0x40)\n              swap1\n              dup2\n              add\n              0x40\n              mstore\n              dup1\n              swap3\n              swap2\n              swap1\n              dup2\n              dup2\n              mstore\n              0x20\n              add\n              dup3\n              dup1\n              sload\n              dup1\n              iszero\n              tag_207\n              jumpi\n              0x20\n              mul\n              dup3\n              add\n              swap2\n              swap1\n              0x00\n              mstore\n              keccak256(0x00, 0x20)\n              swap1\n            tag_208:\n              dup2\n              0x00\n              swap1\n              sload\n              swap1\n              0x0100\n              exp\n              swap1\n              div\n              0xffffffffffffffffffffffffffffffffffffffff\n              and\n              0xffffffffffffffffffffffffffffffffffffffff\n              and\n              dup2\n              mstore\n              0x20\n              add\n              swap1\n              0x01\n              add\n              swap1\n              dup1\n              dup4\n              gt\n              tag_208\n              jumpi\n            tag_207:\n              pop\n              pop\n              pop\n              pop\n              pop\n              swap1\n              pop\n                /* \"Group.sol\":4690:4798  function getAdmins() public view returns (address payable[] memory) {... */\n              swap1\n              jump\t// out\n                /* \"Group.sol\":806:839  uint256[5] public splitRatioMoney */\n            tag_64:\n              0x02\n              dup2\n              0x05\n              dup2\n              lt\n              tag_209\n              jumpi\n              0x00\n              dup1\n              revert\n            tag_209:\n              add\n              0x00\n              swap2\n              pop\n              swap1\n              pop\n              sload\n              dup2\n              jump\t// out\n                /* \"Group.sol\":936:963  uint256 public vipMemberFee */\n            tag_68:\n              sload(0x08)\n              dup2\n              jump\t// out\n                /* \"Group.sol\":1288:1334  mapping(address => bool) public checkInspector */\n            tag_74:\n              mstore(0x20, 0x10)\n              dup1\n              0x00\n              mstore\n              keccak256(0x00, 0x40)\n              0x00\n              swap2\n              pop\n              sload\n              swap1\n              0x0100\n              exp\n              swap1\n              div\n              0xff\n              and\n              dup2\n              jump\t// out\n                /* \"Group.sol\":4930:6821  function giveMoney(... */\n            tag_81:\n                /* \"Group.sol\":1687:1693  system */\n              0x01\n              0x00\n              swap1\n              sload\n              swap1\n              0x0100\n              exp\n              swap1\n              div\n              0xffffffffffffffffffffffffffffffffffffffff\n              and\n                /* \"Group.sol\":1673:1693  msg.sender == system */\n              0xffffffffffffffffffffffffffffffffffffffff\n              and\n                /* \"Group.sol\":1673:1683  msg.sender */\n              caller\n                /* \"Group.sol\":1673:1693  msg.sender == system */\n              0xffffffffffffffffffffffffffffffffffffffff\n              and\n              eq\n                /* \"Group.sol\":1665:1694  require(msg.sender == system) */\n              tag_212\n              jumpi\n              0x00\n              dup1\n              revert\n            tag_212:\n                /* \"Group.sol\":5116:5119  100 */\n              0x64\n                /* \"Group.sol\":5094:5109  splitRatioMoney */\n              0x02\n                /* \"Group.sol\":5110:5111  0 */\n              0x00\n                /* \"Group.sol\":5094:5112  splitRatioMoney[0] */\n              0x05\n              dup2\n              lt\n              tag_214\n              jumpi\n              tag_215\n              tag_172\n              jump\t// in\n            tag_215:\n            tag_214:\n              add\n              sload\n                /* \"Group.sol\":5084:5091  balance */\n              sload(0x11)\n                /* \"Group.sol\":5084:5112  balance * splitRatioMoney[0] */\n              tag_217\n              swap2\n              swap1\n              tag_218\n              jump\t// in\n            tag_217:\n                /* \"Group.sol\":5083:5119  (balance * splitRatioMoney[0]) / 100 */\n              tag_219\n              swap2\n              swap1\n              tag_220\n              jump\t// in\n            tag_219:\n                /* \"Group.sol\":5071:5080  hostMoney */\n              0x12\n                /* \"Group.sol\":5071:5119  hostMoney = (balance * splitRatioMoney[0]) / 100 */\n              dup2\n              swap1\n              sstore\n              pop\n                /* \"Group.sol\":5176:5179  100 */\n              0x64\n                /* \"Group.sol\":5154:5169  splitRatioMoney */\n              0x02\n                /* \"Group.sol\":5170:5171  1 */\n              0x01\n                /* \"Group.sol\":5154:5172  splitRatioMoney[1] */\n              0x05\n              dup2\n              lt\n              tag_221\n              jumpi\n              tag_222\n              tag_172\n              jump\t// in\n            tag_222:\n            tag_221:\n              add\n              sload\n                /* \"Group.sol\":5144:5151  balance */\n              sload(0x11)\n                /* \"Group.sol\":5144:5172  balance * splitRatioMoney[1] */\n              tag_224\n              swap2\n              swap1\n              tag_218\n              jump\t// in\n            tag_224:\n                /* \"Group.sol\":5143:5179  (balance * splitRatioMoney[1]) / 100 */\n              tag_225\n              swap2\n              swap1\n              tag_220\n              jump\t// in\n            tag_225:\n                /* \"Group.sol\":5130:5140  adminMoney */\n              0x13\n                /* \"Group.sol\":5130:5179  adminMoney = (balance * splitRatioMoney[1]) / 100 */\n              dup2\n              swap1\n              sstore\n              pop\n                /* \"Group.sol\":5240:5243  100 */\n              0x64\n                /* \"Group.sol\":5218:5233  splitRatioMoney */\n              0x02\n                /* \"Group.sol\":5234:5235  2 */\n              dup1\n                /* \"Group.sol\":5218:5236  splitRatioMoney[2] */\n              0x05\n              dup2\n              lt\n              tag_226\n              jumpi\n              tag_227\n              tag_172\n              jump\t// in\n            tag_227:\n            tag_226:\n              add\n              sload\n                /* \"Group.sol\":5208:5215  balance */\n              sload(0x11)\n                /* \"Group.sol\":5208:5236  balance * splitRatioMoney[2] */\n              tag_229\n              swap2\n              swap1\n              tag_218\n              jump\t// in\n            tag_229:\n                /* \"Group.sol\":5207:5243  (balance * splitRatioMoney[2]) / 100 */\n              tag_230\n              swap2\n              swap1\n              tag_220\n              jump\t// in\n            tag_230:\n                /* \"Group.sol\":5190:5204  inspectorMoney */\n              0x14\n                /* \"Group.sol\":5190:5243  inspectorMoney = (balance * splitRatioMoney[2]) / 100 */\n              dup2\n              swap1\n              sstore\n              pop\n                /* \"Group.sol\":5298:5301  100 */\n              0x64\n                /* \"Group.sol\":5276:5291  splitRatioMoney */\n              0x02\n                /* \"Group.sol\":5292:5293  3 */\n              0x03\n                /* \"Group.sol\":5276:5294  splitRatioMoney[3] */\n              0x05\n              dup2\n              lt\n              tag_231\n              jumpi\n              tag_232\n              tag_172\n              jump\t// in\n            tag_232:\n            tag_231:\n              add\n              sload\n                /* \"Group.sol\":5266:5273  balance */\n              sload(0x11)\n                /* \"Group.sol\":5266:5294  balance * splitRatioMoney[3] */\n              tag_234\n              swap2\n              swap1\n              tag_218\n              jump\t// in\n            tag_234:\n                /* \"Group.sol\":5265:5301  (balance * splitRatioMoney[3]) / 100 */\n              tag_235\n              swap2\n              swap1\n              tag_220\n              jump\t// in\n            tag_235:\n                /* \"Group.sol\":5254:5262  vipMoney */\n              0x15\n                /* \"Group.sol\":5254:5301  vipMoney = (balance * splitRatioMoney[3]) / 100 */\n              dup2\n              swap1\n              sstore\n              pop\n                /* \"Group.sol\":5359:5362  100 */\n              0x64\n                /* \"Group.sol\":5337:5352  splitRatioMoney */\n              0x02\n                /* \"Group.sol\":5353:5354  4 */\n              0x04\n                /* \"Group.sol\":5337:5355  splitRatioMoney[4] */\n              0x05\n              dup2\n              lt\n              tag_236\n              jumpi\n              tag_237\n              tag_172\n              jump\t// in\n            tag_237:\n            tag_236:\n              add\n              sload\n                /* \"Group.sol\":5327:5334  balance */\n              sload(0x11)\n                /* \"Group.sol\":5327:5355  balance * splitRatioMoney[4] */\n              tag_239\n              swap2\n              swap1\n              tag_218\n              jump\t// in\n            tag_239:\n                /* \"Group.sol\":5326:5362  (balance * splitRatioMoney[4]) / 100 */\n              tag_240\n              swap2\n              swap1\n              tag_220\n              jump\t// in\n            tag_240:\n                /* \"Group.sol\":5312:5323  systemMoney */\n              0x16\n                /* \"Group.sol\":5312:5362  systemMoney = (balance * splitRatioMoney[4]) / 100 */\n              dup2\n              swap1\n              sstore\n              pop\n                /* \"Group.sol\":5383:5387  host */\n              0x00\n              dup1\n              sload\n              swap1\n              0x0100\n              exp\n              swap1\n              div\n              0xffffffffffffffffffffffffffffffffffffffff\n              and\n                /* \"Group.sol\":5375:5397  payable(host).transfer */\n              0xffffffffffffffffffffffffffffffffffffffff\n              and\n                /* \"Group.sol\":5375:5408  payable(host).transfer(hostMoney) */\n              0x08fc\n                /* \"Group.sol\":5398:5407  hostMoney */\n              sload(0x12)\n                /* \"Group.sol\":5375:5408  payable(host).transfer(hostMoney) */\n              swap1\n              dup2\n              iszero\n              mul\n              swap1\n              mload(0x40)\n              0x00\n              mload(0x40)\n              dup1\n              dup4\n              sub\n              dup2\n              dup6\n              dup9\n              dup9\n              call\n              swap4\n              pop\n              pop\n              pop\n              pop\n              iszero\n              dup1\n              iszero\n              tag_242\n              jumpi\n              returndatasize\n              0x00\n              dup1\n              returndatacopy\n              revert(0x00, returndatasize)\n            tag_242:\n              pop\n                /* \"Group.sol\":5427:5433  system */\n              0x01\n              0x00\n              swap1\n              sload\n              swap1\n              0x0100\n              exp\n              swap1\n              div\n              0xffffffffffffffffffffffffffffffffffffffff\n              and\n                /* \"Group.sol\":5419:5443  payable(system).transfer */\n              0xffffffffffffffffffffffffffffffffffffffff\n              and\n                /* \"Group.sol\":5419:5456  payable(system).transfer(systemMoney) */\n              0x08fc\n                /* \"Group.sol\":5444:5455  systemMoney */\n              sload(0x16)\n                /* \"Group.sol\":5419:5456  payable(system).transfer(systemMoney) */\n              swap1\n              dup2\n              iszero\n              mul\n              swap1\n              mload(0x40)\n              0x00\n              mload(0x40)\n              dup1\n              dup4\n              sub\n              dup2\n              dup6\n              dup9\n              dup9\n              call\n              swap4\n              pop\n              pop\n              pop\n              pop\n              iszero\n              dup1\n              iszero\n              tag_244\n              jumpi\n              returndatasize\n              0x00\n              dup1\n              returndatacopy\n              revert(0x00, returndatasize)\n            tag_244:\n              pop\n                /* \"Group.sol\":5513:5522  reactions */\n              dup1\n                /* \"Group.sol\":5513:5529  reactions.length */\n              mload\n                /* \"Group.sol\":5495:5502  writers */\n              dup3\n                /* \"Group.sol\":5495:5509  writers.length */\n              mload\n                /* \"Group.sol\":5495:5529  writers.length == reactions.length */\n              eq\n                /* \"Group.sol\":5487:5530  require(writers.length == reactions.length) */\n              tag_245\n              jumpi\n              0x00\n              dup1\n              revert\n            tag_245:\n                /* \"Group.sol\":5567:5579  vipAddresses */\n              0x09\n                /* \"Group.sol\":5567:5586  vipAddresses.length */\n              dup1\n              sload\n              swap1\n              pop\n                /* \"Group.sol\":5549:5556  writers */\n              dup3\n                /* \"Group.sol\":5549:5563  writers.length */\n              mload\n                /* \"Group.sol\":5549:5586  writers.length <= vipAddresses.length */\n              gt\n              iszero\n                /* \"Group.sol\":5541:5587  require(writers.length <= vipAddresses.length) */\n              tag_246\n              jumpi\n              0x00\n              dup1\n              revert\n            tag_246:\n                /* \"Group.sol\":5598:5607  uint256 i */\n              0x00\n                /* \"Group.sol\":5618:5829  for (i = 0; i < writers.length; i++) {... */\n            tag_247:\n                /* \"Group.sol\":5634:5641  writers */\n              dup3\n                /* \"Group.sol\":5634:5648  writers.length */\n              mload\n                /* \"Group.sol\":5630:5631  i */\n              dup2\n                /* \"Group.sol\":5630:5648  i < writers.length */\n              lt\n                /* \"Group.sol\":5618:5829  for (i = 0; i < writers.length; i++) {... */\n              iszero\n              tag_248\n              jumpi\n                /* \"Group.sol\":5674:5682  checkVip */\n              0x0a\n                /* \"Group.sol\":5674:5694  checkVip[writers[i]] */\n              0x00\n                /* \"Group.sol\":5683:5690  writers */\n              dup5\n                /* \"Group.sol\":5691:5692  i */\n              dup4\n                /* \"Group.sol\":5683:5693  writers[i] */\n              dup2\n              mload\n              dup2\n              lt\n              tag_250\n              jumpi\n              tag_251\n              tag_172\n              jump\t// in\n            tag_251:\n            tag_250:\n              0x20\n              mul\n              0x20\n              add\n              add\n              mload\n                /* \"Group.sol\":5674:5694  checkVip[writers[i]] */\n              0xffffffffffffffffffffffffffffffffffffffff\n              and\n              0xffffffffffffffffffffffffffffffffffffffff\n              and\n              dup2\n              mstore\n              0x20\n              add\n              swap1\n              dup2\n              mstore\n              0x20\n              add\n              0x00\n              keccak256\n              0x00\n              swap1\n              sload\n              swap1\n              0x0100\n              exp\n              swap1\n              div\n              0xff\n              and\n                /* \"Group.sol\":5670:5818  if (checkVip[writers[i]]) {... */\n              iszero\n              tag_252\n              jumpi\n                /* \"Group.sol\":5742:5751  reactions */\n              dup2\n                /* \"Group.sol\":5752:5753  i */\n              dup2\n                /* \"Group.sol\":5742:5754  reactions[i] */\n              dup2\n              mload\n              dup2\n              lt\n              tag_253\n              jumpi\n              tag_254\n              tag_172\n              jump\t// in\n            tag_254:\n            tag_253:\n              0x20\n              mul\n              0x20\n              add\n              add\n              mload\n                /* \"Group.sol\":5715:5727  numReactions */\n              0x0b\n                /* \"Group.sol\":5715:5739  numReactions[writers[i]] */\n              0x00\n                /* \"Group.sol\":5728:5735  writers */\n              dup6\n                /* \"Group.sol\":5736:5737  i */\n              dup5\n                /* \"Group.sol\":5728:5738  writers[i] */\n              dup2\n              mload\n              dup2\n              lt\n              tag_255\n              jumpi\n              tag_256\n              tag_172\n              jump\t// in\n            tag_256:\n            tag_255:\n              0x20\n              mul\n              0x20\n              add\n              add\n              mload\n                /* \"Group.sol\":5715:5739  numReactions[writers[i]] */\n              0xffffffffffffffffffffffffffffffffffffffff\n              and\n              0xffffffffffffffffffffffffffffffffffffffff\n              and\n              dup2\n              mstore\n              0x20\n              add\n              swap1\n              dup2\n              mstore\n              0x20\n              add\n              0x00\n              keccak256\n                /* \"Group.sol\":5715:5754  numReactions[writers[i]] = reactions[i] */\n              dup2\n              swap1\n              sstore\n              pop\n                /* \"Group.sol\":5790:5799  reactions */\n              dup2\n                /* \"Group.sol\":5800:5801  i */\n              dup2\n                /* \"Group.sol\":5790:5802  reactions[i] */\n              dup2\n              mload\n              dup2\n              lt\n              tag_257\n              jumpi\n              tag_258\n              tag_172\n              jump\t// in\n            tag_258:\n            tag_257:\n              0x20\n              mul\n              0x20\n              add\n              add\n              mload\n                /* \"Group.sol\":5773:5786  totalReaction */\n              0x0c\n              0x00\n                /* \"Group.sol\":5773:5802  totalReaction += reactions[i] */\n              dup3\n              dup3\n              sload\n              tag_259\n              swap2\n              swap1\n              tag_260\n              jump\t// in\n            tag_259:\n              swap3\n              pop\n              pop\n              dup2\n              swap1\n              sstore\n              pop\n                /* \"Group.sol\":5670:5818  if (checkVip[writers[i]]) {... */\n            tag_252:\n                /* \"Group.sol\":5650:5653  i++ */\n              dup1\n              dup1\n              tag_261\n              swap1\n              tag_262\n              jump\t// in\n            tag_261:\n              swap2\n              pop\n              pop\n                /* \"Group.sol\":5618:5829  for (i = 0; i < writers.length; i++) {... */\n              jump(tag_247)\n            tag_248:\n                /* \"Group.sol\":5843:5844  0 */\n              0x00\n                /* \"Group.sol\":5839:5844  i = 0 */\n              swap1\n              pop\n                /* \"Group.sol\":5864:5865  0 */\n              0x00\n                /* \"Group.sol\":5860:5865  i = 0 */\n              swap1\n              pop\n                /* \"Group.sol\":5855:6102  for (i = 0; i < writers.length; i++) {... */\n            tag_263:\n                /* \"Group.sol\":5871:5878  writers */\n              dup3\n                /* \"Group.sol\":5871:5885  writers.length */\n              mload\n                /* \"Group.sol\":5867:5868  i */\n              dup2\n                /* \"Group.sol\":5867:5885  i < writers.length */\n              lt\n                /* \"Group.sol\":5855:6102  for (i = 0; i < writers.length; i++) {... */\n              iszero\n              tag_264\n              jumpi\n                /* \"Group.sol\":5911:5919  checkVip */\n              0x0a\n                /* \"Group.sol\":5911:5931  checkVip[writers[i]] */\n              0x00\n                /* \"Group.sol\":5920:5927  writers */\n              dup5\n                /* \"Group.sol\":5928:5929  i */\n              dup4\n                /* \"Group.sol\":5920:5930  writers[i] */\n              dup2\n              mload\n              dup2\n              lt\n              tag_266\n              jumpi\n              tag_267\n              tag_172\n              jump\t// in\n            tag_267:\n            tag_266:\n              0x20\n              mul\n              0x20\n              add\n              add\n              mload\n                /* \"Group.sol\":5911:5931  checkVip[writers[i]] */\n              0xffffffffffffffffffffffffffffffffffffffff\n              and\n              0xffffffffffffffffffffffffffffffffffffffff\n              and\n              dup2\n              mstore\n              0x20\n              add\n              swap1\n              dup2\n              mstore\n              0x20\n              add\n              0x00\n              keccak256\n              0x00\n              swap1\n              sload\n              swap1\n              0x0100\n              exp\n              swap1\n              div\n              0xff\n              and\n                /* \"Group.sol\":5907:6091  if (checkVip[writers[i]]) {... */\n              iszero\n              tag_268\n              jumpi\n                /* \"Group.sol\":5960:5967  writers */\n              dup3\n                /* \"Group.sol\":5968:5969  i */\n              dup2\n                /* \"Group.sol\":5960:5970  writers[i] */\n              dup2\n              mload\n              dup2\n              lt\n              tag_269\n              jumpi\n              tag_270\n              tag_172\n              jump\t// in\n            tag_270:\n            tag_269:\n              0x20\n              mul\n              0x20\n              add\n              add\n              mload\n                /* \"Group.sol\":5952:5980  payable(writers[i]).transfer */\n              0xffffffffffffffffffffffffffffffffffffffff\n              and\n                /* \"Group.sol\":5952:6075  payable(writers[i]).transfer(... */\n              0x08fc\n                /* \"Group.sol\":6043:6056  totalReaction */\n              sload(0x0c)\n                /* \"Group.sol\":6015:6027  numReactions */\n              0x0b\n                /* \"Group.sol\":6015:6039  numReactions[writers[i]] */\n              0x00\n                /* \"Group.sol\":6028:6035  writers */\n              dup8\n                /* \"Group.sol\":6036:6037  i */\n              dup7\n                /* \"Group.sol\":6028:6038  writers[i] */\n              dup2\n              mload\n              dup2\n              lt\n              tag_271\n              jumpi\n              tag_272\n              tag_172\n              jump\t// in\n            tag_272:\n            tag_271:\n              0x20\n              mul\n              0x20\n              add\n              add\n              mload\n                /* \"Group.sol\":6015:6039  numReactions[writers[i]] */\n              0xffffffffffffffffffffffffffffffffffffffff\n              and\n              0xffffffffffffffffffffffffffffffffffffffff\n              and\n              dup2\n              mstore\n              0x20\n              add\n              swap1\n              dup2\n              mstore\n              0x20\n              add\n              0x00\n              keccak256\n              sload\n                /* \"Group.sol\":6004:6012  vipMoney */\n              sload(0x15)\n                /* \"Group.sol\":6004:6039  vipMoney * numReactions[writers[i]] */\n              tag_273\n              swap2\n              swap1\n              tag_218\n              jump\t// in\n            tag_273:\n                /* \"Group.sol\":6003:6056  (vipMoney * numReactions[writers[i]]) / totalReaction */\n              tag_274\n              swap2\n              swap1\n              tag_220\n              jump\t// in\n            tag_274:\n                /* \"Group.sol\":5952:6075  payable(writers[i]).transfer(... */\n              swap1\n              dup2\n              iszero\n              mul\n              swap1\n              mload(0x40)\n              0x00\n              mload(0x40)\n              dup1\n              dup4\n              sub\n              dup2\n              dup6\n              dup9\n              dup9\n              call\n              swap4\n              pop\n              pop\n              pop\n              pop\n              iszero\n              dup1\n              iszero\n              tag_276\n              jumpi\n              returndatasize\n              0x00\n              dup1\n              returndatacopy\n              revert(0x00, returndatasize)\n            tag_276:\n              pop\n                /* \"Group.sol\":5907:6091  if (checkVip[writers[i]]) {... */\n            tag_268:\n                /* \"Group.sol\":5887:5890  i++ */\n              dup1\n              dup1\n              tag_277\n              swap1\n              tag_262\n              jump\t// in\n            tag_277:\n              swap2\n              pop\n              pop\n                /* \"Group.sol\":5855:6102  for (i = 0; i < writers.length; i++) {... */\n              jump(tag_263)\n            tag_264:\n                /* \"Group.sol\":6138:6139  0 */\n              0x00\n                /* \"Group.sol\":6134:6139  i = 0 */\n              swap1\n              pop\n                /* \"Group.sol\":6159:6160  0 */\n              0x00\n                /* \"Group.sol\":6155:6160  i = 0 */\n              swap1\n              pop\n                /* \"Group.sol\":6150:6324  for (i = 0; i < adminAddresses.length; i++) {... */\n            tag_278:\n                /* \"Group.sol\":6166:6180  adminAddresses */\n              0x0d\n                /* \"Group.sol\":6166:6187  adminAddresses.length */\n              dup1\n              sload\n              swap1\n              pop\n                /* \"Group.sol\":6162:6163  i */\n              dup2\n                /* \"Group.sol\":6162:6187  i < adminAddresses.length */\n              lt\n                /* \"Group.sol\":6150:6324  for (i = 0; i < adminAddresses.length; i++) {... */\n              iszero\n              tag_279\n              jumpi\n                /* \"Group.sol\":6217:6231  adminAddresses */\n              0x0d\n                /* \"Group.sol\":6232:6233  i */\n              dup2\n                /* \"Group.sol\":6217:6234  adminAddresses[i] */\n              dup2\n              sload\n              dup2\n              lt\n              tag_281\n              jumpi\n              tag_282\n              tag_172\n              jump\t// in\n            tag_282:\n            tag_281:\n              swap1\n              0x00\n              mstore\n              keccak256(0x00, 0x20)\n              add\n              0x00\n              swap1\n              sload\n              swap1\n              0x0100\n              exp\n              swap1\n              div\n              0xffffffffffffffffffffffffffffffffffffffff\n              and\n                /* \"Group.sol\":6209:6244  payable(adminAddresses[i]).transfer */\n              0xffffffffffffffffffffffffffffffffffffffff\n              and\n                /* \"Group.sol\":6209:6312  payable(adminAddresses[i]).transfer(... */\n              0x08fc\n                /* \"Group.sol\":6276:6290  adminAddresses */\n              0x0d\n                /* \"Group.sol\":6276:6297  adminAddresses.length */\n              dup1\n              sload\n              swap1\n              pop\n                /* \"Group.sol\":6263:6273  adminMoney */\n              sload(0x13)\n                /* \"Group.sol\":6263:6297  adminMoney / adminAddresses.length */\n              tag_284\n              swap2\n              swap1\n              tag_220\n              jump\t// in\n            tag_284:\n                /* \"Group.sol\":6209:6312  payable(adminAddresses[i]).transfer(... */\n              swap1\n              dup2\n              iszero\n              mul\n              swap1\n              mload(0x40)\n              0x00\n              mload(0x40)\n              dup1\n              dup4\n              sub\n              dup2\n              dup6\n              dup9\n              dup9\n              call\n              swap4\n              pop\n              pop\n              pop\n              pop\n              iszero\n              dup1\n              iszero\n              tag_286\n              jumpi\n              returndatasize\n              0x00\n              dup1\n              returndatacopy\n              revert(0x00, returndatasize)\n            tag_286:\n              pop\n                /* \"Group.sol\":6189:6192  i++ */\n              dup1\n              dup1\n              tag_287\n              swap1\n              tag_262\n              jump\t// in\n            tag_287:\n              swap2\n              pop\n              pop\n                /* \"Group.sol\":6150:6324  for (i = 0; i < adminAddresses.length; i++) {... */\n              jump(tag_278)\n            tag_279:\n                /* \"Group.sol\":6366:6367  0 */\n              0x00\n                /* \"Group.sol\":6362:6367  i = 0 */\n              swap1\n              pop\n                /* \"Group.sol\":6387:6388  0 */\n              0x00\n                /* \"Group.sol\":6383:6388  i = 0 */\n              swap1\n              pop\n                /* \"Group.sol\":6378:6568  for (i = 0; i < inspectorAddresses.length; i++) {... */\n            tag_288:\n                /* \"Group.sol\":6394:6412  inspectorAddresses */\n              0x0f\n                /* \"Group.sol\":6394:6419  inspectorAddresses.length */\n              dup1\n              sload\n              swap1\n              pop\n                /* \"Group.sol\":6390:6391  i */\n              dup2\n                /* \"Group.sol\":6390:6419  i < inspectorAddresses.length */\n              lt\n                /* \"Group.sol\":6378:6568  for (i = 0; i < inspectorAddresses.length; i++) {... */\n              iszero\n              tag_289\n              jumpi\n                /* \"Group.sol\":6449:6467  inspectorAddresses */\n              0x0f\n                /* \"Group.sol\":6468:6469  i */\n              dup2\n                /* \"Group.sol\":6449:6470  inspectorAddresses[i] */\n              dup2\n              sload\n              dup2\n              lt\n              tag_291\n              jumpi\n              tag_292\n              tag_172\n              jump\t// in\n            tag_292:\n            tag_291:\n              swap1\n              0x00\n              mstore\n              keccak256(0x00, 0x20)\n              add\n              0x00\n              swap1\n              sload\n              swap1\n              0x0100\n              exp\n              swap1\n              div\n              0xffffffffffffffffffffffffffffffffffffffff\n              and\n                /* \"Group.sol\":6441:6480  payable(inspectorAddresses[i]).transfer */\n              0xffffffffffffffffffffffffffffffffffffffff\n              and\n                /* \"Group.sol\":6441:6556  payable(inspectorAddresses[i]).transfer(... */\n              0x08fc\n                /* \"Group.sol\":6516:6534  inspectorAddresses */\n              0x0f\n                /* \"Group.sol\":6516:6541  inspectorAddresses.length */\n              dup1\n              sload\n              swap1\n              pop\n                /* \"Group.sol\":6499:6513  inspectorMoney */\n              sload(0x14)\n                /* \"Group.sol\":6499:6541  inspectorMoney / inspectorAddresses.length */\n              tag_294\n              swap2\n              swap1\n              tag_220\n              jump\t// in\n            tag_294:\n                /* \"Group.sol\":6441:6556  payable(inspectorAddresses[i]).transfer(... */\n              swap1\n              dup2\n              iszero\n              mul\n              swap1\n              mload(0x40)\n              0x00\n              mload(0x40)\n              dup1\n              dup4\n              sub\n              dup2\n              dup6\n              dup9\n              dup9\n              call\n              swap4\n              pop\n              pop\n              pop\n              pop\n              iszero\n              dup1\n              iszero\n              tag_296\n              jumpi\n              returndatasize\n              0x00\n              dup1\n              returndatacopy\n              revert(0x00, returndatasize)\n            tag_296:\n              pop\n                /* \"Group.sol\":6421:6424  i++ */\n              dup1\n              dup1\n              tag_297\n              swap1\n              tag_262\n              jump\t// in\n            tag_297:\n              swap2\n              pop\n              pop\n                /* \"Group.sol\":6378:6568  for (i = 0; i < inspectorAddresses.length; i++) {... */\n              jump(tag_288)\n            tag_289:\n                /* \"Group.sol\":6608:6609  0 */\n              0x00\n                /* \"Group.sol\":6598:6605  balance */\n              0x11\n                /* \"Group.sol\":6598:6609  balance = 0 */\n              dup2\n              swap1\n              sstore\n              pop\n                /* \"Group.sol\":6632:6633  0 */\n              0x00\n                /* \"Group.sol\":6620:6629  hostMoney */\n              0x12\n                /* \"Group.sol\":6620:6633  hostMoney = 0 */\n              dup2\n              swap1\n              sstore\n              pop\n                /* \"Group.sol\":6657:6658  0 */\n              0x00\n                /* \"Group.sol\":6644:6654  adminMoney */\n              0x13\n                /* \"Group.sol\":6644:6658  adminMoney = 0 */\n              dup2\n              swap1\n              sstore\n              pop\n                /* \"Group.sol\":6686:6687  0 */\n              0x00\n                /* \"Group.sol\":6669:6683  inspectorMoney */\n              0x14\n                /* \"Group.sol\":6669:6687  inspectorMoney = 0 */\n              dup2\n              swap1\n              sstore\n              pop\n                /* \"Group.sol\":6709:6710  0 */\n              0x00\n                /* \"Group.sol\":6698:6706  vipMoney */\n              0x15\n                /* \"Group.sol\":6698:6710  vipMoney = 0 */\n              dup2\n              swap1\n              sstore\n              pop\n                /* \"Group.sol\":6735:6736  0 */\n              0x00\n                /* \"Group.sol\":6721:6732  systemMoney */\n              0x16\n                /* \"Group.sol\":6721:6736  systemMoney = 0 */\n              dup2\n              swap1\n              sstore\n              pop\n                /* \"Group.sol\":6765:6766  0 */\n              0x00\n                /* \"Group.sol\":6749:6762  totalReaction */\n              0x0c\n                /* \"Group.sol\":6749:6766  totalReaction = 0 */\n              dup2\n              swap1\n              sstore\n              pop\n                /* \"Group.sol\":5060:6821  {... */\n              pop\n                /* \"Group.sol\":4930:6821  function giveMoney(... */\n              pop\n              pop\n              jump\t// out\n                /* \"Group.sol\":970:1007  address payable[] public vipAddresses */\n            tag_85:\n              0x09\n              dup2\n              dup2\n              sload\n              dup2\n              lt\n              tag_298\n              jumpi\n              0x00\n              dup1\n              revert\n            tag_298:\n              swap1\n              0x00\n              mstore\n              keccak256(0x00, 0x20)\n              add\n              0x00\n              swap2\n              pop\n              sload\n              swap1\n              0x0100\n              exp\n              swap1\n              div\n              0xffffffffffffffffffffffffffffffffffffffff\n              and\n              dup2\n              jump\t// out\n                /* \"Group.sol\":899:929  uint256 public normalMemberFee */\n            tag_90:\n              sload(0x07)\n              dup2\n              jump\t// out\n                /* \"Group.sol\":1469:1492  uint256 public vipMoney */\n            tag_94:\n              sload(0x15)\n              dup2\n              jump\t// out\n                /* \"Group.sol\":2291:2536  function addAdmin(address adminAddress) public restrictedHost {... */\n            tag_99:\n                /* \"Group.sol\":1593:1597  host */\n              0x00\n              dup1\n              sload\n              swap1\n              0x0100\n              exp\n              swap1\n              div\n              0xffffffffffffffffffffffffffffffffffffffff\n              and\n                /* \"Group.sol\":1579:1597  msg.sender == host */\n              0xffffffffffffffffffffffffffffffffffffffff\n              and\n                /* \"Group.sol\":1579:1589  msg.sender */\n              caller\n                /* \"Group.sol\":1579:1597  msg.sender == host */\n              0xffffffffffffffffffffffffffffffffffffffff\n              and\n              eq\n                /* \"Group.sol\":1571:1598  require(msg.sender == host) */\n              tag_301\n              jumpi\n              0x00\n              dup1\n              revert\n            tag_301:\n                /* \"Group.sol\":2444:2458  adminAddresses */\n              0x0d\n                /* \"Group.sol\":2472:2484  adminAddress */\n              dup2\n                /* \"Group.sol\":2444:2486  adminAddresses.push(payable(adminAddress)) */\n              swap1\n              dup1\n              0x01\n              dup2\n              sload\n              add\n              dup1\n              dup3\n              sstore\n              dup1\n              swap2\n              pop\n              pop\n              0x01\n              swap1\n              sub\n              swap1\n              0x00\n              mstore\n              keccak256(0x00, 0x20)\n              add\n              0x00\n              swap1\n              swap2\n              swap1\n              swap2\n              swap1\n              swap2\n              0x0100\n              exp\n              dup2\n              sload\n              dup2\n              0xffffffffffffffffffffffffffffffffffffffff\n              mul\n              not\n              and\n              swap1\n              dup4\n              0xffffffffffffffffffffffffffffffffffffffff\n              and\n              mul\n              or\n              swap1\n              sstore\n              pop\n                /* \"Group.sol\":2524:2528  true */\n              0x01\n                /* \"Group.sol\":2497:2507  checkAdmin */\n              0x0e\n                /* \"Group.sol\":2497:2521  checkAdmin[adminAddress] */\n              0x00\n                /* \"Group.sol\":2508:2520  adminAddress */\n              dup4\n                /* \"Group.sol\":2497:2521  checkAdmin[adminAddress] */\n              0xffffffffffffffffffffffffffffffffffffffff\n              and\n              0xffffffffffffffffffffffffffffffffffffffff\n              and\n              dup2\n              mstore\n              0x20\n              add\n              swap1\n              dup2\n              mstore\n              0x20\n              add\n              0x00\n              keccak256\n              0x00\n                /* \"Group.sol\":2497:2528  checkAdmin[adminAddress] = true */\n              0x0100\n              exp\n              dup2\n              sload\n              dup2\n              0xff\n              mul\n              not\n              and\n              swap1\n              dup4\n              iszero\n              iszero\n              mul\n              or\n              swap1\n              sstore\n              pop\n                /* \"Group.sol\":2291:2536  function addAdmin(address adminAddress) public restrictedHost {... */\n              pop\n              jump\t// out\n                /* \"Group.sol\":2982:3263  function addInspector(address inspectorAddress) public restrictedHost {... */\n            tag_103:\n                /* \"Group.sol\":1593:1597  host */\n              0x00\n              dup1\n              sload\n              swap1\n              0x0100\n              exp\n              swap1\n              div\n              0xffffffffffffffffffffffffffffffffffffffff\n              and\n                /* \"Group.sol\":1579:1597  msg.sender == host */\n              0xffffffffffffffffffffffffffffffffffffffff\n              and\n                /* \"Group.sol\":1579:1589  msg.sender */\n              caller\n                /* \"Group.sol\":1579:1597  msg.sender == host */\n              0xffffffffffffffffffffffffffffffffffffffff\n              and\n              eq\n                /* \"Group.sol\":1571:1598  require(msg.sender == host) */\n              tag_305\n              jumpi\n              0x00\n              dup1\n              revert\n            tag_305:\n                /* \"Group.sol\":3155:3173  inspectorAddresses */\n              0x0f\n                /* \"Group.sol\":3187:3203  inspectorAddress */\n              dup2\n                /* \"Group.sol\":3155:3205  inspectorAddresses.push(payable(inspectorAddress)) */\n              swap1\n              dup1\n              0x01\n              dup2\n              sload\n              add\n              dup1\n              dup3\n              sstore\n              dup1\n              swap2\n              pop\n              pop\n              0x01\n              swap1\n              sub\n              swap1\n              0x00\n              mstore\n              keccak256(0x00, 0x20)\n              add\n              0x00\n              swap1\n              swap2\n              swap1\n              swap2\n              swap1\n              swap2\n              0x0100\n              exp\n              dup2\n              sload\n              dup2\n              0xffffffffffffffffffffffffffffffffffffffff\n              mul\n              not\n              and\n              swap1\n              dup4\n              0xffffffffffffffffffffffffffffffffffffffff\n              and\n              mul\n              or\n              swap1\n              sstore\n              pop\n                /* \"Group.sol\":3251:3255  true */\n              0x01\n                /* \"Group.sol\":3216:3230  checkInspector */\n              0x10\n                /* \"Group.sol\":3216:3248  checkInspector[inspectorAddress] */\n              0x00\n                /* \"Group.sol\":3231:3247  inspectorAddress */\n              dup4\n                /* \"Group.sol\":3216:3248  checkInspector[inspectorAddress] */\n              0xffffffffffffffffffffffffffffffffffffffff\n              and\n              0xffffffffffffffffffffffffffffffffffffffff\n              and\n              dup2\n              mstore\n              0x20\n              add\n              swap1\n              dup2\n              mstore\n              0x20\n              add\n              0x00\n              keccak256\n              0x00\n                /* \"Group.sol\":3216:3255  checkInspector[inspectorAddress] = true */\n              0x0100\n              exp\n              dup2\n              sload\n              dup2\n              0xff\n              mul\n              not\n              and\n              swap1\n              dup4\n              iszero\n              iszero\n              mul\n              or\n              swap1\n              sstore\n              pop\n                /* \"Group.sol\":2982:3263  function addInspector(address inspectorAddress) public restrictedHost {... */\n              pop\n              jump\t// out\n                /* \"Group.sol\":1238:1281  address payable[] public inspectorAddresses */\n            tag_107:\n              0x0f\n              dup2\n              dup2\n              sload\n              dup2\n              lt\n              tag_308\n              jumpi\n              0x00\n              dup1\n              revert\n            tag_308:\n              swap1\n              0x00\n              mstore\n              keccak256(0x00, 0x20)\n              add\n              0x00\n              swap2\n              pop\n              sload\n              swap1\n              0x0100\n              exp\n              swap1\n              div\n              0xffffffffffffffffffffffffffffffffffffffff\n              and\n              dup2\n              jump\t// out\n                /* \"Group.sol\":4806:4922  function getInspectors() public view returns (address payable[] memory) {... */\n            tag_111:\n                /* \"Group.sol\":4852:4876  address payable[] memory */\n              0x60\n                /* \"Group.sol\":4896:4914  inspectorAddresses */\n              0x0f\n                /* \"Group.sol\":4889:4914  return inspectorAddresses */\n              dup1\n              sload\n              dup1\n              0x20\n              mul\n              0x20\n              add\n              mload(0x40)\n              swap1\n              dup2\n              add\n              0x40\n              mstore\n              dup1\n              swap3\n              swap2\n              swap1\n              dup2\n              dup2\n              mstore\n              0x20\n              add\n              dup3\n              dup1\n              sload\n              dup1\n              iszero\n              tag_311\n              jumpi\n              0x20\n              mul\n              dup3\n              add\n              swap2\n              swap1\n              0x00\n              mstore\n              keccak256(0x00, 0x20)\n              swap1\n            tag_312:\n              dup2\n              0x00\n              swap1\n              sload\n              swap1\n              0x0100\n              exp\n              swap1\n              div\n              0xffffffffffffffffffffffffffffffffffffffff\n              and\n              0xffffffffffffffffffffffffffffffffffffffff\n              and\n              dup2\n              mstore\n              0x20\n              add\n              swap1\n              0x01\n              add\n              swap1\n              dup1\n              dup4\n              gt\n              tag_312\n              jumpi\n            tag_311:\n              pop\n              pop\n              pop\n              pop\n              pop\n              swap1\n              pop\n                /* \"Group.sol\":4806:4922  function getInspectors() public view returns (address payable[] memory) {... */\n              swap1\n              jump\t// out\n                /* \"Group.sol\":1189:1231  mapping(address => bool) public checkAdmin */\n            tag_116:\n              mstore(0x20, 0x0e)\n              dup1\n              0x00\n              mstore\n              keccak256(0x00, 0x40)\n              0x00\n              swap2\n              pop\n              sload\n              swap1\n              0x0100\n              exp\n              swap1\n              div\n              0xff\n              and\n              dup2\n              jump\t// out\n                /* \"Group.sol\":770:799  address payable public system */\n            tag_120:\n              0x01\n              0x00\n              swap1\n              sload\n              swap1\n              0x0100\n              exp\n              swap1\n              div\n              0xffffffffffffffffffffffffffffffffffffffff\n              and\n              dup2\n              jump\t// out\n                /* \"Group.sol\":1108:1136  uint256 public totalReaction */\n            tag_124:\n              sload(0x0c)\n              dup2\n              jump\t// out\n                /* \"Group.sol\":2619:2974  function removeAdmin(uint256 index) public restrictedHost {... */\n            tag_129:\n                /* \"Group.sol\":1593:1597  host */\n              0x00\n              dup1\n              sload\n              swap1\n              0x0100\n              exp\n              swap1\n              div\n              0xffffffffffffffffffffffffffffffffffffffff\n              and\n                /* \"Group.sol\":1579:1597  msg.sender == host */\n              0xffffffffffffffffffffffffffffffffffffffff\n              and\n                /* \"Group.sol\":1579:1589  msg.sender */\n              caller\n                /* \"Group.sol\":1579:1597  msg.sender == host */\n              0xffffffffffffffffffffffffffffffffffffffff\n              and\n              eq\n                /* \"Group.sol\":1571:1598  require(msg.sender == host) */\n              tag_314\n              jumpi\n              0x00\n              dup1\n              revert\n            tag_314:\n                /* \"Group.sol\":2785:2799  adminAddresses */\n              0x0d\n                /* \"Group.sol\":2785:2806  adminAddresses.length */\n              dup1\n              sload\n              swap1\n              pop\n                /* \"Group.sol\":2777:2782  index */\n              dup2\n                /* \"Group.sol\":2777:2806  index < adminAddresses.length */\n              lt\n                /* \"Group.sol\":2769:2807  require(index < adminAddresses.length) */\n              tag_316\n              jumpi\n              0x00\n              dup1\n              revert\n            tag_316:\n                /* \"Group.sol\":2854:2859  false */\n              0x00\n                /* \"Group.sol\":2818:2828  checkAdmin */\n              0x0e\n                /* \"Group.sol\":2818:2851  checkAdmin[adminAddresses[index]] */\n              0x00\n                /* \"Group.sol\":2829:2843  adminAddresses */\n              0x0d\n                /* \"Group.sol\":2844:2849  index */\n              dup5\n                /* \"Group.sol\":2829:2850  adminAddresses[index] */\n              dup2\n              sload\n              dup2\n              lt\n              tag_317\n              jumpi\n              tag_318\n              tag_172\n              jump\t// in\n            tag_318:\n            tag_317:\n              swap1\n              0x00\n              mstore\n              keccak256(0x00, 0x20)\n              add\n              0x00\n              swap1\n              sload\n              swap1\n              0x0100\n              exp\n              swap1\n              div\n              0xffffffffffffffffffffffffffffffffffffffff\n              and\n                /* \"Group.sol\":2818:2851  checkAdmin[adminAddresses[index]] */\n              0xffffffffffffffffffffffffffffffffffffffff\n              and\n              0xffffffffffffffffffffffffffffffffffffffff\n              and\n              dup2\n              mstore\n              0x20\n              add\n              swap1\n              dup2\n              mstore\n              0x20\n              add\n              0x00\n              keccak256\n              0x00\n                /* \"Group.sol\":2818:2859  checkAdmin[adminAddresses[index]] = false */\n              0x0100\n              exp\n              dup2\n              sload\n              dup2\n              0xff\n              mul\n              not\n              and\n              swap1\n              dup4\n              iszero\n              iszero\n              mul\n              or\n              swap1\n              sstore\n              pop\n                /* \"Group.sol\":2894:2908  adminAddresses */\n              0x0d\n                /* \"Group.sol\":2933:2934  1 */\n              0x01\n                /* \"Group.sol\":2909:2923  adminAddresses */\n              0x0d\n                /* \"Group.sol\":2909:2930  adminAddresses.length */\n              dup1\n              sload\n              swap1\n              pop\n                /* \"Group.sol\":2909:2934  adminAddresses.length - 1 */\n              tag_320\n              swap2\n              swap1\n              tag_175\n              jump\t// in\n            tag_320:\n                /* \"Group.sol\":2894:2935  adminAddresses[adminAddresses.length - 1] */\n              dup2\n              sload\n              dup2\n              lt\n              tag_321\n              jumpi\n              tag_322\n              tag_172\n              jump\t// in\n            tag_322:\n            tag_321:\n              swap1\n              0x00\n              mstore\n              keccak256(0x00, 0x20)\n              add\n              0x00\n              swap1\n              sload\n              swap1\n              0x0100\n              exp\n              swap1\n              div\n              0xffffffffffffffffffffffffffffffffffffffff\n              and\n                /* \"Group.sol\":2870:2884  adminAddresses */\n              0x0d\n                /* \"Group.sol\":2885:2890  index */\n              dup3\n                /* \"Group.sol\":2870:2891  adminAddresses[index] */\n              dup2\n              sload\n              dup2\n              lt\n              tag_324\n              jumpi\n              tag_325\n              tag_172\n              jump\t// in\n            tag_325:\n            tag_324:\n              swap1\n              0x00\n              mstore\n              keccak256(0x00, 0x20)\n              add\n              0x00\n                /* \"Group.sol\":2870:2935  adminAddresses[index] = adminAddresses[adminAddresses.length - 1] */\n              0x0100\n              exp\n              dup2\n              sload\n              dup2\n              0xffffffffffffffffffffffffffffffffffffffff\n              mul\n              not\n              and\n              swap1\n              dup4\n              0xffffffffffffffffffffffffffffffffffffffff\n              and\n              mul\n              or\n              swap1\n              sstore\n              pop\n                /* \"Group.sol\":2946:2960  adminAddresses */\n              0x0d\n                /* \"Group.sol\":2946:2966  adminAddresses.pop() */\n              dup1\n              sload\n              dup1\n              tag_327\n              jumpi\n              tag_328\n              tag_184\n              jump\t// in\n            tag_328:\n            tag_327:\n              0x01\n              swap1\n              sub\n              dup2\n              dup2\n              swap1\n              0x00\n              mstore\n              keccak256(0x00, 0x20)\n              add\n              exp(0x0100, 0x00)\n              dup2\n              sload\n              swap1\n              0xffffffffffffffffffffffffffffffffffffffff\n              mul\n              not\n              and\n              swap1\n              sstore\n              swap1\n              sstore\n                /* \"Group.sol\":2619:2974  function removeAdmin(uint256 index) public restrictedHost {... */\n              pop\n              jump\t// out\n                /* \"Group.sol\":1401:1426  uint256 public adminMoney */\n            tag_132:\n              sload(0x13)\n              dup2\n              jump\t// out\n                /* \"Group.sol\":1433:1462  uint256 public inspectorMoney */\n            tag_136:\n              sload(0x14)\n              dup2\n              jump\t// out\n                /* \"Group.sol\":1341:1363  uint256 public balance */\n            tag_140:\n              sload(0x11)\n              dup2\n              jump\t// out\n                /* \"Group.sol\":1143:1182  address payable[] public adminAddresses */\n            tag_145:\n              0x0d\n              dup2\n              dup2\n              sload\n              dup2\n              lt\n              tag_330\n              jumpi\n              0x00\n              dup1\n              revert\n            tag_330:\n              swap1\n              0x00\n              mstore\n              keccak256(0x00, 0x20)\n              add\n              0x00\n              swap2\n              pop\n              sload\n              swap1\n              0x0100\n              exp\n              swap1\n              div\n              0xffffffffffffffffffffffffffffffffffffffff\n              and\n              dup2\n              jump\t// out\n                /* \"Group.sol\":1499:1525  uint256 public systemMoney */\n            tag_149:\n              sload(0x16)\n              dup2\n              jump\t// out\n                /* \"Group.sol\":3785:3915  function joinNormalMember() public payable {... */\n            tag_152:\n                /* \"Group.sol\":3860:3875  normalMemberFee */\n              sload(0x07)\n                /* \"Group.sol\":3847:3856  msg.value */\n              callvalue\n                /* \"Group.sol\":3847:3875  msg.value >= normalMemberFee */\n              lt\n              iszero\n                /* \"Group.sol\":3839:3876  require(msg.value >= normalMemberFee) */\n              tag_333\n              jumpi\n              0x00\n              dup1\n              revert\n            tag_333:\n                /* \"Group.sol\":3898:3907  msg.value */\n              callvalue\n                /* \"Group.sol\":3887:3894  balance */\n              0x11\n              0x00\n                /* \"Group.sol\":3887:3907  balance += msg.value */\n              dup3\n              dup3\n              sload\n              tag_334\n              swap2\n              swap1\n              tag_260\n              jump\t// in\n            tag_334:\n              swap3\n              pop\n              pop\n              dup2\n              swap1\n              sstore\n              pop\n                /* \"Group.sol\":3785:3915  function joinNormalMember() public payable {... */\n              jump\t// out\n                /* \"Group.sol\":1014:1054  mapping(address => bool) public checkVip */\n            tag_156:\n              mstore(0x20, 0x0a)\n              dup1\n              0x00\n              mstore\n              keccak256(0x00, 0x40)\n              0x00\n              swap2\n              pop\n              sload\n              swap1\n              0x0100\n              exp\n              swap1\n              div\n              0xff\n              and\n              dup2\n              jump\t// out\n                /* \"Group.sol\":3923:4134  function joinVipMember() public payable {... */\n            tag_159:\n                /* \"Group.sol\":3995:4007  vipMemberFee */\n              sload(0x08)\n                /* \"Group.sol\":3982:3991  msg.value */\n              callvalue\n                /* \"Group.sol\":3982:4007  msg.value >= vipMemberFee */\n              lt\n              iszero\n                /* \"Group.sol\":3974:4008  require(msg.value >= vipMemberFee) */\n              tag_336\n              jumpi\n              0x00\n              dup1\n              revert\n            tag_336:\n                /* \"Group.sol\":4042:4046  true */\n              0x01\n                /* \"Group.sol\":4019:4027  checkVip */\n              0x0a\n                /* \"Group.sol\":4019:4039  checkVip[msg.sender] */\n              0x00\n                /* \"Group.sol\":4028:4038  msg.sender */\n              caller\n                /* \"Group.sol\":4019:4039  checkVip[msg.sender] */\n              0xffffffffffffffffffffffffffffffffffffffff\n              and\n              0xffffffffffffffffffffffffffffffffffffffff\n              and\n              dup2\n              mstore\n              0x20\n              add\n              swap1\n              dup2\n              mstore\n              0x20\n              add\n              0x00\n              keccak256\n              0x00\n                /* \"Group.sol\":4019:4046  checkVip[msg.sender] = true */\n              0x0100\n              exp\n              dup2\n              sload\n              dup2\n              0xff\n              mul\n              not\n              and\n              swap1\n              dup4\n              iszero\n              iszero\n              mul\n              or\n              swap1\n              sstore\n              pop\n                /* \"Group.sol\":4057:4069  vipAddresses */\n              0x09\n                /* \"Group.sol\":4083:4093  msg.sender */\n              caller\n                /* \"Group.sol\":4057:4095  vipAddresses.push(payable(msg.sender)) */\n              swap1\n              dup1\n              0x01\n              dup2\n              sload\n              add\n              dup1\n              dup3\n              sstore\n              dup1\n              swap2\n              pop\n              pop\n              0x01\n              swap1\n              sub\n              swap1\n              0x00\n              mstore\n              keccak256(0x00, 0x20)\n              add\n              0x00\n              swap1\n              swap2\n              swap1\n              swap2\n              swap1\n              swap2\n              0x0100\n              exp\n              dup2\n              sload\n              dup2\n              0xffffffffffffffffffffffffffffffffffffffff\n              mul\n              not\n              and\n              swap1\n              dup4\n              0xffffffffffffffffffffffffffffffffffffffff\n              and\n              mul\n              or\n              swap1\n              sstore\n              pop\n                /* \"Group.sol\":4117:4126  msg.value */\n              callvalue\n                /* \"Group.sol\":4106:4113  balance */\n              0x11\n              0x00\n                /* \"Group.sol\":4106:4126  balance += msg.value */\n              dup3\n              dup3\n              sload\n              tag_338\n              swap2\n              swap1\n              tag_260\n              jump\t// in\n            tag_338:\n              swap3\n              pop\n              pop\n              dup2\n              swap1\n              sstore\n              pop\n                /* \"Group.sol\":3923:4134  function joinVipMember() public payable {... */\n              jump\t// out\n                /* \"Group.sol\":4465:4570  function donate() public payable {... */\n            tag_161:\n                /* \"Group.sol\":4529:4530  0 */\n              0x00\n                /* \"Group.sol\":4517:4526  msg.value */\n              callvalue\n                /* \"Group.sol\":4517:4530  msg.value > 0 */\n              gt\n                /* \"Group.sol\":4509:4531  require(msg.value > 0) */\n              tag_340\n              jumpi\n              0x00\n              dup1\n              revert\n            tag_340:\n                /* \"Group.sol\":4553:4562  msg.value */\n              callvalue\n                /* \"Group.sol\":4542:4549  balance */\n              0x11\n              0x00\n                /* \"Group.sol\":4542:4562  balance += msg.value */\n              dup3\n              dup3\n              sload\n              tag_341\n              swap2\n              swap1\n              tag_260\n              jump\t// in\n            tag_341:\n              swap3\n              pop\n              pop\n              dup2\n              swap1\n              sstore\n              pop\n                /* \"Group.sol\":4465:4570  function donate() public payable {... */\n              jump\t// out\n                /* \"Group.sol\":736:763  address payable public host */\n            tag_164:\n              0x00\n              dup1\n              sload\n              swap1\n              0x0100\n              exp\n              swap1\n              div\n              0xffffffffffffffffffffffffffffffffffffffff\n              and\n              dup2\n              jump\t// out\n                /* \"#utility.yul\":7:82   */\n            tag_342:\n                /* \"#utility.yul\":40:46   */\n              0x00\n                /* \"#utility.yul\":73:75   */\n              0x40\n                /* \"#utility.yul\":67:76   */\n              mload\n                /* \"#utility.yul\":57:76   */\n              swap1\n              pop\n                /* \"#utility.yul\":7:82   */\n              swap1\n              jump\t// out\n                /* \"#utility.yul\":88:205   */\n            tag_343:\n                /* \"#utility.yul\":197:198   */\n              0x00\n                /* \"#utility.yul\":194:195   */\n              dup1\n                /* \"#utility.yul\":187:199   */\n              revert\n                /* \"#utility.yul\":211:328   */\n            tag_344:\n                /* \"#utility.yul\":320:321   */\n              0x00\n                /* \"#utility.yul\":317:318   */\n              dup1\n                /* \"#utility.yul\":310:322   */\n              revert\n                /* \"#utility.yul\":334:411   */\n            tag_345:\n                /* \"#utility.yul\":371:378   */\n              0x00\n                /* \"#utility.yul\":400:405   */\n              dup2\n                /* \"#utility.yul\":389:405   */\n              swap1\n              pop\n                /* \"#utility.yul\":334:411   */\n              swap2\n              swap1\n              pop\n              jump\t// out\n                /* \"#utility.yul\":417:539   */\n            tag_346:\n                /* \"#utility.yul\":490:514   */\n              tag_384\n                /* \"#utility.yul\":508:513   */\n              dup2\n                /* \"#utility.yul\":490:514   */\n              tag_345\n              jump\t// in\n            tag_384:\n                /* \"#utility.yul\":483:488   */\n              dup2\n                /* \"#utility.yul\":480:515   */\n              eq\n                /* \"#utility.yul\":470:533   */\n              tag_385\n              jumpi\n                /* \"#utility.yul\":529:530   */\n              0x00\n                /* \"#utility.yul\":526:527   */\n              dup1\n                /* \"#utility.yul\":519:531   */\n              revert\n                /* \"#utility.yul\":470:533   */\n            tag_385:\n                /* \"#utility.yul\":417:539   */\n              pop\n              jump\t// out\n                /* \"#utility.yul\":545:684   */\n            tag_347:\n                /* \"#utility.yul\":591:596   */\n              0x00\n                /* \"#utility.yul\":629:635   */\n              dup2\n                /* \"#utility.yul\":616:636   */\n              calldataload\n                /* \"#utility.yul\":607:636   */\n              swap1\n              pop\n                /* \"#utility.yul\":645:678   */\n              tag_387\n                /* \"#utility.yul\":672:677   */\n              dup2\n                /* \"#utility.yul\":645:678   */\n              tag_346\n              jump\t// in\n            tag_387:\n                /* \"#utility.yul\":545:684   */\n              swap3\n              swap2\n              pop\n              pop\n              jump\t// out\n                /* \"#utility.yul\":690:1019   */\n            tag_41:\n                /* \"#utility.yul\":749:755   */\n              0x00\n                /* \"#utility.yul\":798:800   */\n              0x20\n                /* \"#utility.yul\":786:795   */\n              dup3\n                /* \"#utility.yul\":777:784   */\n              dup5\n                /* \"#utility.yul\":773:796   */\n              sub\n                /* \"#utility.yul\":769:801   */\n              slt\n                /* \"#utility.yul\":766:885   */\n              iszero\n              tag_389\n              jumpi\n                /* \"#utility.yul\":804:883   */\n              tag_390\n              tag_343\n              jump\t// in\n            tag_390:\n                /* \"#utility.yul\":766:885   */\n            tag_389:\n                /* \"#utility.yul\":924:925   */\n              0x00\n                /* \"#utility.yul\":949:1002   */\n              tag_391\n                /* \"#utility.yul\":994:1001   */\n              dup5\n                /* \"#utility.yul\":985:991   */\n              dup3\n                /* \"#utility.yul\":974:983   */\n              dup6\n                /* \"#utility.yul\":970:992   */\n              add\n                /* \"#utility.yul\":949:1002   */\n              tag_347\n              jump\t// in\n            tag_391:\n                /* \"#utility.yul\":939:1002   */\n              swap2\n              pop\n                /* \"#utility.yul\":895:1012   */\n              pop\n                /* \"#utility.yul\":690:1019   */\n              swap3\n              swap2\n              pop\n              pop\n              jump\t// out\n                /* \"#utility.yul\":1025:1143   */\n            tag_348:\n                /* \"#utility.yul\":1112:1136   */\n              tag_393\n                /* \"#utility.yul\":1130:1135   */\n              dup2\n                /* \"#utility.yul\":1112:1136   */\n              tag_345\n              jump\t// in\n            tag_393:\n                /* \"#utility.yul\":1107:1110   */\n              dup3\n                /* \"#utility.yul\":1100:1137   */\n              mstore\n                /* \"#utility.yul\":1025:1143   */\n              pop\n              pop\n              jump\t// out\n                /* \"#utility.yul\":1149:1371   */\n            tag_51:\n                /* \"#utility.yul\":1242:1246   */\n              0x00\n                /* \"#utility.yul\":1280:1282   */\n              0x20\n                /* \"#utility.yul\":1269:1278   */\n              dup3\n                /* \"#utility.yul\":1265:1283   */\n              add\n                /* \"#utility.yul\":1257:1283   */\n              swap1\n              pop\n                /* \"#utility.yul\":1293:1364   */\n              tag_395\n                /* \"#utility.yul\":1361:1362   */\n              0x00\n                /* \"#utility.yul\":1350:1359   */\n              dup4\n                /* \"#utility.yul\":1346:1363   */\n              add\n                /* \"#utility.yul\":1337:1343   */\n              dup5\n                /* \"#utility.yul\":1293:1364   */\n              tag_348\n              jump\t// in\n            tag_395:\n                /* \"#utility.yul\":1149:1371   */\n              swap3\n              swap2\n              pop\n              pop\n              jump\t// out\n                /* \"#utility.yul\":1377:1499   */\n            tag_349:\n                /* \"#utility.yul\":1452:1458   */\n              0x00\n                /* \"#utility.yul\":1486:1491   */\n              dup2\n                /* \"#utility.yul\":1480:1492   */\n              mload\n                /* \"#utility.yul\":1470:1492   */\n              swap1\n              pop\n                /* \"#utility.yul\":1377:1499   */\n              swap2\n              swap1\n              pop\n              jump\t// out\n                /* \"#utility.yul\":1505:1697   */\n            tag_350:\n                /* \"#utility.yul\":1612:1623   */\n              0x00\n                /* \"#utility.yul\":1646:1652   */\n              dup3\n                /* \"#utility.yul\":1641:1644   */\n              dup3\n                /* \"#utility.yul\":1634:1653   */\n              mstore\n                /* \"#utility.yul\":1686:1690   */\n              0x20\n                /* \"#utility.yul\":1681:1684   */\n              dup3\n                /* \"#utility.yul\":1677:1691   */\n              add\n                /* \"#utility.yul\":1662:1691   */\n              swap1\n              pop\n                /* \"#utility.yul\":1505:1697   */\n              swap3\n              swap2\n              pop\n              pop\n              jump\t// out\n                /* \"#utility.yul\":1703:1843   */\n            tag_351:\n                /* \"#utility.yul\":1778:1782   */\n              0x00\n                /* \"#utility.yul\":1801:1804   */\n              dup2\n                /* \"#utility.yul\":1793:1804   */\n              swap1\n              pop\n                /* \"#utility.yul\":1831:1835   */\n              0x20\n                /* \"#utility.yul\":1826:1829   */\n              dup3\n                /* \"#utility.yul\":1822:1836   */\n              add\n                /* \"#utility.yul\":1814:1836   */\n              swap1\n              pop\n                /* \"#utility.yul\":1703:1843   */\n              swap2\n              swap1\n              pop\n              jump\t// out\n                /* \"#utility.yul\":1849:1975   */\n            tag_352:\n                /* \"#utility.yul\":1886:1893   */\n              0x00\n                /* \"#utility.yul\":1926:1968   */\n              0xffffffffffffffffffffffffffffffffffffffff\n                /* \"#utility.yul\":1919:1924   */\n              dup3\n                /* \"#utility.yul\":1915:1969   */\n              and\n                /* \"#utility.yul\":1904:1969   */\n              swap1\n              pop\n                /* \"#utility.yul\":1849:1975   */\n              swap2\n              swap1\n              pop\n              jump\t// out\n                /* \"#utility.yul\":1981:2085   */\n            tag_353:\n                /* \"#utility.yul\":2026:2033   */\n              0x00\n                /* \"#utility.yul\":2055:2079   */\n              tag_401\n                /* \"#utility.yul\":2073:2078   */\n              dup3\n                /* \"#utility.yul\":2055:2079   */\n              tag_352\n              jump\t// in\n            tag_401:\n                /* \"#utility.yul\":2044:2079   */\n              swap1\n              pop\n                /* \"#utility.yul\":1981:2085   */\n              swap2\n              swap1\n              pop\n              jump\t// out\n                /* \"#utility.yul\":2091:2223   */\n            tag_354:\n                /* \"#utility.yul\":2184:2216   */\n              tag_403\n                /* \"#utility.yul\":2210:2215   */\n              dup2\n                /* \"#utility.yul\":2184:2216   */\n              tag_353\n              jump\t// in\n            tag_403:\n                /* \"#utility.yul\":2179:2182   */\n              dup3\n                /* \"#utility.yul\":2172:2217   */\n              mstore\n                /* \"#utility.yul\":2091:2223   */\n              pop\n              pop\n              jump\t// out\n                /* \"#utility.yul\":2229:2440   */\n            tag_355:\n                /* \"#utility.yul\":2314:2324   */\n              0x00\n                /* \"#utility.yul\":2335:2397   */\n              tag_405\n                /* \"#utility.yul\":2393:2396   */\n              dup4\n                /* \"#utility.yul\":2385:2391   */\n              dup4\n                /* \"#utility.yul\":2335:2397   */\n              tag_354\n              jump\t// in\n            tag_405:\n                /* \"#utility.yul\":2429:2433   */\n              0x20\n                /* \"#utility.yul\":2424:2427   */\n              dup4\n                /* \"#utility.yul\":2420:2434   */\n              add\n                /* \"#utility.yul\":2406:2434   */\n              swap1\n              pop\n                /* \"#utility.yul\":2229:2440   */\n              swap3\n              swap2\n              pop\n              pop\n              jump\t// out\n                /* \"#utility.yul\":2446:2567   */\n            tag_356:\n                /* \"#utility.yul\":2524:2528   */\n              0x00\n                /* \"#utility.yul\":2556:2560   */\n              0x20\n                /* \"#utility.yul\":2551:2554   */\n              dup3\n                /* \"#utility.yul\":2547:2561   */\n              add\n                /* \"#utility.yul\":2539:2561   */\n              swap1\n              pop\n                /* \"#utility.yul\":2446:2567   */\n              swap2\n              swap1\n              pop\n              jump\t// out\n                /* \"#utility.yul\":2619:3415   */\n            tag_357:\n                /* \"#utility.yul\":2754:2757   */\n              0x00\n                /* \"#utility.yul\":2783:2845   */\n              tag_408\n                /* \"#utility.yul\":2839:2844   */\n              dup3\n                /* \"#utility.yul\":2783:2845   */\n              tag_349\n              jump\t// in\n            tag_408:\n                /* \"#utility.yul\":2861:2955   */\n              tag_409\n                /* \"#utility.yul\":2948:2954   */\n              dup2\n                /* \"#utility.yul\":2943:2946   */\n              dup6\n                /* \"#utility.yul\":2861:2955   */\n              tag_350\n              jump\t// in\n            tag_409:\n                /* \"#utility.yul\":2854:2955   */\n              swap4\n              pop\n                /* \"#utility.yul\":2979:3043   */\n              tag_410\n                /* \"#utility.yul\":3037:3042   */\n              dup4\n                /* \"#utility.yul\":2979:3043   */\n              tag_351\n              jump\t// in\n            tag_410:\n                /* \"#utility.yul\":3066:3073   */\n              dup1\n                /* \"#utility.yul\":3097:3098   */\n              0x00\n                /* \"#utility.yul\":3082:3390   */\n            tag_411:\n                /* \"#utility.yul\":3107:3113   */\n              dup4\n                /* \"#utility.yul\":3104:3105   */\n              dup2\n                /* \"#utility.yul\":3101:3114   */\n              lt\n                /* \"#utility.yul\":3082:3390   */\n              iszero\n              tag_413\n              jumpi\n                /* \"#utility.yul\":3183:3189   */\n              dup2\n                /* \"#utility.yul\":3177:3190   */\n              mload\n                /* \"#utility.yul\":3210:3289   */\n              tag_414\n                /* \"#utility.yul\":3285:3288   */\n              dup9\n                /* \"#utility.yul\":3270:3283   */\n              dup3\n                /* \"#utility.yul\":3210:3289   */\n              tag_355\n              jump\t// in\n            tag_414:\n                /* \"#utility.yul\":3203:3289   */\n              swap8\n              pop\n                /* \"#utility.yul\":3312:3380   */\n              tag_415\n                /* \"#utility.yul\":3373:3379   */\n              dup4\n                /* \"#utility.yul\":3312:3380   */\n              tag_356\n              jump\t// in\n            tag_415:\n                /* \"#utility.yul\":3302:3380   */\n              swap3\n              pop\n                /* \"#utility.yul\":3142:3390   */\n              pop\n                /* \"#utility.yul\":3129:3130   */\n              0x01\n                /* \"#utility.yul\":3126:3127   */\n              dup2\n                /* \"#utility.yul\":3122:3131   */\n              add\n                /* \"#utility.yul\":3117:3131   */\n              swap1\n              pop\n                /* \"#utility.yul\":3082:3390   */\n              jump(tag_411)\n            tag_413:\n                /* \"#utility.yul\":3086:3100   */\n              pop\n                /* \"#utility.yul\":3406:3409   */\n              dup6\n                /* \"#utility.yul\":3399:3409   */\n              swap4\n              pop\n                /* \"#utility.yul\":2759:3415   */\n              pop\n              pop\n              pop\n                /* \"#utility.yul\":2619:3415   */\n              swap3\n              swap2\n              pop\n              pop\n              jump\t// out\n                /* \"#utility.yul\":3421:3826   */\n            tag_56:\n                /* \"#utility.yul\":3580:3584   */\n              0x00\n                /* \"#utility.yul\":3618:3620   */\n              0x20\n                /* \"#utility.yul\":3607:3616   */\n              dup3\n                /* \"#utility.yul\":3603:3621   */\n              add\n                /* \"#utility.yul\":3595:3621   */\n              swap1\n              pop\n                /* \"#utility.yul\":3667:3676   */\n              dup2\n                /* \"#utility.yul\":3661:3665   */\n              dup2\n                /* \"#utility.yul\":3657:3677   */\n              sub\n                /* \"#utility.yul\":3653:3654   */\n              0x00\n                /* \"#utility.yul\":3642:3651   */\n              dup4\n                /* \"#utility.yul\":3638:3655   */\n              add\n                /* \"#utility.yul\":3631:3678   */\n              mstore\n                /* \"#utility.yul\":3695:3819   */\n              tag_417\n                /* \"#utility.yul\":3814:3818   */\n              dup2\n                /* \"#utility.yul\":3805:3811   */\n              dup5\n                /* \"#utility.yul\":3695:3819   */\n              tag_357\n              jump\t// in\n            tag_417:\n                /* \"#utility.yul\":3687:3819   */\n              swap1\n              pop\n                /* \"#utility.yul\":3421:3826   */\n              swap3\n              swap2\n              pop\n              pop\n              jump\t// out\n                /* \"#utility.yul\":3832:3928   */\n            tag_358:\n                /* \"#utility.yul\":3869:3876   */\n              0x00\n                /* \"#utility.yul\":3898:3922   */\n              tag_419\n                /* \"#utility.yul\":3916:3921   */\n              dup3\n                /* \"#utility.yul\":3898:3922   */\n              tag_352\n              jump\t// in\n            tag_419:\n                /* \"#utility.yul\":3887:3922   */\n              swap1\n              pop\n                /* \"#utility.yul\":3832:3928   */\n              swap2\n              swap1\n              pop\n              jump\t// out\n                /* \"#utility.yul\":3934:4056   */\n            tag_359:\n                /* \"#utility.yul\":4007:4031   */\n              tag_421\n                /* \"#utility.yul\":4025:4030   */\n              dup2\n                /* \"#utility.yul\":4007:4031   */\n              tag_358\n              jump\t// in\n            tag_421:\n                /* \"#utility.yul\":4000:4005   */\n              dup2\n                /* \"#utility.yul\":3997:4032   */\n              eq\n                /* \"#utility.yul\":3987:4050   */\n              tag_422\n              jumpi\n                /* \"#utility.yul\":4046:4047   */\n              0x00\n                /* \"#utility.yul\":4043:4044   */\n              dup1\n                /* \"#utility.yul\":4036:4048   */\n              revert\n                /* \"#utility.yul\":3987:4050   */\n            tag_422:\n                /* \"#utility.yul\":3934:4056   */\n              pop\n              jump\t// out\n                /* \"#utility.yul\":4062:4201   */\n            tag_360:\n                /* \"#utility.yul\":4108:4113   */\n              0x00\n                /* \"#utility.yul\":4146:4152   */\n              dup2\n                /* \"#utility.yul\":4133:4153   */\n              calldataload\n                /* \"#utility.yul\":4124:4153   */\n              swap1\n              pop\n                /* \"#utility.yul\":4162:4195   */\n              tag_424\n                /* \"#utility.yul\":4189:4194   */\n              dup2\n                /* \"#utility.yul\":4162:4195   */\n              tag_359\n              jump\t// in\n            tag_424:\n                /* \"#utility.yul\":4062:4201   */\n              swap3\n              swap2\n              pop\n              pop\n              jump\t// out\n                /* \"#utility.yul\":4207:4536   */\n            tag_73:\n                /* \"#utility.yul\":4266:4272   */\n              0x00\n                /* \"#utility.yul\":4315:4317   */\n              0x20\n                /* \"#utility.yul\":4303:4312   */\n              dup3\n                /* \"#utility.yul\":4294:4301   */\n              dup5\n                /* \"#utility.yul\":4290:4313   */\n              sub\n                /* \"#utility.yul\":4286:4318   */\n              slt\n                /* \"#utility.yul\":4283:4402   */\n              iszero\n              tag_426\n              jumpi\n                /* \"#utility.yul\":4321:4400   */\n              tag_427\n              tag_343\n              jump\t// in\n            tag_427:\n                /* \"#utility.yul\":4283:4402   */\n            tag_426:\n                /* \"#utility.yul\":4441:4442   */\n              0x00\n                /* \"#utility.yul\":4466:4519   */\n              tag_428\n                /* \"#utility.yul\":4511:4518   */\n              dup5\n                /* \"#utility.yul\":4502:4508   */\n              dup3\n                /* \"#utility.yul\":4491:4500   */\n              dup6\n                /* \"#utility.yul\":4487:4509   */\n              add\n                /* \"#utility.yul\":4466:4519   */\n              tag_360\n              jump\t// in\n            tag_428:\n                /* \"#utility.yul\":4456:4519   */\n              swap2\n              pop\n                /* \"#utility.yul\":4412:4529   */\n              pop\n                /* \"#utility.yul\":4207:4536   */\n              swap3\n              swap2\n              pop\n              pop\n              jump\t// out\n                /* \"#utility.yul\":4542:4632   */\n            tag_361:\n                /* \"#utility.yul\":4576:4583   */\n              0x00\n                /* \"#utility.yul\":4619:4624   */\n              dup2\n                /* \"#utility.yul\":4612:4625   */\n              iszero\n                /* \"#utility.yul\":4605:4626   */\n              iszero\n                /* \"#utility.yul\":4594:4626   */\n              swap1\n              pop\n                /* \"#utility.yul\":4542:4632   */\n              swap2\n              swap1\n              pop\n              jump\t// out\n                /* \"#utility.yul\":4638:4747   */\n            tag_362:\n                /* \"#utility.yul\":4719:4740   */\n              tag_431\n                /* \"#utility.yul\":4734:4739   */\n              dup2\n                /* \"#utility.yul\":4719:4740   */\n              tag_361\n              jump\t// in\n            tag_431:\n                /* \"#utility.yul\":4714:4717   */\n              dup3\n                /* \"#utility.yul\":4707:4741   */\n              mstore\n                /* \"#utility.yul\":4638:4747   */\n              pop\n              pop\n              jump\t// out\n                /* \"#utility.yul\":4753:4963   */\n            tag_76:\n                /* \"#utility.yul\":4840:4844   */\n              0x00\n                /* \"#utility.yul\":4878:4880   */\n              0x20\n                /* \"#utility.yul\":4867:4876   */\n              dup3\n                /* \"#utility.yul\":4863:4881   */\n              add\n                /* \"#utility.yul\":4855:4881   */\n              swap1\n              pop\n                /* \"#utility.yul\":4891:4956   */\n              tag_433\n                /* \"#utility.yul\":4953:4954   */\n              0x00\n                /* \"#utility.yul\":4942:4951   */\n              dup4\n                /* \"#utility.yul\":4938:4955   */\n              add\n                /* \"#utility.yul\":4929:4935   */\n              dup5\n                /* \"#utility.yul\":4891:4956   */\n              tag_362\n              jump\t// in\n            tag_433:\n                /* \"#utility.yul\":4753:4963   */\n              swap3\n              swap2\n              pop\n              pop\n              jump\t// out\n                /* \"#utility.yul\":4969:5086   */\n            tag_363:\n                /* \"#utility.yul\":5078:5079   */\n              0x00\n                /* \"#utility.yul\":5075:5076   */\n              dup1\n                /* \"#utility.yul\":5068:5080   */\n              revert\n                /* \"#utility.yul\":5092:5194   */\n            tag_364:\n                /* \"#utility.yul\":5133:5139   */\n              0x00\n                /* \"#utility.yul\":5184:5186   */\n              0x1f\n                /* \"#utility.yul\":5180:5187   */\n              not\n                /* \"#utility.yul\":5175:5177   */\n              0x1f\n                /* \"#utility.yul\":5168:5173   */\n              dup4\n                /* \"#utility.yul\":5164:5178   */\n              add\n                /* \"#utility.yul\":5160:5188   */\n              and\n                /* \"#utility.yul\":5150:5188   */\n              swap1\n              pop\n                /* \"#utility.yul\":5092:5194   */\n              swap2\n              swap1\n              pop\n              jump\t// out\n                /* \"#utility.yul\":5200:5380   */\n            tag_365:\n                /* \"#utility.yul\":5248:5325   */\n              0x4e487b7100000000000000000000000000000000000000000000000000000000\n                /* \"#utility.yul\":5245:5246   */\n              0x00\n                /* \"#utility.yul\":5238:5326   */\n              mstore\n                /* \"#utility.yul\":5345:5349   */\n              0x41\n                /* \"#utility.yul\":5342:5343   */\n              0x04\n                /* \"#utility.yul\":5335:5350   */\n              mstore\n                /* \"#utility.yul\":5369:5373   */\n              0x24\n                /* \"#utility.yul\":5366:5367   */\n              0x00\n                /* \"#utility.yul\":5359:5374   */\n              revert\n                /* \"#utility.yul\":5386:5667   */\n            tag_366:\n                /* \"#utility.yul\":5469:5496   */\n              tag_438\n                /* \"#utility.yul\":5491:5495   */\n              dup3\n                /* \"#utility.yul\":5469:5496   */\n              tag_364\n              jump\t// in\n            tag_438:\n                /* \"#utility.yul\":5461:5467   */\n              dup2\n                /* \"#utility.yul\":5457:5497   */\n              add\n                /* \"#utility.yul\":5599:5605   */\n              dup2\n                /* \"#utility.yul\":5587:5597   */\n              dup2\n                /* \"#utility.yul\":5584:5606   */\n              lt\n                /* \"#utility.yul\":5563:5581   */\n              0xffffffffffffffff\n                /* \"#utility.yul\":5551:5561   */\n              dup3\n                /* \"#utility.yul\":5548:5582   */\n              gt\n                /* \"#utility.yul\":5545:5607   */\n              or\n                /* \"#utility.yul\":5542:5630   */\n              iszero\n              tag_439\n              jumpi\n                /* \"#utility.yul\":5610:5628   */\n              tag_440\n              tag_365\n              jump\t// in\n            tag_440:\n                /* \"#utility.yul\":5542:5630   */\n            tag_439:\n                /* \"#utility.yul\":5650:5660   */\n              dup1\n                /* \"#utility.yul\":5646:5648   */\n              0x40\n                /* \"#utility.yul\":5639:5661   */\n              mstore\n                /* \"#utility.yul\":5429:5667   */\n              pop\n                /* \"#utility.yul\":5386:5667   */\n              pop\n              pop\n              jump\t// out\n                /* \"#utility.yul\":5673:5802   */\n            tag_367:\n                /* \"#utility.yul\":5707:5713   */\n              0x00\n                /* \"#utility.yul\":5734:5754   */\n              tag_442\n              tag_342\n              jump\t// in\n            tag_442:\n                /* \"#utility.yul\":5724:5754   */\n              swap1\n              pop\n                /* \"#utility.yul\":5763:5796   */\n              tag_443\n                /* \"#utility.yul\":5791:5795   */\n              dup3\n                /* \"#utility.yul\":5783:5789   */\n              dup3\n                /* \"#utility.yul\":5763:5796   */\n              tag_366\n              jump\t// in\n            tag_443:\n                /* \"#utility.yul\":5673:5802   */\n              swap2\n              swap1\n              pop\n              jump\t// out\n                /* \"#utility.yul\":5808:6119   */\n            tag_368:\n                /* \"#utility.yul\":5885:5889   */\n              0x00\n                /* \"#utility.yul\":5975:5993   */\n              0xffffffffffffffff\n                /* \"#utility.yul\":5967:5973   */\n              dup3\n                /* \"#utility.yul\":5964:5994   */\n              gt\n                /* \"#utility.yul\":5961:6017   */\n              iszero\n              tag_445\n              jumpi\n                /* \"#utility.yul\":5997:6015   */\n              tag_446\n              tag_365\n              jump\t// in\n            tag_446:\n                /* \"#utility.yul\":5961:6017   */\n            tag_445:\n                /* \"#utility.yul\":6047:6051   */\n              0x20\n                /* \"#utility.yul\":6039:6045   */\n              dup3\n                /* \"#utility.yul\":6035:6052   */\n              mul\n                /* \"#utility.yul\":6027:6052   */\n              swap1\n              pop\n                /* \"#utility.yul\":6107:6111   */\n              0x20\n                /* \"#utility.yul\":6101:6105   */\n              dup2\n                /* \"#utility.yul\":6097:6112   */\n              add\n                /* \"#utility.yul\":6089:6112   */\n              swap1\n              pop\n                /* \"#utility.yul\":5808:6119   */\n              swap2\n              swap1\n              pop\n              jump\t// out\n                /* \"#utility.yul\":6125:6242   */\n            tag_369:\n                /* \"#utility.yul\":6234:6235   */\n              0x00\n                /* \"#utility.yul\":6231:6232   */\n              dup1\n                /* \"#utility.yul\":6224:6236   */\n              revert\n                /* \"#utility.yul\":6265:6975   */\n            tag_370:\n                /* \"#utility.yul\":6361:6366   */\n              0x00\n                /* \"#utility.yul\":6386:6467   */\n              tag_449\n                /* \"#utility.yul\":6402:6466   */\n              tag_450\n                /* \"#utility.yul\":6459:6465   */\n              dup5\n                /* \"#utility.yul\":6402:6466   */\n              tag_368\n              jump\t// in\n            tag_450:\n                /* \"#utility.yul\":6386:6467   */\n              tag_367\n              jump\t// in\n            tag_449:\n                /* \"#utility.yul\":6377:6467   */\n              swap1\n              pop\n                /* \"#utility.yul\":6487:6492   */\n              dup1\n                /* \"#utility.yul\":6516:6522   */\n              dup4\n                /* \"#utility.yul\":6509:6514   */\n              dup3\n                /* \"#utility.yul\":6502:6523   */\n              mstore\n                /* \"#utility.yul\":6550:6554   */\n              0x20\n                /* \"#utility.yul\":6543:6548   */\n              dup3\n                /* \"#utility.yul\":6539:6555   */\n              add\n                /* \"#utility.yul\":6532:6555   */\n              swap1\n              pop\n                /* \"#utility.yul\":6603:6607   */\n              0x20\n                /* \"#utility.yul\":6595:6601   */\n              dup5\n                /* \"#utility.yul\":6591:6608   */\n              mul\n                /* \"#utility.yul\":6583:6589   */\n              dup4\n                /* \"#utility.yul\":6579:6609   */\n              add\n                /* \"#utility.yul\":6632:6635   */\n              dup6\n                /* \"#utility.yul\":6624:6630   */\n              dup2\n                /* \"#utility.yul\":6621:6636   */\n              gt\n                /* \"#utility.yul\":6618:6740   */\n              iszero\n              tag_451\n              jumpi\n                /* \"#utility.yul\":6651:6730   */\n              tag_452\n              tag_369\n              jump\t// in\n            tag_452:\n                /* \"#utility.yul\":6618:6740   */\n            tag_451:\n                /* \"#utility.yul\":6766:6772   */\n              dup4\n                /* \"#utility.yul\":6749:6969   */\n            tag_453:\n                /* \"#utility.yul\":6783:6789   */\n              dup2\n                /* \"#utility.yul\":6778:6781   */\n              dup2\n                /* \"#utility.yul\":6775:6790   */\n              lt\n                /* \"#utility.yul\":6749:6969   */\n              iszero\n              tag_455\n              jumpi\n                /* \"#utility.yul\":6858:6861   */\n              dup1\n                /* \"#utility.yul\":6887:6924   */\n              tag_456\n                /* \"#utility.yul\":6920:6923   */\n              dup9\n                /* \"#utility.yul\":6908:6918   */\n              dup3\n                /* \"#utility.yul\":6887:6924   */\n              tag_360\n              jump\t// in\n            tag_456:\n                /* \"#utility.yul\":6882:6885   */\n              dup5\n                /* \"#utility.yul\":6875:6925   */\n              mstore\n                /* \"#utility.yul\":6954:6958   */\n              0x20\n                /* \"#utility.yul\":6949:6952   */\n              dup5\n                /* \"#utility.yul\":6945:6959   */\n              add\n                /* \"#utility.yul\":6938:6959   */\n              swap4\n              pop\n                /* \"#utility.yul\":6825:6969   */\n              pop\n                /* \"#utility.yul\":6809:6813   */\n              0x20\n                /* \"#utility.yul\":6804:6807   */\n              dup2\n                /* \"#utility.yul\":6800:6814   */\n              add\n                /* \"#utility.yul\":6793:6814   */\n              swap1\n              pop\n                /* \"#utility.yul\":6749:6969   */\n              jump(tag_453)\n            tag_455:\n                /* \"#utility.yul\":6753:6774   */\n              pop\n                /* \"#utility.yul\":6367:6975   */\n              pop\n              pop\n                /* \"#utility.yul\":6265:6975   */\n              swap4\n              swap3\n              pop\n              pop\n              pop\n              jump\t// out\n                /* \"#utility.yul\":6998:7368   */\n            tag_371:\n                /* \"#utility.yul\":7069:7074   */\n              0x00\n                /* \"#utility.yul\":7118:7121   */\n              dup3\n                /* \"#utility.yul\":7111:7115   */\n              0x1f\n                /* \"#utility.yul\":7103:7109   */\n              dup4\n                /* \"#utility.yul\":7099:7116   */\n              add\n                /* \"#utility.yul\":7095:7122   */\n              slt\n                /* \"#utility.yul\":7085:7207   */\n              tag_458\n              jumpi\n                /* \"#utility.yul\":7126:7205   */\n              tag_459\n              tag_363\n              jump\t// in\n            tag_459:\n                /* \"#utility.yul\":7085:7207   */\n            tag_458:\n                /* \"#utility.yul\":7243:7249   */\n              dup2\n                /* \"#utility.yul\":7230:7250   */\n              calldataload\n                /* \"#utility.yul\":7268:7362   */\n              tag_460\n                /* \"#utility.yul\":7358:7361   */\n              dup5\n                /* \"#utility.yul\":7350:7356   */\n              dup3\n                /* \"#utility.yul\":7343:7347   */\n              0x20\n                /* \"#utility.yul\":7335:7341   */\n              dup7\n                /* \"#utility.yul\":7331:7348   */\n              add\n                /* \"#utility.yul\":7268:7362   */\n              tag_370\n              jump\t// in\n            tag_460:\n                /* \"#utility.yul\":7259:7362   */\n              swap2\n              pop\n                /* \"#utility.yul\":7075:7368   */\n              pop\n                /* \"#utility.yul\":6998:7368   */\n              swap3\n              swap2\n              pop\n              pop\n              jump\t// out\n                /* \"#utility.yul\":7374:7685   */\n            tag_372:\n                /* \"#utility.yul\":7451:7455   */\n              0x00\n                /* \"#utility.yul\":7541:7559   */\n              0xffffffffffffffff\n                /* \"#utility.yul\":7533:7539   */\n              dup3\n                /* \"#utility.yul\":7530:7560   */\n              gt\n                /* \"#utility.yul\":7527:7583   */\n              iszero\n              tag_462\n              jumpi\n                /* \"#utility.yul\":7563:7581   */\n              tag_463\n              tag_365\n              jump\t// in\n            tag_463:\n                /* \"#utility.yul\":7527:7583   */\n            tag_462:\n                /* \"#utility.yul\":7613:7617   */\n              0x20\n                /* \"#utility.yul\":7605:7611   */\n              dup3\n                /* \"#utility.yul\":7601:7618   */\n              mul\n                /* \"#utility.yul\":7593:7618   */\n              swap1\n              pop\n                /* \"#utility.yul\":7673:7677   */\n              0x20\n                /* \"#utility.yul\":7667:7671   */\n              dup2\n                /* \"#utility.yul\":7663:7678   */\n              add\n                /* \"#utility.yul\":7655:7678   */\n              swap1\n              pop\n                /* \"#utility.yul\":7374:7685   */\n              swap2\n              swap1\n              pop\n              jump\t// out\n                /* \"#utility.yul\":7708:8418   */\n            tag_373:\n                /* \"#utility.yul\":7804:7809   */\n              0x00\n                /* \"#utility.yul\":7829:7910   */\n              tag_465\n                /* \"#utility.yul\":7845:7909   */\n              tag_466\n                /* \"#utility.yul\":7902:7908   */\n              dup5\n                /* \"#utility.yul\":7845:7909   */\n              tag_372\n              jump\t// in\n            tag_466:\n                /* \"#utility.yul\":7829:7910   */\n              tag_367\n              jump\t// in\n            tag_465:\n                /* \"#utility.yul\":7820:7910   */\n              swap1\n              pop\n                /* \"#utility.yul\":7930:7935   */\n              dup1\n                /* \"#utility.yul\":7959:7965   */\n              dup4\n                /* \"#utility.yul\":7952:7957   */\n              dup3\n                /* \"#utility.yul\":7945:7966   */\n              mstore\n                /* \"#utility.yul\":7993:7997   */\n              0x20\n                /* \"#utility.yul\":7986:7991   */\n              dup3\n                /* \"#utility.yul\":7982:7998   */\n              add\n                /* \"#utility.yul\":7975:7998   */\n              swap1\n              pop\n                /* \"#utility.yul\":8046:8050   */\n              0x20\n                /* \"#utility.yul\":8038:8044   */\n              dup5\n                /* \"#utility.yul\":8034:8051   */\n              mul\n                /* \"#utility.yul\":8026:8032   */\n              dup4\n                /* \"#utility.yul\":8022:8052   */\n              add\n                /* \"#utility.yul\":8075:8078   */\n              dup6\n                /* \"#utility.yul\":8067:8073   */\n              dup2\n                /* \"#utility.yul\":8064:8079   */\n              gt\n                /* \"#utility.yul\":8061:8183   */\n              iszero\n              tag_467\n              jumpi\n                /* \"#utility.yul\":8094:8173   */\n              tag_468\n              tag_369\n              jump\t// in\n            tag_468:\n                /* \"#utility.yul\":8061:8183   */\n            tag_467:\n                /* \"#utility.yul\":8209:8215   */\n              dup4\n                /* \"#utility.yul\":8192:8412   */\n            tag_469:\n                /* \"#utility.yul\":8226:8232   */\n              dup2\n                /* \"#utility.yul\":8221:8224   */\n              dup2\n                /* \"#utility.yul\":8218:8233   */\n              lt\n                /* \"#utility.yul\":8192:8412   */\n              iszero\n              tag_471\n              jumpi\n                /* \"#utility.yul\":8301:8304   */\n              dup1\n                /* \"#utility.yul\":8330:8367   */\n              tag_472\n                /* \"#utility.yul\":8363:8366   */\n              dup9\n                /* \"#utility.yul\":8351:8361   */\n              dup3\n                /* \"#utility.yul\":8330:8367   */\n              tag_347\n              jump\t// in\n            tag_472:\n                /* \"#utility.yul\":8325:8328   */\n              dup5\n                /* \"#utility.yul\":8318:8368   */\n              mstore\n                /* \"#utility.yul\":8397:8401   */\n              0x20\n                /* \"#utility.yul\":8392:8395   */\n              dup5\n                /* \"#utility.yul\":8388:8402   */\n              add\n                /* \"#utility.yul\":8381:8402   */\n              swap4\n              pop\n                /* \"#utility.yul\":8268:8412   */\n              pop\n                /* \"#utility.yul\":8252:8256   */\n              0x20\n                /* \"#utility.yul\":8247:8250   */\n              dup2\n                /* \"#utility.yul\":8243:8257   */\n              add\n                /* \"#utility.yul\":8236:8257   */\n              swap1\n              pop\n                /* \"#utility.yul\":8192:8412   */\n              jump(tag_469)\n            tag_471:\n                /* \"#utility.yul\":8196:8217   */\n              pop\n                /* \"#utility.yul\":7810:8418   */\n              pop\n              pop\n                /* \"#utility.yul\":7708:8418   */\n              swap4\n              swap3\n              pop\n              pop\n              pop\n              jump\t// out\n                /* \"#utility.yul\":8441:8811   */\n            tag_374:\n                /* \"#utility.yul\":8512:8517   */\n              0x00\n                /* \"#utility.yul\":8561:8564   */\n              dup3\n                /* \"#utility.yul\":8554:8558   */\n              0x1f\n                /* \"#utility.yul\":8546:8552   */\n              dup4\n                /* \"#utility.yul\":8542:8559   */\n              add\n                /* \"#utility.yul\":8538:8565   */\n              slt\n                /* \"#utility.yul\":8528:8650   */\n              tag_474\n              jumpi\n                /* \"#utility.yul\":8569:8648   */\n              tag_475\n              tag_363\n              jump\t// in\n            tag_475:\n                /* \"#utility.yul\":8528:8650   */\n            tag_474:\n                /* \"#utility.yul\":8686:8692   */\n              dup2\n                /* \"#utility.yul\":8673:8693   */\n              calldataload\n                /* \"#utility.yul\":8711:8805   */\n              tag_476\n                /* \"#utility.yul\":8801:8804   */\n              dup5\n                /* \"#utility.yul\":8793:8799   */\n              dup3\n                /* \"#utility.yul\":8786:8790   */\n              0x20\n                /* \"#utility.yul\":8778:8784   */\n              dup7\n                /* \"#utility.yul\":8774:8791   */\n              add\n                /* \"#utility.yul\":8711:8805   */\n              tag_373\n              jump\t// in\n            tag_476:\n                /* \"#utility.yul\":8702:8805   */\n              swap2\n              pop\n                /* \"#utility.yul\":8518:8811   */\n              pop\n                /* \"#utility.yul\":8441:8811   */\n              swap3\n              swap2\n              pop\n              pop\n              jump\t// out\n                /* \"#utility.yul\":8817:9711   */\n            tag_80:\n                /* \"#utility.yul\":8935:8941   */\n              0x00\n                /* \"#utility.yul\":8943:8949   */\n              dup1\n                /* \"#utility.yul\":8992:8994   */\n              0x40\n                /* \"#utility.yul\":8980:8989   */\n              dup4\n                /* \"#utility.yul\":8971:8978   */\n              dup6\n                /* \"#utility.yul\":8967:8990   */\n              sub\n                /* \"#utility.yul\":8963:8995   */\n              slt\n                /* \"#utility.yul\":8960:9079   */\n              iszero\n              tag_478\n              jumpi\n                /* \"#utility.yul\":8998:9077   */\n              tag_479\n              tag_343\n              jump\t// in\n            tag_479:\n                /* \"#utility.yul\":8960:9079   */\n            tag_478:\n                /* \"#utility.yul\":9146:9147   */\n              0x00\n                /* \"#utility.yul\":9135:9144   */\n              dup4\n                /* \"#utility.yul\":9131:9148   */\n              add\n                /* \"#utility.yul\":9118:9149   */\n              calldataload\n                /* \"#utility.yul\":9176:9194   */\n              0xffffffffffffffff\n                /* \"#utility.yul\":9168:9174   */\n              dup2\n                /* \"#utility.yul\":9165:9195   */\n              gt\n                /* \"#utility.yul\":9162:9279   */\n              iszero\n              tag_480\n              jumpi\n                /* \"#utility.yul\":9198:9277   */\n              tag_481\n              tag_344\n              jump\t// in\n            tag_481:\n                /* \"#utility.yul\":9162:9279   */\n            tag_480:\n                /* \"#utility.yul\":9303:9381   */\n              tag_482\n                /* \"#utility.yul\":9373:9380   */\n              dup6\n                /* \"#utility.yul\":9364:9370   */\n              dup3\n                /* \"#utility.yul\":9353:9362   */\n              dup7\n                /* \"#utility.yul\":9349:9371   */\n              add\n                /* \"#utility.yul\":9303:9381   */\n              tag_371\n              jump\t// in\n            tag_482:\n                /* \"#utility.yul\":9293:9381   */\n              swap3\n              pop\n                /* \"#utility.yul\":9089:9391   */\n              pop\n                /* \"#utility.yul\":9458:9460   */\n              0x20\n                /* \"#utility.yul\":9447:9456   */\n              dup4\n                /* \"#utility.yul\":9443:9461   */\n              add\n                /* \"#utility.yul\":9430:9462   */\n              calldataload\n                /* \"#utility.yul\":9489:9507   */\n              0xffffffffffffffff\n                /* \"#utility.yul\":9481:9487   */\n              dup2\n                /* \"#utility.yul\":9478:9508   */\n              gt\n                /* \"#utility.yul\":9475:9592   */\n              iszero\n              tag_483\n              jumpi\n                /* \"#utility.yul\":9511:9590   */\n              tag_484\n              tag_344\n              jump\t// in\n            tag_484:\n                /* \"#utility.yul\":9475:9592   */\n            tag_483:\n                /* \"#utility.yul\":9616:9694   */\n              tag_485\n                /* \"#utility.yul\":9686:9693   */\n              dup6\n                /* \"#utility.yul\":9677:9683   */\n              dup3\n                /* \"#utility.yul\":9666:9675   */\n              dup7\n                /* \"#utility.yul\":9662:9684   */\n              add\n                /* \"#utility.yul\":9616:9694   */\n              tag_374\n              jump\t// in\n            tag_485:\n                /* \"#utility.yul\":9606:9694   */\n              swap2\n              pop\n                /* \"#utility.yul\":9401:9704   */\n              pop\n                /* \"#utility.yul\":8817:9711   */\n              swap3\n              pop\n              swap3\n              swap1\n              pop\n              jump\t// out\n                /* \"#utility.yul\":9717:9859   */\n            tag_375:\n                /* \"#utility.yul\":9820:9852   */\n              tag_487\n                /* \"#utility.yul\":9846:9851   */\n              dup2\n                /* \"#utility.yul\":9820:9852   */\n              tag_353\n              jump\t// in\n            tag_487:\n                /* \"#utility.yul\":9815:9818   */\n              dup3\n                /* \"#utility.yul\":9808:9853   */\n              mstore\n                /* \"#utility.yul\":9717:9859   */\n              pop\n              pop\n              jump\t// out\n                /* \"#utility.yul\":9865:10119   */\n            tag_87:\n                /* \"#utility.yul\":9974:9978   */\n              0x00\n                /* \"#utility.yul\":10012:10014   */\n              0x20\n                /* \"#utility.yul\":10001:10010   */\n              dup3\n                /* \"#utility.yul\":9997:10015   */\n              add\n                /* \"#utility.yul\":9989:10015   */\n              swap1\n              pop\n                /* \"#utility.yul\":10025:10112   */\n              tag_489\n                /* \"#utility.yul\":10109:10110   */\n              0x00\n                /* \"#utility.yul\":10098:10107   */\n              dup4\n                /* \"#utility.yul\":10094:10111   */\n              add\n                /* \"#utility.yul\":10085:10091   */\n              dup5\n                /* \"#utility.yul\":10025:10112   */\n              tag_375\n              jump\t// in\n            tag_489:\n                /* \"#utility.yul\":9865:10119   */\n              swap3\n              swap2\n              pop\n              pop\n              jump\t// out\n                /* \"#utility.yul\":10125:10305   */\n            tag_172:\n                /* \"#utility.yul\":10173:10250   */\n              0x4e487b7100000000000000000000000000000000000000000000000000000000\n                /* \"#utility.yul\":10170:10171   */\n              0x00\n                /* \"#utility.yul\":10163:10251   */\n              mstore\n                /* \"#utility.yul\":10270:10274   */\n              0x32\n                /* \"#utility.yul\":10267:10268   */\n              0x04\n                /* \"#utility.yul\":10260:10275   */\n              mstore\n                /* \"#utility.yul\":10294:10298   */\n              0x24\n                /* \"#utility.yul\":10291:10292   */\n              0x00\n                /* \"#utility.yul\":10284:10299   */\n              revert\n                /* \"#utility.yul\":10311:10491   */\n            tag_376:\n                /* \"#utility.yul\":10359:10436   */\n              0x4e487b7100000000000000000000000000000000000000000000000000000000\n                /* \"#utility.yul\":10356:10357   */\n              0x00\n                /* \"#utility.yul\":10349:10437   */\n              mstore\n                /* \"#utility.yul\":10456:10460   */\n              0x11\n                /* \"#utility.yul\":10453:10454   */\n              0x04\n                /* \"#utility.yul\":10446:10461   */\n              mstore\n                /* \"#utility.yul\":10480:10484   */\n              0x24\n                /* \"#utility.yul\":10477:10478   */\n              0x00\n                /* \"#utility.yul\":10470:10485   */\n              revert\n                /* \"#utility.yul\":10497:10688   */\n            tag_175:\n                /* \"#utility.yul\":10537:10541   */\n              0x00\n                /* \"#utility.yul\":10557:10577   */\n              tag_493\n                /* \"#utility.yul\":10575:10576   */\n              dup3\n                /* \"#utility.yul\":10557:10577   */\n              tag_345\n              jump\t// in\n            tag_493:\n                /* \"#utility.yul\":10552:10577   */\n              swap2\n              pop\n                /* \"#utility.yul\":10591:10611   */\n              tag_494\n                /* \"#utility.yul\":10609:10610   */\n              dup4\n                /* \"#utility.yul\":10591:10611   */\n              tag_345\n              jump\t// in\n            tag_494:\n                /* \"#utility.yul\":10586:10611   */\n              swap3\n              pop\n                /* \"#utility.yul\":10630:10631   */\n              dup3\n                /* \"#utility.yul\":10627:10628   */\n              dup3\n                /* \"#utility.yul\":10624:10632   */\n              lt\n                /* \"#utility.yul\":10621:10655   */\n              iszero\n              tag_495\n              jumpi\n                /* \"#utility.yul\":10635:10653   */\n              tag_496\n              tag_376\n              jump\t// in\n            tag_496:\n                /* \"#utility.yul\":10621:10655   */\n            tag_495:\n                /* \"#utility.yul\":10680:10681   */\n              dup3\n                /* \"#utility.yul\":10677:10678   */\n              dup3\n                /* \"#utility.yul\":10673:10682   */\n              sub\n                /* \"#utility.yul\":10665:10682   */\n              swap1\n              pop\n                /* \"#utility.yul\":10497:10688   */\n              swap3\n              swap2\n              pop\n              pop\n              jump\t// out\n                /* \"#utility.yul\":10694:10874   */\n            tag_184:\n                /* \"#utility.yul\":10742:10819   */\n              0x4e487b7100000000000000000000000000000000000000000000000000000000\n                /* \"#utility.yul\":10739:10740   */\n              0x00\n                /* \"#utility.yul\":10732:10820   */\n              mstore\n                /* \"#utility.yul\":10839:10843   */\n              0x31\n                /* \"#utility.yul\":10836:10837   */\n              0x04\n                /* \"#utility.yul\":10829:10844   */\n              mstore\n                /* \"#utility.yul\":10863:10867   */\n              0x24\n                /* \"#utility.yul\":10860:10861   */\n              0x00\n                /* \"#utility.yul\":10853:10868   */\n              revert\n                /* \"#utility.yul\":10880:11228   */\n            tag_218:\n                /* \"#utility.yul\":10920:10927   */\n              0x00\n                /* \"#utility.yul\":10943:10963   */\n              tag_499\n                /* \"#utility.yul\":10961:10962   */\n              dup3\n                /* \"#utility.yul\":10943:10963   */\n              tag_345\n              jump\t// in\n            tag_499:\n                /* \"#utility.yul\":10938:10963   */\n              swap2\n              pop\n                /* \"#utility.yul\":10977:10997   */\n              tag_500\n                /* \"#utility.yul\":10995:10996   */\n              dup4\n                /* \"#utility.yul\":10977:10997   */\n              tag_345\n              jump\t// in\n            tag_500:\n                /* \"#utility.yul\":10972:10997   */\n              swap3\n              pop\n                /* \"#utility.yul\":11165:11166   */\n              dup2\n                /* \"#utility.yul\":11097:11163   */\n              0xffffffffffffffffffffffffffffffffffffffffffffffffffffffffffffffff\n                /* \"#utility.yul\":11093:11167   */\n              div\n                /* \"#utility.yul\":11090:11091   */\n              dup4\n                /* \"#utility.yul\":11087:11168   */\n              gt\n                /* \"#utility.yul\":11082:11083   */\n              dup3\n                /* \"#utility.yul\":11075:11084   */\n              iszero\n                /* \"#utility.yul\":11068:11085   */\n              iszero\n                /* \"#utility.yul\":11064:11169   */\n              and\n                /* \"#utility.yul\":11061:11192   */\n              iszero\n              tag_501\n              jumpi\n                /* \"#utility.yul\":11172:11190   */\n              tag_502\n              tag_376\n              jump\t// in\n            tag_502:\n                /* \"#utility.yul\":11061:11192   */\n            tag_501:\n                /* \"#utility.yul\":11220:11221   */\n              dup3\n                /* \"#utility.yul\":11217:11218   */\n              dup3\n                /* \"#utility.yul\":11213:11222   */\n              mul\n                /* \"#utility.yul\":11202:11222   */\n              swap1\n              pop\n                /* \"#utility.yul\":10880:11228   */\n              swap3\n              swap2\n              pop\n              pop\n              jump\t// out\n                /* \"#utility.yul\":11234:11414   */\n            tag_377:\n                /* \"#utility.yul\":11282:11359   */\n              0x4e487b7100000000000000000000000000000000000000000000000000000000\n                /* \"#utility.yul\":11279:11280   */\n              0x00\n                /* \"#utility.yul\":11272:11360   */\n              mstore\n                /* \"#utility.yul\":11379:11383   */\n              0x12\n                /* \"#utility.yul\":11376:11377   */\n              0x04\n                /* \"#utility.yul\":11369:11384   */\n              mstore\n                /* \"#utility.yul\":11403:11407   */\n              0x24\n                /* \"#utility.yul\":11400:11401   */\n              0x00\n                /* \"#utility.yul\":11393:11408   */\n              revert\n                /* \"#utility.yul\":11420:11605   */\n            tag_220:\n                /* \"#utility.yul\":11460:11461   */\n              0x00\n                /* \"#utility.yul\":11477:11497   */\n              tag_505\n                /* \"#utility.yul\":11495:11496   */\n              dup3\n                /* \"#utility.yul\":11477:11497   */\n              tag_345\n              jump\t// in\n            tag_505:\n                /* \"#utility.yul\":11472:11497   */\n              swap2\n              pop\n                /* \"#utility.yul\":11511:11531   */\n              tag_506\n                /* \"#utility.yul\":11529:11530   */\n              dup4\n                /* \"#utility.yul\":11511:11531   */\n              tag_345\n              jump\t// in\n            tag_506:\n                /* \"#utility.yul\":11506:11531   */\n              swap3\n              pop\n                /* \"#utility.yul\":11550:11551   */\n              dup3\n                /* \"#utility.yul\":11540:11575   */\n              tag_507\n              jumpi\n                /* \"#utility.yul\":11555:11573   */\n              tag_508\n              tag_377\n              jump\t// in\n            tag_508:\n                /* \"#utility.yul\":11540:11575   */\n            tag_507:\n                /* \"#utility.yul\":11597:11598   */\n              dup3\n                /* \"#utility.yul\":11594:11595   */\n              dup3\n                /* \"#utility.yul\":11590:11599   */\n              div\n                /* \"#utility.yul\":11585:11599   */\n              swap1\n              pop\n                /* \"#utility.yul\":11420:11605   */\n              swap3\n              swap2\n              pop\n              pop\n              jump\t// out\n                /* \"#utility.yul\":11611:11916   */\n            tag_260:\n                /* \"#utility.yul\":11651:11654   */\n              0x00\n                /* \"#utility.yul\":11670:11690   */\n              tag_510\n                /* \"#utility.yul\":11688:11689   */\n              dup3\n                /* \"#utility.yul\":11670:11690   */\n              tag_345\n              jump\t// in\n            tag_510:\n                /* \"#utility.yul\":11665:11690   */\n              swap2\n              pop\n                /* \"#utility.yul\":11704:11724   */\n              tag_511\n                /* \"#utility.yul\":11722:11723   */\n              dup4\n                /* \"#utility.yul\":11704:11724   */\n              tag_345\n              jump\t// in\n            tag_511:\n                /* \"#utility.yul\":11699:11724   */\n              swap3\n              pop\n                /* \"#utility.yul\":11858:11859   */\n              dup3\n                /* \"#utility.yul\":11790:11856   */\n              0xffffffffffffffffffffffffffffffffffffffffffffffffffffffffffffffff\n                /* \"#utility.yul\":11786:11860   */\n              sub\n                /* \"#utility.yul\":11783:11784   */\n              dup3\n                /* \"#utility.yul\":11780:11861   */\n              gt\n                /* \"#utility.yul\":11777:11884   */\n              iszero\n              tag_512\n              jumpi\n                /* \"#utility.yul\":11864:11882   */\n              tag_513\n              tag_376\n              jump\t// in\n            tag_513:\n                /* \"#utility.yul\":11777:11884   */\n            tag_512:\n                /* \"#utility.yul\":11908:11909   */\n              dup3\n                /* \"#utility.yul\":11905:11906   */\n              dup3\n                /* \"#utility.yul\":11901:11910   */\n              add\n                /* \"#utility.yul\":11894:11910   */\n              swap1\n              pop\n                /* \"#utility.yul\":11611:11916   */\n              swap3\n              swap2\n              pop\n              pop\n              jump\t// out\n                /* \"#utility.yul\":11922:12155   */\n            tag_262:\n                /* \"#utility.yul\":11961:11964   */\n              0x00\n                /* \"#utility.yul\":11984:12008   */\n              tag_515\n                /* \"#utility.yul\":12002:12007   */\n              dup3\n                /* \"#utility.yul\":11984:12008   */\n              tag_345\n              jump\t// in\n            tag_515:\n                /* \"#utility.yul\":11975:12008   */\n              swap2\n              pop\n                /* \"#utility.yul\":12030:12096   */\n              0xffffffffffffffffffffffffffffffffffffffffffffffffffffffffffffffff\n                /* \"#utility.yul\":12023:12028   */\n              dup3\n                /* \"#utility.yul\":12020:12097   */\n              eq\n                /* \"#utility.yul\":12017:12120   */\n              iszero\n              tag_516\n              jumpi\n                /* \"#utility.yul\":12100:12118   */\n              tag_517\n              tag_376\n              jump\t// in\n            tag_517:\n                /* \"#utility.yul\":12017:12120   */\n            tag_516:\n                /* \"#utility.yul\":12147:12148   */\n              0x01\n                /* \"#utility.yul\":12140:12145   */\n              dup3\n                /* \"#utility.yul\":12136:12149   */\n              add\n                /* \"#utility.yul\":12129:12149   */\n              swap1\n              pop\n                /* \"#utility.yul\":11922:12155   */\n              swap2\n              swap1\n              pop\n              jump\t// out\n\n            auxdata: 0xa2646970667358221220b31b2dbee36f227817600feff4ac530ef63e12822b446cad1209c5494e6522e564736f6c634300080c0033\n        }\n    }\n\n    auxdata: 0xa26469706673582212202ac74d07b4047ad1d271eb6cf9e1fbd7052fcbc530c3cf846f4367bdff8dce0c64736f6c634300080c0033\n}\n",
    "bytecode": {
      "linkReferences": {},
      "object": "608060405234801561001057600080fd5b50336000806101000a81548173ffffffffffffffffffffffffffffffffffffffff021916908373ffffffffffffffffffffffffffffffffffffffff160217905550612fa9806100606000396000f3fe60806040523480156200001157600080fd5b5060043610620000525760003560e01c8063086a17d814620000575780632968740d146200008d5780635242260314620000af57806395bf75fd14620000cf575b600080fd5b6200007560048036038101906200006f91906200030c565b620000f1565b60405162000084919062000383565b60405180910390f35b6200009762000131565b604051620000a691906200046e565b60405180910390f35b620000cd6004803603810190620000c79190620005f5565b620001c1565b005b620000d962000290565b604051620000e8919062000383565b60405180910390f35b600181815481106200010257600080fd5b906000526020600020016000915054906101000a900473ffffffffffffffffffffffffffffffffffffffff1681565b60606001805480602002602001604051908101604052809291908181526020018280548015620001b757602002820191906000526020600020905b8160009054906101000a900473ffffffffffffffffffffffffffffffffffffffff1673ffffffffffffffffffffffffffffffffffffffff16815260200190600101908083116200016c575b5050505050905090565b60008060009054906101000a900473ffffffffffffffffffffffffffffffffffffffff1684848433604051620001f790620002b4565b62000207959493929190620007ad565b604051809103906000f08015801562000224573d6000803e3d6000fd5b5090506001819080600181540180825580915050600190039060005260206000200160009091909190916101000a81548173ffffffffffffffffffffffffffffffffffffffff021916908373ffffffffffffffffffffffffffffffffffffffff16021790555050505050565b60008054906101000a900473ffffffffffffffffffffffffffffffffffffffff1681565b612767806200080d83390190565b6000604051905090565b600080fd5b6000819050919050565b620002e681620002d1565b8114620002f257600080fd5b50565b6000813590506200030681620002db565b92915050565b600060208284031215620003255762000324620002cc565b5b60006200033584828501620002f5565b91505092915050565b600073ffffffffffffffffffffffffffffffffffffffff82169050919050565b60006200036b826200033e565b9050919050565b6200037d816200035e565b82525050565b60006020820190506200039a600083018462000372565b92915050565b600081519050919050565b600082825260208201905092915050565b6000819050602082019050919050565b620003d7816200035e565b82525050565b6000620003eb8383620003cc565b60208301905092915050565b6000602082019050919050565b60006200041182620003a0565b6200041d8185620003ab565b93506200042a83620003bc565b8060005b8381101562000461578151620004458882620003dd565b97506200045283620003f7565b9250506001810190506200042e565b5085935050505092915050565b600060208201905081810360008301526200048a818462000404565b905092915050565b600080fd5b6000601f19601f8301169050919050565b7f4e487b7100000000000000000000000000000000000000000000000000000000600052604160045260246000fd5b620004e28262000497565b810181811067ffffffffffffffff82111715620005045762000503620004a8565b5b80604052505050565b600062000519620002c2565b9050620005278282620004d7565b919050565b600067ffffffffffffffff8211156200054a5762000549620004a8565b5b602082029050919050565b600080fd5b6000620005716200056b846200052c565b6200050d565b905080602084028301858111156200058e576200058d62000555565b5b835b81811015620005bb5780620005a68882620002f5565b84526020840193505060208101905062000590565b5050509392505050565b600082601f830112620005dd57620005dc62000492565b5b6005620005ec8482856200055a565b91505092915050565b600080600060e08486031215620006115762000610620002cc565b5b60006200062186828701620005c5565b93505060a06200063486828701620002f5565b92505060c06200064786828701620002f5565b9150509250925092565b6000819050919050565b60006200067c6200067662000670846200033e565b62000651565b6200033e565b9050919050565b600062000690826200065b565b9050919050565b6000620006a48262000683565b9050919050565b620006b68162000697565b82525050565b600060059050919050565b600081905092915050565b6000819050919050565b620006e781620002d1565b82525050565b6000620006fb8383620006dc565b60208301905092915050565b6000602082019050919050565b6200071f81620006bc565b6200072b8184620006c7565b92506200073882620006d2565b8060005b838110156200076f578151620007538782620006ed565b9650620007608362000707565b9250506001810190506200073c565b505050505050565b6200078281620002d1565b82525050565b600062000795826200033e565b9050919050565b620007a78162000788565b82525050565b600061012082019050620007c56000830188620006ab565b620007d4602083018762000714565b620007e360c083018662000777565b620007f260e083018562000777565b620008026101008301846200079c565b969550505050505056fe60806040523480156200001157600080fd5b506040516200276738038062002767833981810160405281019062000037919062000424565b60648460046005811062000050576200004f620004ae565b5b6020020151856003600581106200006c576200006b620004ae565b5b602002015186600260058110620000885762000087620004ae565b5b602002015187600160058110620000a457620000a3620004ae565b5b602002015188600060058110620000c057620000bf620004ae565b5b6020020151620000d191906200050c565b620000dd91906200050c565b620000e991906200050c565b620000f591906200050c565b146200010057600080fd5b84600160006101000a81548173ffffffffffffffffffffffffffffffffffffffff021916908373ffffffffffffffffffffffffffffffffffffffff16021790555083600290600562000154929190620001ae565b508260078190555081600881905550806000806101000a81548173ffffffffffffffffffffffffffffffffffffffff021916908373ffffffffffffffffffffffffffffffffffffffff160217905550505050505062000569565b8260058101928215620001e0579160200282015b82811115620001df578251825591602001919060010190620001c2565b5b509050620001ef9190620001f3565b5090565b5b808211156200020e576000816000905550600101620001f4565b5090565b6000604051905090565b600080fd5b600073ffffffffffffffffffffffffffffffffffffffff82169050919050565b60006200024e8262000221565b9050919050565b620002608162000241565b81146200026c57600080fd5b50565b600081519050620002808162000255565b92915050565b600080fd5b6000601f19601f8301169050919050565b7f4e487b7100000000000000000000000000000000000000000000000000000000600052604160045260246000fd5b620002d6826200028b565b810181811067ffffffffffffffff82111715620002f857620002f76200029c565b5b80604052505050565b60006200030d62000212565b90506200031b8282620002cb565b919050565b600067ffffffffffffffff8211156200033e576200033d6200029c565b5b602082029050919050565b600080fd5b6000819050919050565b62000363816200034e565b81146200036f57600080fd5b50565b600081519050620003838162000358565b92915050565b6000620003a06200039a8462000320565b62000301565b90508060208402830185811115620003bd57620003bc62000349565b5b835b81811015620003ea5780620003d5888262000372565b845260208401935050602081019050620003bf565b5050509392505050565b600082601f8301126200040c576200040b62000286565b5b60056200041b84828562000389565b91505092915050565b600080600080600061012086880312156200044457620004436200021c565b5b600062000454888289016200026f565b95505060206200046788828901620003f4565b94505060c06200047a8882890162000372565b93505060e06200048d8882890162000372565b925050610100620004a1888289016200026f565b9150509295509295909350565b7f4e487b7100000000000000000000000000000000000000000000000000000000600052603260045260246000fd5b7f4e487b7100000000000000000000000000000000000000000000000000000000600052601160045260246000fd5b600062000519826200034e565b915062000526836200034e565b9250827fffffffffffffffffffffffffffffffffffffffffffffffffffffffffffffffff038211156200055e576200055d620004dd565b5b828201905092915050565b6121ee80620005796000396000f3fe6080604052600436106101cd5760003560e01c80638e6b8ed3116100f7578063b69ef8a811610095578063cc66664f11610064578063cc66664f14610662578063d10c54751461069f578063ed88c68e146106a9578063f437bc59146106b3576101cd565b8063b69ef8a8146105c5578063ba44eecf146105f0578063c1dfba031461062d578063c30e83f814610658576101cd565b80639bad74be116100d15780639bad74be1461051b578063ad7bbc2914610546578063aeaf1e511461056f578063aeee6fca1461059a576101cd565b80638e6b8ed3146104885780639026dee8146104b357806395bf75fd146104f0576101cd565b806358e45bb71161016f5780636a9c408f1161013e5780636a9c408f146103ce57806370480275146103f95780637e458492146104225780637f4e2be11461044b576101cd565b806358e45bb7146103005780635f63cf781461033d5780636045051a1461036657806365a4cec0146103a3576101cd565b80632826b690116101ab5780632826b6901461024257806331ae450b1461026d57806333220ded146102985780633ba0e661146102d5576101cd565b80630f30fa3f146101d2578063171bf224146101ee5780631c4e870f14610217575b600080fd5b6101ec60048036038101906101e79190611ad6565b6106de565b005b3480156101fa57600080fd5b5061021560048036038101906102109190611ad6565b610927565b005b34801561022357600080fd5b5061022c610b1c565b6040516102399190611b12565b60405180910390f35b34801561024e57600080fd5b50610257610b22565b6040516102649190611c1d565b60405180910390f35b34801561027957600080fd5b50610282610bb0565b60405161028f9190611c1d565b60405180910390f35b3480156102a457600080fd5b506102bf60048036038101906102ba9190611ad6565b610c3e565b6040516102cc9190611b12565b60405180910390f35b3480156102e157600080fd5b506102ea610c59565b6040516102f79190611b12565b60405180910390f35b34801561030c57600080fd5b5061032760048036038101906103229190611c7d565b610c5f565b6040516103349190611cc5565b60405180910390f35b34801561034957600080fd5b50610364600480360381019061035f9190611efc565b610c7f565b005b34801561037257600080fd5b5061038d60048036038101906103889190611ad6565b611335565b60405161039a9190611f83565b60405180910390f35b3480156103af57600080fd5b506103b8611374565b6040516103c59190611b12565b60405180910390f35b3480156103da57600080fd5b506103e361137a565b6040516103f09190611b12565b60405180910390f35b34801561040557600080fd5b50610420600480360381019061041b9190611c7d565b611380565b005b34801561042e57600080fd5b5061044960048036038101906104449190611c7d565b611496565b005b34801561045757600080fd5b50610472600480360381019061046d9190611ad6565b6115ac565b60405161047f9190611f83565b60405180910390f35b34801561049457600080fd5b5061049d6115eb565b6040516104aa9190611c1d565b60405180910390f35b3480156104bf57600080fd5b506104da60048036038101906104d59190611c7d565b611679565b6040516104e79190611cc5565b60405180910390f35b3480156104fc57600080fd5b50610505611699565b6040516105129190611f83565b60405180910390f35b34801561052757600080fd5b506105306116bf565b60405161053d9190611b12565b60405180910390f35b34801561055257600080fd5b5061056d60048036038101906105689190611ad6565b6116c5565b005b34801561057b57600080fd5b506105846118ba565b6040516105919190611b12565b60405180910390f35b3480156105a657600080fd5b506105af6118c0565b6040516105bc9190611b12565b60405180910390f35b3480156105d157600080fd5b506105da6118c6565b6040516105e79190611b12565b60405180910390f35b3480156105fc57600080fd5b5061061760048036038101906106129190611ad6565b6118cc565b6040516106249190611f83565b60405180910390f35b34801561063957600080fd5b5061064261190b565b60405161064f9190611b12565b60405180910390f35b610660611911565b005b34801561066e57600080fd5b5061068960048036038101906106849190611c7d565b61193b565b6040516106969190611cc5565b60405180910390f35b6106a761195b565b005b6106b1611a40565b005b3480156106bf57600080fd5b506106c8611a68565b6040516106d59190611f83565b60405180910390f35b60008054906101000a900473ffffffffffffffffffffffffffffffffffffffff1673ffffffffffffffffffffffffffffffffffffffff163373ffffffffffffffffffffffffffffffffffffffff1614806107815750600e60003373ffffffffffffffffffffffffffffffffffffffff1673ffffffffffffffffffffffffffffffffffffffff16815260200190815260200160002060009054906101000a900460ff165b61078a57600080fd5b600980549050811061079b57600080fd5b6000600a6000600984815481106107b5576107b4611f9e565b5b9060005260206000200160009054906101000a900473ffffffffffffffffffffffffffffffffffffffff1673ffffffffffffffffffffffffffffffffffffffff1673ffffffffffffffffffffffffffffffffffffffff16815260200190815260200160002060006101000a81548160ff021916908315150217905550600960016009805490506108459190611ffc565b8154811061085657610855611f9e565b5b9060005260206000200160009054906101000a900473ffffffffffffffffffffffffffffffffffffffff166009828154811061089557610894611f9e565b5b9060005260206000200160006101000a81548173ffffffffffffffffffffffffffffffffffffffff021916908373ffffffffffffffffffffffffffffffffffffffff16021790555060098054806108ef576108ee612030565b5b6001900381819060005260206000200160006101000a81549073ffffffffffffffffffffffffffffffffffffffff0219169055905550565b60008054906101000a900473ffffffffffffffffffffffffffffffffffffffff1673ffffffffffffffffffffffffffffffffffffffff163373ffffffffffffffffffffffffffffffffffffffff161461097f57600080fd5b600f80549050811061099057600080fd5b600060106000600f84815481106109aa576109a9611f9e565b5b9060005260206000200160009054906101000a900473ffffffffffffffffffffffffffffffffffffffff1673ffffffffffffffffffffffffffffffffffffffff1673ffffffffffffffffffffffffffffffffffffffff16815260200190815260200160002060006101000a81548160ff021916908315150217905550600f6001600f80549050610a3a9190611ffc565b81548110610a4b57610a4a611f9e565b5b9060005260206000200160009054906101000a900473ffffffffffffffffffffffffffffffffffffffff16600f8281548110610a8a57610a89611f9e565b5b9060005260206000200160006101000a81548173ffffffffffffffffffffffffffffffffffffffff021916908373ffffffffffffffffffffffffffffffffffffffff160217905550600f805480610ae457610ae3612030565b5b6001900381819060005260206000200160006101000a81549073ffffffffffffffffffffffffffffffffffffffff0219169055905550565b60125481565b60606009805480602002602001604051908101604052809291908181526020018280548015610ba657602002820191906000526020600020905b8160009054906101000a900473ffffffffffffffffffffffffffffffffffffffff1673ffffffffffffffffffffffffffffffffffffffff1681526020019060010190808311610b5c575b5050505050905090565b6060600d805480602002602001604051908101604052809291908181526020018280548015610c3457602002820191906000526020600020905b8160009054906101000a900473ffffffffffffffffffffffffffffffffffffffff1673ffffffffffffffffffffffffffffffffffffffff1681526020019060010190808311610bea575b5050505050905090565b60028160058110610c4e57600080fd5b016000915090505481565b60085481565b60106020528060005260406000206000915054906101000a900460ff1681565b600160009054906101000a900473ffffffffffffffffffffffffffffffffffffffff1673ffffffffffffffffffffffffffffffffffffffff163373ffffffffffffffffffffffffffffffffffffffff1614610cd957600080fd5b60646002600060058110610cf057610cef611f9e565b5b0154601154610cff919061205f565b610d0991906120e8565b60128190555060646002600160058110610d2657610d25611f9e565b5b0154601154610d35919061205f565b610d3f91906120e8565b601381905550606460028060058110610d5b57610d5a611f9e565b5b0154601154610d6a919061205f565b610d7491906120e8565b60148190555060646002600360058110610d9157610d90611f9e565b5b0154601154610da0919061205f565b610daa91906120e8565b60158190555060646002600460058110610dc757610dc6611f9e565b5b0154601154610dd6919061205f565b610de091906120e8565b60168190555060008054906101000a900473ffffffffffffffffffffffffffffffffffffffff1673ffffffffffffffffffffffffffffffffffffffff166108fc6012549081150290604051600060405180830381858888f19350505050158015610e4e573d6000803e3d6000fd5b50600160009054906101000a900473ffffffffffffffffffffffffffffffffffffffff1673ffffffffffffffffffffffffffffffffffffffff166108fc6016549081150290604051600060405180830381858888f19350505050158015610eb9573d6000803e3d6000fd5b508051825114610ec857600080fd5b60098054905082511115610edb57600080fd5b60005b825181101561101257600a6000848381518110610efe57610efd611f9e565b5b602002602001015173ffffffffffffffffffffffffffffffffffffffff1673ffffffffffffffffffffffffffffffffffffffff16815260200190815260200160002060009054906101000a900460ff1615610fff57818181518110610f6657610f65611f9e565b5b6020026020010151600b6000858481518110610f8557610f84611f9e565b5b602002602001015173ffffffffffffffffffffffffffffffffffffffff1673ffffffffffffffffffffffffffffffffffffffff16815260200190815260200160002081905550818181518110610fde57610fdd611f9e565b5b6020026020010151600c6000828254610ff79190612119565b925050819055505b808061100a9061216f565b915050610ede565b60009050600090505b825181101561117857600a600084838151811061103b5761103a611f9e565b5b602002602001015173ffffffffffffffffffffffffffffffffffffffff1673ffffffffffffffffffffffffffffffffffffffff16815260200190815260200160002060009054906101000a900460ff1615611165578281815181106110a3576110a2611f9e565b5b602002602001015173ffffffffffffffffffffffffffffffffffffffff166108fc600c54600b60008786815181106110de576110dd611f9e565b5b602002602001015173ffffffffffffffffffffffffffffffffffffffff1673ffffffffffffffffffffffffffffffffffffffff1681526020019081526020016000205460155461112e919061205f565b61113891906120e8565b9081150290604051600060405180830381858888f19350505050158015611163573d6000803e3d6000fd5b505b80806111709061216f565b91505061101b565b60009050600090505b600d8054905081101561123857600d81815481106111a2576111a1611f9e565b5b9060005260206000200160009054906101000a900473ffffffffffffffffffffffffffffffffffffffff1673ffffffffffffffffffffffffffffffffffffffff166108fc600d805490506013546111f991906120e8565b9081150290604051600060405180830381858888f19350505050158015611224573d6000803e3d6000fd5b5080806112309061216f565b915050611181565b60009050600090505b600f805490508110156112f857600f818154811061126257611261611f9e565b5b9060005260206000200160009054906101000a900473ffffffffffffffffffffffffffffffffffffffff1673ffffffffffffffffffffffffffffffffffffffff166108fc600f805490506014546112b991906120e8565b9081150290604051600060405180830381858888f193505050501580156112e4573d6000803e3d6000fd5b5080806112f09061216f565b915050611241565b6000601181905550600060128190555060006013819055506000601481905550600060158190555060006016819055506000600c81905550505050565b6009818154811061134557600080fd5b906000526020600020016000915054906101000a900473ffffffffffffffffffffffffffffffffffffffff1681565b60075481565b60155481565b60008054906101000a900473ffffffffffffffffffffffffffffffffffffffff1673ffffffffffffffffffffffffffffffffffffffff163373ffffffffffffffffffffffffffffffffffffffff16146113d857600080fd5b600d819080600181540180825580915050600190039060005260206000200160009091909190916101000a81548173ffffffffffffffffffffffffffffffffffffffff021916908373ffffffffffffffffffffffffffffffffffffffff1602179055506001600e60008373ffffffffffffffffffffffffffffffffffffffff1673ffffffffffffffffffffffffffffffffffffffff16815260200190815260200160002060006101000a81548160ff02191690831515021790555050565b60008054906101000a900473ffffffffffffffffffffffffffffffffffffffff1673ffffffffffffffffffffffffffffffffffffffff163373ffffffffffffffffffffffffffffffffffffffff16146114ee57600080fd5b600f819080600181540180825580915050600190039060005260206000200160009091909190916101000a81548173ffffffffffffffffffffffffffffffffffffffff021916908373ffffffffffffffffffffffffffffffffffffffff1602179055506001601060008373ffffffffffffffffffffffffffffffffffffffff1673ffffffffffffffffffffffffffffffffffffffff16815260200190815260200160002060006101000a81548160ff02191690831515021790555050565b600f81815481106115bc57600080fd5b906000526020600020016000915054906101000a900473ffffffffffffffffffffffffffffffffffffffff1681565b6060600f80548060200260200160405190810160405280929190818152602001828054801561166f57602002820191906000526020600020905b8160009054906101000a900473ffffffffffffffffffffffffffffffffffffffff1673ffffffffffffffffffffffffffffffffffffffff1681526020019060010190808311611625575b5050505050905090565b600e6020528060005260406000206000915054906101000a900460ff1681565b600160009054906101000a900473ffffffffffffffffffffffffffffffffffffffff1681565b600c5481565b60008054906101000a900473ffffffffffffffffffffffffffffffffffffffff1673ffffffffffffffffffffffffffffffffffffffff163373ffffffffffffffffffffffffffffffffffffffff161461171d57600080fd5b600d80549050811061172e57600080fd5b6000600e6000600d848154811061174857611747611f9e565b5b9060005260206000200160009054906101000a900473ffffffffffffffffffffffffffffffffffffffff1673ffffffffffffffffffffffffffffffffffffffff1673ffffffffffffffffffffffffffffffffffffffff16815260200190815260200160002060006101000a81548160ff021916908315150217905550600d6001600d805490506117d89190611ffc565b815481106117e9576117e8611f9e565b5b9060005260206000200160009054906101000a900473ffffffffffffffffffffffffffffffffffffffff16600d828154811061182857611827611f9e565b5b9060005260206000200160006101000a81548173ffffffffffffffffffffffffffffffffffffffff021916908373ffffffffffffffffffffffffffffffffffffffff160217905550600d80548061188257611881612030565b5b6001900381819060005260206000200160006101000a81549073ffffffffffffffffffffffffffffffffffffffff0219169055905550565b60135481565b60145481565b60115481565b600d81815481106118dc57600080fd5b906000526020600020016000915054906101000a900473ffffffffffffffffffffffffffffffffffffffff1681565b60165481565b60075434101561192057600080fd5b34601160008282546119329190612119565b92505081905550565b600a6020528060005260406000206000915054906101000a900460ff1681565b60085434101561196a57600080fd5b6001600a60003373ffffffffffffffffffffffffffffffffffffffff1673ffffffffffffffffffffffffffffffffffffffff16815260200190815260200160002060006101000a81548160ff0219169083151502179055506009339080600181540180825580915050600190039060005260206000200160009091909190916101000a81548173ffffffffffffffffffffffffffffffffffffffff021916908373ffffffffffffffffffffffffffffffffffffffff1602179055503460116000828254611a379190612119565b92505081905550565b60003411611a4d57600080fd5b3460116000828254611a5f9190612119565b92505081905550565b60008054906101000a900473ffffffffffffffffffffffffffffffffffffffff1681565b6000604051905090565b600080fd5b600080fd5b6000819050919050565b611ab381611aa0565b8114611abe57600080fd5b50565b600081359050611ad081611aaa565b92915050565b600060208284031215611aec57611aeb611a96565b5b6000611afa84828501611ac1565b91505092915050565b611b0c81611aa0565b82525050565b6000602082019050611b276000830184611b03565b92915050565b600081519050919050565b600082825260208201905092915050565b6000819050602082019050919050565b600073ffffffffffffffffffffffffffffffffffffffff82169050919050565b6000611b8482611b59565b9050919050565b611b9481611b79565b82525050565b6000611ba68383611b8b565b60208301905092915050565b6000602082019050919050565b6000611bca82611b2d565b611bd48185611b38565b9350611bdf83611b49565b8060005b83811015611c10578151611bf78882611b9a565b9750611c0283611bb2565b925050600181019050611be3565b5085935050505092915050565b60006020820190508181036000830152611c378184611bbf565b905092915050565b6000611c4a82611b59565b9050919050565b611c5a81611c3f565b8114611c6557600080fd5b50565b600081359050611c7781611c51565b92915050565b600060208284031215611c9357611c92611a96565b5b6000611ca184828501611c68565b91505092915050565b60008115159050919050565b611cbf81611caa565b82525050565b6000602082019050611cda6000830184611cb6565b92915050565b600080fd5b6000601f19601f8301169050919050565b7f4e487b7100000000000000000000000000000000000000000000000000000000600052604160045260246000fd5b611d2e82611ce5565b810181811067ffffffffffffffff82111715611d4d57611d4c611cf6565b5b80604052505050565b6000611d60611a8c565b9050611d6c8282611d25565b919050565b600067ffffffffffffffff821115611d8c57611d8b611cf6565b5b602082029050602081019050919050565b600080fd5b6000611db5611db084611d71565b611d56565b90508083825260208201905060208402830185811115611dd857611dd7611d9d565b5b835b81811015611e015780611ded8882611c68565b845260208401935050602081019050611dda565b5050509392505050565b600082601f830112611e2057611e1f611ce0565b5b8135611e30848260208601611da2565b91505092915050565b600067ffffffffffffffff821115611e5457611e53611cf6565b5b602082029050602081019050919050565b6000611e78611e7384611e39565b611d56565b90508083825260208201905060208402830185811115611e9b57611e9a611d9d565b5b835b81811015611ec45780611eb08882611ac1565b845260208401935050602081019050611e9d565b5050509392505050565b600082601f830112611ee357611ee2611ce0565b5b8135611ef3848260208601611e65565b91505092915050565b60008060408385031215611f1357611f12611a96565b5b600083013567ffffffffffffffff811115611f3157611f30611a9b565b5b611f3d85828601611e0b565b925050602083013567ffffffffffffffff811115611f5e57611f5d611a9b565b5b611f6a85828601611ece565b9150509250929050565b611f7d81611b79565b82525050565b6000602082019050611f986000830184611f74565b92915050565b7f4e487b7100000000000000000000000000000000000000000000000000000000600052603260045260246000fd5b7f4e487b7100000000000000000000000000000000000000000000000000000000600052601160045260246000fd5b600061200782611aa0565b915061201283611aa0565b92508282101561202557612024611fcd565b5b828203905092915050565b7f4e487b7100000000000000000000000000000000000000000000000000000000600052603160045260246000fd5b600061206a82611aa0565b915061207583611aa0565b9250817fffffffffffffffffffffffffffffffffffffffffffffffffffffffffffffffff04831182151516156120ae576120ad611fcd565b5b828202905092915050565b7f4e487b7100000000000000000000000000000000000000000000000000000000600052601260045260246000fd5b60006120f382611aa0565b91506120fe83611aa0565b92508261210e5761210d6120b9565b5b828204905092915050565b600061212482611aa0565b915061212f83611aa0565b9250827fffffffffffffffffffffffffffffffffffffffffffffffffffffffffffffffff0382111561216457612163611fcd565b5b828201905092915050565b600061217a82611aa0565b91507fffffffffffffffffffffffffffffffffffffffffffffffffffffffffffffffff8214156121ad576121ac611fcd565b5b60018201905091905056fea2646970667358221220b31b2dbee36f227817600feff4ac530ef63e12822b446cad1209c5494e6522e564736f6c634300080c0033a26469706673582212202ac74d07b4047ad1d271eb6cf9e1fbd7052fcbc530c3cf846f4367bdff8dce0c64736f6c634300080c0033",
      "opcodes": "PUSH1 0x80 PUSH1 0x40 MSTORE CALLVALUE DUP1 ISZERO PUSH2 0x10 JUMPI PUSH1 0x0 DUP1 REVERT JUMPDEST POP CALLER PUSH1 0x0 DUP1 PUSH2 0x100 EXP DUP2 SLOAD DUP2 PUSH20 0xFFFFFFFFFFFFFFFFFFFFFFFFFFFFFFFFFFFFFFFF MUL NOT AND SWAP1 DUP4 PUSH20 0xFFFFFFFFFFFFFFFFFFFFFFFFFFFFFFFFFFFFFFFF AND MUL OR SWAP1 SSTORE POP PUSH2 0x2FA9 DUP1 PUSH2 0x60 PUSH1 0x0 CODECOPY PUSH1 0x0 RETURN INVALID PUSH1 0x80 PUSH1 0x40 MSTORE CALLVALUE DUP1 ISZERO PUSH3 0x11 JUMPI PUSH1 0x0 DUP1 REVERT JUMPDEST POP PUSH1 0x4 CALLDATASIZE LT PUSH3 0x52 JUMPI PUSH1 0x0 CALLDATALOAD PUSH1 0xE0 SHR DUP1 PUSH4 0x86A17D8 EQ PUSH3 0x57 JUMPI DUP1 PUSH4 0x2968740D EQ PUSH3 0x8D JUMPI DUP1 PUSH4 0x52422603 EQ PUSH3 0xAF JUMPI DUP1 PUSH4 0x95BF75FD EQ PUSH3 0xCF JUMPI JUMPDEST PUSH1 0x0 DUP1 REVERT JUMPDEST PUSH3 0x75 PUSH1 0x4 DUP1 CALLDATASIZE SUB DUP2 ADD SWAP1 PUSH3 0x6F SWAP2 SWAP1 PUSH3 0x30C JUMP JUMPDEST PUSH3 0xF1 JUMP JUMPDEST PUSH1 0x40 MLOAD PUSH3 0x84 SWAP2 SWAP1 PUSH3 0x383 JUMP JUMPDEST PUSH1 0x40 MLOAD DUP1 SWAP2 SUB SWAP1 RETURN JUMPDEST PUSH3 0x97 PUSH3 0x131 JUMP JUMPDEST PUSH1 0x40 MLOAD PUSH3 0xA6 SWAP2 SWAP1 PUSH3 0x46E JUMP JUMPDEST PUSH1 0x40 MLOAD DUP1 SWAP2 SUB SWAP1 RETURN JUMPDEST PUSH3 0xCD PUSH1 0x4 DUP1 CALLDATASIZE SUB DUP2 ADD SWAP1 PUSH3 0xC7 SWAP2 SWAP1 PUSH3 0x5F5 JUMP JUMPDEST PUSH3 0x1C1 JUMP JUMPDEST STOP JUMPDEST PUSH3 0xD9 PUSH3 0x290 JUMP JUMPDEST PUSH1 0x40 MLOAD PUSH3 0xE8 SWAP2 SWAP1 PUSH3 0x383 JUMP JUMPDEST PUSH1 0x40 MLOAD DUP1 SWAP2 SUB SWAP1 RETURN JUMPDEST PUSH1 0x1 DUP2 DUP2 SLOAD DUP2 LT PUSH3 0x102 JUMPI PUSH1 0x0 DUP1 REVERT JUMPDEST SWAP1 PUSH1 0x0 MSTORE PUSH1 0x20 PUSH1 0x0 KECCAK256 ADD PUSH1 0x0 SWAP2 POP SLOAD SWAP1 PUSH2 0x100 EXP SWAP1 DIV PUSH20 0xFFFFFFFFFFFFFFFFFFFFFFFFFFFFFFFFFFFFFFFF AND DUP2 JUMP JUMPDEST PUSH1 0x60 PUSH1 0x1 DUP1 SLOAD DUP1 PUSH1 0x20 MUL PUSH1 0x20 ADD PUSH1 0x40 MLOAD SWAP1 DUP2 ADD PUSH1 0x40 MSTORE DUP1 SWAP3 SWAP2 SWAP1 DUP2 DUP2 MSTORE PUSH1 0x20 ADD DUP3 DUP1 SLOAD DUP1 ISZERO PUSH3 0x1B7 JUMPI PUSH1 0x20 MUL DUP3 ADD SWAP2 SWAP1 PUSH1 0x0 MSTORE PUSH1 0x20 PUSH1 0x0 KECCAK256 SWAP1 JUMPDEST DUP2 PUSH1 0x0 SWAP1 SLOAD SWAP1 PUSH2 0x100 EXP SWAP1 DIV PUSH20 0xFFFFFFFFFFFFFFFFFFFFFFFFFFFFFFFFFFFFFFFF AND PUSH20 0xFFFFFFFFFFFFFFFFFFFFFFFFFFFFFFFFFFFFFFFF AND DUP2 MSTORE PUSH1 0x20 ADD SWAP1 PUSH1 0x1 ADD SWAP1 DUP1 DUP4 GT PUSH3 0x16C JUMPI JUMPDEST POP POP POP POP POP SWAP1 POP SWAP1 JUMP JUMPDEST PUSH1 0x0 DUP1 PUSH1 0x0 SWAP1 SLOAD SWAP1 PUSH2 0x100 EXP SWAP1 DIV PUSH20 0xFFFFFFFFFFFFFFFFFFFFFFFFFFFFFFFFFFFFFFFF AND DUP5 DUP5 DUP5 CALLER PUSH1 0x40 MLOAD PUSH3 0x1F7 SWAP1 PUSH3 0x2B4 JUMP JUMPDEST PUSH3 0x207 SWAP6 SWAP5 SWAP4 SWAP3 SWAP2 SWAP1 PUSH3 0x7AD JUMP JUMPDEST PUSH1 0x40 MLOAD DUP1 SWAP2 SUB SWAP1 PUSH1 0x0 CREATE DUP1 ISZERO DUP1 ISZERO PUSH3 0x224 JUMPI RETURNDATASIZE PUSH1 0x0 DUP1 RETURNDATACOPY RETURNDATASIZE PUSH1 0x0 REVERT JUMPDEST POP SWAP1 POP PUSH1 0x1 DUP2 SWAP1 DUP1 PUSH1 0x1 DUP2 SLOAD ADD DUP1 DUP3 SSTORE DUP1 SWAP2 POP POP PUSH1 0x1 SWAP1 SUB SWAP1 PUSH1 0x0 MSTORE PUSH1 0x20 PUSH1 0x0 KECCAK256 ADD PUSH1 0x0 SWAP1 SWAP2 SWAP1 SWAP2 SWAP1 SWAP2 PUSH2 0x100 EXP DUP2 SLOAD DUP2 PUSH20 0xFFFFFFFFFFFFFFFFFFFFFFFFFFFFFFFFFFFFFFFF MUL NOT AND SWAP1 DUP4 PUSH20 0xFFFFFFFFFFFFFFFFFFFFFFFFFFFFFFFFFFFFFFFF AND MUL OR SWAP1 SSTORE POP POP POP POP POP JUMP JUMPDEST PUSH1 0x0 DUP1 SLOAD SWAP1 PUSH2 0x100 EXP SWAP1 DIV PUSH20 0xFFFFFFFFFFFFFFFFFFFFFFFFFFFFFFFFFFFFFFFF AND DUP2 JUMP JUMPDEST PUSH2 0x2767 DUP1 PUSH3 0x80D DUP4 CODECOPY ADD SWAP1 JUMP JUMPDEST PUSH1 0x0 PUSH1 0x40 MLOAD SWAP1 POP SWAP1 JUMP JUMPDEST PUSH1 0x0 DUP1 REVERT JUMPDEST PUSH1 0x0 DUP2 SWAP1 POP SWAP2 SWAP1 POP JUMP JUMPDEST PUSH3 0x2E6 DUP2 PUSH3 0x2D1 JUMP JUMPDEST DUP2 EQ PUSH3 0x2F2 JUMPI PUSH1 0x0 DUP1 REVERT JUMPDEST POP JUMP JUMPDEST PUSH1 0x0 DUP2 CALLDATALOAD SWAP1 POP PUSH3 0x306 DUP2 PUSH3 0x2DB JUMP JUMPDEST SWAP3 SWAP2 POP POP JUMP JUMPDEST PUSH1 0x0 PUSH1 0x20 DUP3 DUP5 SUB SLT ISZERO PUSH3 0x325 JUMPI PUSH3 0x324 PUSH3 0x2CC JUMP JUMPDEST JUMPDEST PUSH1 0x0 PUSH3 0x335 DUP5 DUP3 DUP6 ADD PUSH3 0x2F5 JUMP JUMPDEST SWAP2 POP POP SWAP3 SWAP2 POP POP JUMP JUMPDEST PUSH1 0x0 PUSH20 0xFFFFFFFFFFFFFFFFFFFFFFFFFFFFFFFFFFFFFFFF DUP3 AND SWAP1 POP SWAP2 SWAP1 POP JUMP JUMPDEST PUSH1 0x0 PUSH3 0x36B DUP3 PUSH3 0x33E JUMP JUMPDEST SWAP1 POP SWAP2 SWAP1 POP JUMP JUMPDEST PUSH3 0x37D DUP2 PUSH3 0x35E JUMP JUMPDEST DUP3 MSTORE POP POP JUMP JUMPDEST PUSH1 0x0 PUSH1 0x20 DUP3 ADD SWAP1 POP PUSH3 0x39A PUSH1 0x0 DUP4 ADD DUP5 PUSH3 0x372 JUMP JUMPDEST SWAP3 SWAP2 POP POP JUMP JUMPDEST PUSH1 0x0 DUP2 MLOAD SWAP1 POP SWAP2 SWAP1 POP JUMP JUMPDEST PUSH1 0x0 DUP3 DUP3 MSTORE PUSH1 0x20 DUP3 ADD SWAP1 POP SWAP3 SWAP2 POP POP JUMP JUMPDEST PUSH1 0x0 DUP2 SWAP1 POP PUSH1 0x20 DUP3 ADD SWAP1 POP SWAP2 SWAP1 POP JUMP JUMPDEST PUSH3 0x3D7 DUP2 PUSH3 0x35E JUMP JUMPDEST DUP3 MSTORE POP POP JUMP JUMPDEST PUSH1 0x0 PUSH3 0x3EB DUP4 DUP4 PUSH3 0x3CC JUMP JUMPDEST PUSH1 0x20 DUP4 ADD SWAP1 POP SWAP3 SWAP2 POP POP JUMP JUMPDEST PUSH1 0x0 PUSH1 0x20 DUP3 ADD SWAP1 POP SWAP2 SWAP1 POP JUMP JUMPDEST PUSH1 0x0 PUSH3 0x411 DUP3 PUSH3 0x3A0 JUMP JUMPDEST PUSH3 0x41D DUP2 DUP6 PUSH3 0x3AB JUMP JUMPDEST SWAP4 POP PUSH3 0x42A DUP4 PUSH3 0x3BC JUMP JUMPDEST DUP1 PUSH1 0x0 JUMPDEST DUP4 DUP2 LT ISZERO PUSH3 0x461 JUMPI DUP2 MLOAD PUSH3 0x445 DUP9 DUP3 PUSH3 0x3DD JUMP JUMPDEST SWAP8 POP PUSH3 0x452 DUP4 PUSH3 0x3F7 JUMP JUMPDEST SWAP3 POP POP PUSH1 0x1 DUP2 ADD SWAP1 POP PUSH3 0x42E JUMP JUMPDEST POP DUP6 SWAP4 POP POP POP POP SWAP3 SWAP2 POP POP JUMP JUMPDEST PUSH1 0x0 PUSH1 0x20 DUP3 ADD SWAP1 POP DUP2 DUP2 SUB PUSH1 0x0 DUP4 ADD MSTORE PUSH3 0x48A DUP2 DUP5 PUSH3 0x404 JUMP JUMPDEST SWAP1 POP SWAP3 SWAP2 POP POP JUMP JUMPDEST PUSH1 0x0 DUP1 REVERT JUMPDEST PUSH1 0x0 PUSH1 0x1F NOT PUSH1 0x1F DUP4 ADD AND SWAP1 POP SWAP2 SWAP1 POP JUMP JUMPDEST PUSH32 0x4E487B7100000000000000000000000000000000000000000000000000000000 PUSH1 0x0 MSTORE PUSH1 0x41 PUSH1 0x4 MSTORE PUSH1 0x24 PUSH1 0x0 REVERT JUMPDEST PUSH3 0x4E2 DUP3 PUSH3 0x497 JUMP JUMPDEST DUP2 ADD DUP2 DUP2 LT PUSH8 0xFFFFFFFFFFFFFFFF DUP3 GT OR ISZERO PUSH3 0x504 JUMPI PUSH3 0x503 PUSH3 0x4A8 JUMP JUMPDEST JUMPDEST DUP1 PUSH1 0x40 MSTORE POP POP POP JUMP JUMPDEST PUSH1 0x0 PUSH3 0x519 PUSH3 0x2C2 JUMP JUMPDEST SWAP1 POP PUSH3 0x527 DUP3 DUP3 PUSH3 0x4D7 JUMP JUMPDEST SWAP2 SWAP1 POP JUMP JUMPDEST PUSH1 0x0 PUSH8 0xFFFFFFFFFFFFFFFF DUP3 GT ISZERO PUSH3 0x54A JUMPI PUSH3 0x549 PUSH3 0x4A8 JUMP JUMPDEST JUMPDEST PUSH1 0x20 DUP3 MUL SWAP1 POP SWAP2 SWAP1 POP JUMP JUMPDEST PUSH1 0x0 DUP1 REVERT JUMPDEST PUSH1 0x0 PUSH3 0x571 PUSH3 0x56B DUP5 PUSH3 0x52C JUMP JUMPDEST PUSH3 0x50D JUMP JUMPDEST SWAP1 POP DUP1 PUSH1 0x20 DUP5 MUL DUP4 ADD DUP6 DUP2 GT ISZERO PUSH3 0x58E JUMPI PUSH3 0x58D PUSH3 0x555 JUMP JUMPDEST JUMPDEST DUP4 JUMPDEST DUP2 DUP2 LT ISZERO PUSH3 0x5BB JUMPI DUP1 PUSH3 0x5A6 DUP9 DUP3 PUSH3 0x2F5 JUMP JUMPDEST DUP5 MSTORE PUSH1 0x20 DUP5 ADD SWAP4 POP POP PUSH1 0x20 DUP2 ADD SWAP1 POP PUSH3 0x590 JUMP JUMPDEST POP POP POP SWAP4 SWAP3 POP POP POP JUMP JUMPDEST PUSH1 0x0 DUP3 PUSH1 0x1F DUP4 ADD SLT PUSH3 0x5DD JUMPI PUSH3 0x5DC PUSH3 0x492 JUMP JUMPDEST JUMPDEST PUSH1 0x5 PUSH3 0x5EC DUP5 DUP3 DUP6 PUSH3 0x55A JUMP JUMPDEST SWAP2 POP POP SWAP3 SWAP2 POP POP JUMP JUMPDEST PUSH1 0x0 DUP1 PUSH1 0x0 PUSH1 0xE0 DUP5 DUP7 SUB SLT ISZERO PUSH3 0x611 JUMPI PUSH3 0x610 PUSH3 0x2CC JUMP JUMPDEST JUMPDEST PUSH1 0x0 PUSH3 0x621 DUP7 DUP3 DUP8 ADD PUSH3 0x5C5 JUMP JUMPDEST SWAP4 POP POP PUSH1 0xA0 PUSH3 0x634 DUP7 DUP3 DUP8 ADD PUSH3 0x2F5 JUMP JUMPDEST SWAP3 POP POP PUSH1 0xC0 PUSH3 0x647 DUP7 DUP3 DUP8 ADD PUSH3 0x2F5 JUMP JUMPDEST SWAP2 POP POP SWAP3 POP SWAP3 POP SWAP3 JUMP JUMPDEST PUSH1 0x0 DUP2 SWAP1 POP SWAP2 SWAP1 POP JUMP JUMPDEST PUSH1 0x0 PUSH3 0x67C PUSH3 0x676 PUSH3 0x670 DUP5 PUSH3 0x33E JUMP JUMPDEST PUSH3 0x651 JUMP JUMPDEST PUSH3 0x33E JUMP JUMPDEST SWAP1 POP SWAP2 SWAP1 POP JUMP JUMPDEST PUSH1 0x0 PUSH3 0x690 DUP3 PUSH3 0x65B JUMP JUMPDEST SWAP1 POP SWAP2 SWAP1 POP JUMP JUMPDEST PUSH1 0x0 PUSH3 0x6A4 DUP3 PUSH3 0x683 JUMP JUMPDEST SWAP1 POP SWAP2 SWAP1 POP JUMP JUMPDEST PUSH3 0x6B6 DUP2 PUSH3 0x697 JUMP JUMPDEST DUP3 MSTORE POP POP JUMP JUMPDEST PUSH1 0x0 PUSH1 0x5 SWAP1 POP SWAP2 SWAP1 POP JUMP JUMPDEST PUSH1 0x0 DUP2 SWAP1 POP SWAP3 SWAP2 POP POP JUMP JUMPDEST PUSH1 0x0 DUP2 SWAP1 POP SWAP2 SWAP1 POP JUMP JUMPDEST PUSH3 0x6E7 DUP2 PUSH3 0x2D1 JUMP JUMPDEST DUP3 MSTORE POP POP JUMP JUMPDEST PUSH1 0x0 PUSH3 0x6FB DUP4 DUP4 PUSH3 0x6DC JUMP JUMPDEST PUSH1 0x20 DUP4 ADD SWAP1 POP SWAP3 SWAP2 POP POP JUMP JUMPDEST PUSH1 0x0 PUSH1 0x20 DUP3 ADD SWAP1 POP SWAP2 SWAP1 POP JUMP JUMPDEST PUSH3 0x71F DUP2 PUSH3 0x6BC JUMP JUMPDEST PUSH3 0x72B DUP2 DUP5 PUSH3 0x6C7 JUMP JUMPDEST SWAP3 POP PUSH3 0x738 DUP3 PUSH3 0x6D2 JUMP JUMPDEST DUP1 PUSH1 0x0 JUMPDEST DUP4 DUP2 LT ISZERO PUSH3 0x76F JUMPI DUP2 MLOAD PUSH3 0x753 DUP8 DUP3 PUSH3 0x6ED JUMP JUMPDEST SWAP7 POP PUSH3 0x760 DUP4 PUSH3 0x707 JUMP JUMPDEST SWAP3 POP POP PUSH1 0x1 DUP2 ADD SWAP1 POP PUSH3 0x73C JUMP JUMPDEST POP POP POP POP POP POP JUMP JUMPDEST PUSH3 0x782 DUP2 PUSH3 0x2D1 JUMP JUMPDEST DUP3 MSTORE POP POP JUMP JUMPDEST PUSH1 0x0 PUSH3 0x795 DUP3 PUSH3 0x33E JUMP JUMPDEST SWAP1 POP SWAP2 SWAP1 POP JUMP JUMPDEST PUSH3 0x7A7 DUP2 PUSH3 0x788 JUMP JUMPDEST DUP3 MSTORE POP POP JUMP JUMPDEST PUSH1 0x0 PUSH2 0x120 DUP3 ADD SWAP1 POP PUSH3 0x7C5 PUSH1 0x0 DUP4 ADD DUP9 PUSH3 0x6AB JUMP JUMPDEST PUSH3 0x7D4 PUSH1 0x20 DUP4 ADD DUP8 PUSH3 0x714 JUMP JUMPDEST PUSH3 0x7E3 PUSH1 0xC0 DUP4 ADD DUP7 PUSH3 0x777 JUMP JUMPDEST PUSH3 0x7F2 PUSH1 0xE0 DUP4 ADD DUP6 PUSH3 0x777 JUMP JUMPDEST PUSH3 0x802 PUSH2 0x100 DUP4 ADD DUP5 PUSH3 0x79C JUMP JUMPDEST SWAP7 SWAP6 POP POP POP POP POP POP JUMP INVALID PUSH1 0x80 PUSH1 0x40 MSTORE CALLVALUE DUP1 ISZERO PUSH3 0x11 JUMPI PUSH1 0x0 DUP1 REVERT JUMPDEST POP PUSH1 0x40 MLOAD PUSH3 0x2767 CODESIZE SUB DUP1 PUSH3 0x2767 DUP4 CODECOPY DUP2 DUP2 ADD PUSH1 0x40 MSTORE DUP2 ADD SWAP1 PUSH3 0x37 SWAP2 SWAP1 PUSH3 0x424 JUMP JUMPDEST PUSH1 0x64 DUP5 PUSH1 0x4 PUSH1 0x5 DUP2 LT PUSH3 0x50 JUMPI PUSH3 0x4F PUSH3 0x4AE JUMP JUMPDEST JUMPDEST PUSH1 0x20 MUL ADD MLOAD DUP6 PUSH1 0x3 PUSH1 0x5 DUP2 LT PUSH3 0x6C JUMPI PUSH3 0x6B PUSH3 0x4AE JUMP JUMPDEST JUMPDEST PUSH1 0x20 MUL ADD MLOAD DUP7 PUSH1 0x2 PUSH1 0x5 DUP2 LT PUSH3 0x88 JUMPI PUSH3 0x87 PUSH3 0x4AE JUMP JUMPDEST JUMPDEST PUSH1 0x20 MUL ADD MLOAD DUP8 PUSH1 0x1 PUSH1 0x5 DUP2 LT PUSH3 0xA4 JUMPI PUSH3 0xA3 PUSH3 0x4AE JUMP JUMPDEST JUMPDEST PUSH1 0x20 MUL ADD MLOAD DUP9 PUSH1 0x0 PUSH1 0x5 DUP2 LT PUSH3 0xC0 JUMPI PUSH3 0xBF PUSH3 0x4AE JUMP JUMPDEST JUMPDEST PUSH1 0x20 MUL ADD MLOAD PUSH3 0xD1 SWAP2 SWAP1 PUSH3 0x50C JUMP JUMPDEST PUSH3 0xDD SWAP2 SWAP1 PUSH3 0x50C JUMP JUMPDEST PUSH3 0xE9 SWAP2 SWAP1 PUSH3 0x50C JUMP JUMPDEST PUSH3 0xF5 SWAP2 SWAP1 PUSH3 0x50C JUMP JUMPDEST EQ PUSH3 0x100 JUMPI PUSH1 0x0 DUP1 REVERT JUMPDEST DUP5 PUSH1 0x1 PUSH1 0x0 PUSH2 0x100 EXP DUP2 SLOAD DUP2 PUSH20 0xFFFFFFFFFFFFFFFFFFFFFFFFFFFFFFFFFFFFFFFF MUL NOT AND SWAP1 DUP4 PUSH20 0xFFFFFFFFFFFFFFFFFFFFFFFFFFFFFFFFFFFFFFFF AND MUL OR SWAP1 SSTORE POP DUP4 PUSH1 0x2 SWAP1 PUSH1 0x5 PUSH3 0x154 SWAP3 SWAP2 SWAP1 PUSH3 0x1AE JUMP JUMPDEST POP DUP3 PUSH1 0x7 DUP2 SWAP1 SSTORE POP DUP2 PUSH1 0x8 DUP2 SWAP1 SSTORE POP DUP1 PUSH1 0x0 DUP1 PUSH2 0x100 EXP DUP2 SLOAD DUP2 PUSH20 0xFFFFFFFFFFFFFFFFFFFFFFFFFFFFFFFFFFFFFFFF MUL NOT AND SWAP1 DUP4 PUSH20 0xFFFFFFFFFFFFFFFFFFFFFFFFFFFFFFFFFFFFFFFF AND MUL OR SWAP1 SSTORE POP POP POP POP POP POP PUSH3 0x569 JUMP JUMPDEST DUP3 PUSH1 0x5 DUP2 ADD SWAP3 DUP3 ISZERO PUSH3 0x1E0 JUMPI SWAP2 PUSH1 0x20 MUL DUP3 ADD JUMPDEST DUP3 DUP2 GT ISZERO PUSH3 0x1DF JUMPI DUP3 MLOAD DUP3 SSTORE SWAP2 PUSH1 0x20 ADD SWAP2 SWAP1 PUSH1 0x1 ADD SWAP1 PUSH3 0x1C2 JUMP JUMPDEST JUMPDEST POP SWAP1 POP PUSH3 0x1EF SWAP2 SWAP1 PUSH3 0x1F3 JUMP JUMPDEST POP SWAP1 JUMP JUMPDEST JUMPDEST DUP1 DUP3 GT ISZERO PUSH3 0x20E JUMPI PUSH1 0x0 DUP2 PUSH1 0x0 SWAP1 SSTORE POP PUSH1 0x1 ADD PUSH3 0x1F4 JUMP JUMPDEST POP SWAP1 JUMP JUMPDEST PUSH1 0x0 PUSH1 0x40 MLOAD SWAP1 POP SWAP1 JUMP JUMPDEST PUSH1 0x0 DUP1 REVERT JUMPDEST PUSH1 0x0 PUSH20 0xFFFFFFFFFFFFFFFFFFFFFFFFFFFFFFFFFFFFFFFF DUP3 AND SWAP1 POP SWAP2 SWAP1 POP JUMP JUMPDEST PUSH1 0x0 PUSH3 0x24E DUP3 PUSH3 0x221 JUMP JUMPDEST SWAP1 POP SWAP2 SWAP1 POP JUMP JUMPDEST PUSH3 0x260 DUP2 PUSH3 0x241 JUMP JUMPDEST DUP2 EQ PUSH3 0x26C JUMPI PUSH1 0x0 DUP1 REVERT JUMPDEST POP JUMP JUMPDEST PUSH1 0x0 DUP2 MLOAD SWAP1 POP PUSH3 0x280 DUP2 PUSH3 0x255 JUMP JUMPDEST SWAP3 SWAP2 POP POP JUMP JUMPDEST PUSH1 0x0 DUP1 REVERT JUMPDEST PUSH1 0x0 PUSH1 0x1F NOT PUSH1 0x1F DUP4 ADD AND SWAP1 POP SWAP2 SWAP1 POP JUMP JUMPDEST PUSH32 0x4E487B7100000000000000000000000000000000000000000000000000000000 PUSH1 0x0 MSTORE PUSH1 0x41 PUSH1 0x4 MSTORE PUSH1 0x24 PUSH1 0x0 REVERT JUMPDEST PUSH3 0x2D6 DUP3 PUSH3 0x28B JUMP JUMPDEST DUP2 ADD DUP2 DUP2 LT PUSH8 0xFFFFFFFFFFFFFFFF DUP3 GT OR ISZERO PUSH3 0x2F8 JUMPI PUSH3 0x2F7 PUSH3 0x29C JUMP JUMPDEST JUMPDEST DUP1 PUSH1 0x40 MSTORE POP POP POP JUMP JUMPDEST PUSH1 0x0 PUSH3 0x30D PUSH3 0x212 JUMP JUMPDEST SWAP1 POP PUSH3 0x31B DUP3 DUP3 PUSH3 0x2CB JUMP JUMPDEST SWAP2 SWAP1 POP JUMP JUMPDEST PUSH1 0x0 PUSH8 0xFFFFFFFFFFFFFFFF DUP3 GT ISZERO PUSH3 0x33E JUMPI PUSH3 0x33D PUSH3 0x29C JUMP JUMPDEST JUMPDEST PUSH1 0x20 DUP3 MUL SWAP1 POP SWAP2 SWAP1 POP JUMP JUMPDEST PUSH1 0x0 DUP1 REVERT JUMPDEST PUSH1 0x0 DUP2 SWAP1 POP SWAP2 SWAP1 POP JUMP JUMPDEST PUSH3 0x363 DUP2 PUSH3 0x34E JUMP JUMPDEST DUP2 EQ PUSH3 0x36F JUMPI PUSH1 0x0 DUP1 REVERT JUMPDEST POP JUMP JUMPDEST PUSH1 0x0 DUP2 MLOAD SWAP1 POP PUSH3 0x383 DUP2 PUSH3 0x358 JUMP JUMPDEST SWAP3 SWAP2 POP POP JUMP JUMPDEST PUSH1 0x0 PUSH3 0x3A0 PUSH3 0x39A DUP5 PUSH3 0x320 JUMP JUMPDEST PUSH3 0x301 JUMP JUMPDEST SWAP1 POP DUP1 PUSH1 0x20 DUP5 MUL DUP4 ADD DUP6 DUP2 GT ISZERO PUSH3 0x3BD JUMPI PUSH3 0x3BC PUSH3 0x349 JUMP JUMPDEST JUMPDEST DUP4 JUMPDEST DUP2 DUP2 LT ISZERO PUSH3 0x3EA JUMPI DUP1 PUSH3 0x3D5 DUP9 DUP3 PUSH3 0x372 JUMP JUMPDEST DUP5 MSTORE PUSH1 0x20 DUP5 ADD SWAP4 POP POP PUSH1 0x20 DUP2 ADD SWAP1 POP PUSH3 0x3BF JUMP JUMPDEST POP POP POP SWAP4 SWAP3 POP POP POP JUMP JUMPDEST PUSH1 0x0 DUP3 PUSH1 0x1F DUP4 ADD SLT PUSH3 0x40C JUMPI PUSH3 0x40B PUSH3 0x286 JUMP JUMPDEST JUMPDEST PUSH1 0x5 PUSH3 0x41B DUP5 DUP3 DUP6 PUSH3 0x389 JUMP JUMPDEST SWAP2 POP POP SWAP3 SWAP2 POP POP JUMP JUMPDEST PUSH1 0x0 DUP1 PUSH1 0x0 DUP1 PUSH1 0x0 PUSH2 0x120 DUP7 DUP9 SUB SLT ISZERO PUSH3 0x444 JUMPI PUSH3 0x443 PUSH3 0x21C JUMP JUMPDEST JUMPDEST PUSH1 0x0 PUSH3 0x454 DUP9 DUP3 DUP10 ADD PUSH3 0x26F JUMP JUMPDEST SWAP6 POP POP PUSH1 0x20 PUSH3 0x467 DUP9 DUP3 DUP10 ADD PUSH3 0x3F4 JUMP JUMPDEST SWAP5 POP POP PUSH1 0xC0 PUSH3 0x47A DUP9 DUP3 DUP10 ADD PUSH3 0x372 JUMP JUMPDEST SWAP4 POP POP PUSH1 0xE0 PUSH3 0x48D DUP9 DUP3 DUP10 ADD PUSH3 0x372 JUMP JUMPDEST SWAP3 POP POP PUSH2 0x100 PUSH3 0x4A1 DUP9 DUP3 DUP10 ADD PUSH3 0x26F JUMP JUMPDEST SWAP2 POP POP SWAP3 SWAP6 POP SWAP3 SWAP6 SWAP1 SWAP4 POP JUMP JUMPDEST PUSH32 0x4E487B7100000000000000000000000000000000000000000000000000000000 PUSH1 0x0 MSTORE PUSH1 0x32 PUSH1 0x4 MSTORE PUSH1 0x24 PUSH1 0x0 REVERT JUMPDEST PUSH32 0x4E487B7100000000000000000000000000000000000000000000000000000000 PUSH1 0x0 MSTORE PUSH1 0x11 PUSH1 0x4 MSTORE PUSH1 0x24 PUSH1 0x0 REVERT JUMPDEST PUSH1 0x0 PUSH3 0x519 DUP3 PUSH3 0x34E JUMP JUMPDEST SWAP2 POP PUSH3 0x526 DUP4 PUSH3 0x34E JUMP JUMPDEST SWAP3 POP DUP3 PUSH32 0xFFFFFFFFFFFFFFFFFFFFFFFFFFFFFFFFFFFFFFFFFFFFFFFFFFFFFFFFFFFFFFFF SUB DUP3 GT ISZERO PUSH3 0x55E JUMPI PUSH3 0x55D PUSH3 0x4DD JUMP JUMPDEST JUMPDEST DUP3 DUP3 ADD SWAP1 POP SWAP3 SWAP2 POP POP JUMP JUMPDEST PUSH2 0x21EE DUP1 PUSH3 0x579 PUSH1 0x0 CODECOPY PUSH1 0x0 RETURN INVALID PUSH1 0x80 PUSH1 0x40 MSTORE PUSH1 0x4 CALLDATASIZE LT PUSH2 0x1CD JUMPI PUSH1 0x0 CALLDATALOAD PUSH1 0xE0 SHR DUP1 PUSH4 0x8E6B8ED3 GT PUSH2 0xF7 JUMPI DUP1 PUSH4 0xB69EF8A8 GT PUSH2 0x95 JUMPI DUP1 PUSH4 0xCC66664F GT PUSH2 0x64 JUMPI DUP1 PUSH4 0xCC66664F EQ PUSH2 0x662 JUMPI DUP1 PUSH4 0xD10C5475 EQ PUSH2 0x69F JUMPI DUP1 PUSH4 0xED88C68E EQ PUSH2 0x6A9 JUMPI DUP1 PUSH4 0xF437BC59 EQ PUSH2 0x6B3 JUMPI PUSH2 0x1CD JUMP JUMPDEST DUP1 PUSH4 0xB69EF8A8 EQ PUSH2 0x5C5 JUMPI DUP1 PUSH4 0xBA44EECF EQ PUSH2 0x5F0 JUMPI DUP1 PUSH4 0xC1DFBA03 EQ PUSH2 0x62D JUMPI DUP1 PUSH4 0xC30E83F8 EQ PUSH2 0x658 JUMPI PUSH2 0x1CD JUMP JUMPDEST DUP1 PUSH4 0x9BAD74BE GT PUSH2 0xD1 JUMPI DUP1 PUSH4 0x9BAD74BE EQ PUSH2 0x51B JUMPI DUP1 PUSH4 0xAD7BBC29 EQ PUSH2 0x546 JUMPI DUP1 PUSH4 0xAEAF1E51 EQ PUSH2 0x56F JUMPI DUP1 PUSH4 0xAEEE6FCA EQ PUSH2 0x59A JUMPI PUSH2 0x1CD JUMP JUMPDEST DUP1 PUSH4 0x8E6B8ED3 EQ PUSH2 0x488 JUMPI DUP1 PUSH4 0x9026DEE8 EQ PUSH2 0x4B3 JUMPI DUP1 PUSH4 0x95BF75FD EQ PUSH2 0x4F0 JUMPI PUSH2 0x1CD JUMP JUMPDEST DUP1 PUSH4 0x58E45BB7 GT PUSH2 0x16F JUMPI DUP1 PUSH4 0x6A9C408F GT PUSH2 0x13E JUMPI DUP1 PUSH4 0x6A9C408F EQ PUSH2 0x3CE JUMPI DUP1 PUSH4 0x70480275 EQ PUSH2 0x3F9 JUMPI DUP1 PUSH4 0x7E458492 EQ PUSH2 0x422 JUMPI DUP1 PUSH4 0x7F4E2BE1 EQ PUSH2 0x44B JUMPI PUSH2 0x1CD JUMP JUMPDEST DUP1 PUSH4 0x58E45BB7 EQ PUSH2 0x300 JUMPI DUP1 PUSH4 0x5F63CF78 EQ PUSH2 0x33D JUMPI DUP1 PUSH4 0x6045051A EQ PUSH2 0x366 JUMPI DUP1 PUSH4 0x65A4CEC0 EQ PUSH2 0x3A3 JUMPI PUSH2 0x1CD JUMP JUMPDEST DUP1 PUSH4 0x2826B690 GT PUSH2 0x1AB JUMPI DUP1 PUSH4 0x2826B690 EQ PUSH2 0x242 JUMPI DUP1 PUSH4 0x31AE450B EQ PUSH2 0x26D JUMPI DUP1 PUSH4 0x33220DED EQ PUSH2 0x298 JUMPI DUP1 PUSH4 0x3BA0E661 EQ PUSH2 0x2D5 JUMPI PUSH2 0x1CD JUMP JUMPDEST DUP1 PUSH4 0xF30FA3F EQ PUSH2 0x1D2 JUMPI DUP1 PUSH4 0x171BF224 EQ PUSH2 0x1EE JUMPI DUP1 PUSH4 0x1C4E870F EQ PUSH2 0x217 JUMPI JUMPDEST PUSH1 0x0 DUP1 REVERT JUMPDEST PUSH2 0x1EC PUSH1 0x4 DUP1 CALLDATASIZE SUB DUP2 ADD SWAP1 PUSH2 0x1E7 SWAP2 SWAP1 PUSH2 0x1AD6 JUMP JUMPDEST PUSH2 0x6DE JUMP JUMPDEST STOP JUMPDEST CALLVALUE DUP1 ISZERO PUSH2 0x1FA JUMPI PUSH1 0x0 DUP1 REVERT JUMPDEST POP PUSH2 0x215 PUSH1 0x4 DUP1 CALLDATASIZE SUB DUP2 ADD SWAP1 PUSH2 0x210 SWAP2 SWAP1 PUSH2 0x1AD6 JUMP JUMPDEST PUSH2 0x927 JUMP JUMPDEST STOP JUMPDEST CALLVALUE DUP1 ISZERO PUSH2 0x223 JUMPI PUSH1 0x0 DUP1 REVERT JUMPDEST POP PUSH2 0x22C PUSH2 0xB1C JUMP JUMPDEST PUSH1 0x40 MLOAD PUSH2 0x239 SWAP2 SWAP1 PUSH2 0x1B12 JUMP JUMPDEST PUSH1 0x40 MLOAD DUP1 SWAP2 SUB SWAP1 RETURN JUMPDEST CALLVALUE DUP1 ISZERO PUSH2 0x24E JUMPI PUSH1 0x0 DUP1 REVERT JUMPDEST POP PUSH2 0x257 PUSH2 0xB22 JUMP JUMPDEST PUSH1 0x40 MLOAD PUSH2 0x264 SWAP2 SWAP1 PUSH2 0x1C1D JUMP JUMPDEST PUSH1 0x40 MLOAD DUP1 SWAP2 SUB SWAP1 RETURN JUMPDEST CALLVALUE DUP1 ISZERO PUSH2 0x279 JUMPI PUSH1 0x0 DUP1 REVERT JUMPDEST POP PUSH2 0x282 PUSH2 0xBB0 JUMP JUMPDEST PUSH1 0x40 MLOAD PUSH2 0x28F SWAP2 SWAP1 PUSH2 0x1C1D JUMP JUMPDEST PUSH1 0x40 MLOAD DUP1 SWAP2 SUB SWAP1 RETURN JUMPDEST CALLVALUE DUP1 ISZERO PUSH2 0x2A4 JUMPI PUSH1 0x0 DUP1 REVERT JUMPDEST POP PUSH2 0x2BF PUSH1 0x4 DUP1 CALLDATASIZE SUB DUP2 ADD SWAP1 PUSH2 0x2BA SWAP2 SWAP1 PUSH2 0x1AD6 JUMP JUMPDEST PUSH2 0xC3E JUMP JUMPDEST PUSH1 0x40 MLOAD PUSH2 0x2CC SWAP2 SWAP1 PUSH2 0x1B12 JUMP JUMPDEST PUSH1 0x40 MLOAD DUP1 SWAP2 SUB SWAP1 RETURN JUMPDEST CALLVALUE DUP1 ISZERO PUSH2 0x2E1 JUMPI PUSH1 0x0 DUP1 REVERT JUMPDEST POP PUSH2 0x2EA PUSH2 0xC59 JUMP JUMPDEST PUSH1 0x40 MLOAD PUSH2 0x2F7 SWAP2 SWAP1 PUSH2 0x1B12 JUMP JUMPDEST PUSH1 0x40 MLOAD DUP1 SWAP2 SUB SWAP1 RETURN JUMPDEST CALLVALUE DUP1 ISZERO PUSH2 0x30C JUMPI PUSH1 0x0 DUP1 REVERT JUMPDEST POP PUSH2 0x327 PUSH1 0x4 DUP1 CALLDATASIZE SUB DUP2 ADD SWAP1 PUSH2 0x322 SWAP2 SWAP1 PUSH2 0x1C7D JUMP JUMPDEST PUSH2 0xC5F JUMP JUMPDEST PUSH1 0x40 MLOAD PUSH2 0x334 SWAP2 SWAP1 PUSH2 0x1CC5 JUMP JUMPDEST PUSH1 0x40 MLOAD DUP1 SWAP2 SUB SWAP1 RETURN JUMPDEST CALLVALUE DUP1 ISZERO PUSH2 0x349 JUMPI PUSH1 0x0 DUP1 REVERT JUMPDEST POP PUSH2 0x364 PUSH1 0x4 DUP1 CALLDATASIZE SUB DUP2 ADD SWAP1 PUSH2 0x35F SWAP2 SWAP1 PUSH2 0x1EFC JUMP JUMPDEST PUSH2 0xC7F JUMP JUMPDEST STOP JUMPDEST CALLVALUE DUP1 ISZERO PUSH2 0x372 JUMPI PUSH1 0x0 DUP1 REVERT JUMPDEST POP PUSH2 0x38D PUSH1 0x4 DUP1 CALLDATASIZE SUB DUP2 ADD SWAP1 PUSH2 0x388 SWAP2 SWAP1 PUSH2 0x1AD6 JUMP JUMPDEST PUSH2 0x1335 JUMP JUMPDEST PUSH1 0x40 MLOAD PUSH2 0x39A SWAP2 SWAP1 PUSH2 0x1F83 JUMP JUMPDEST PUSH1 0x40 MLOAD DUP1 SWAP2 SUB SWAP1 RETURN JUMPDEST CALLVALUE DUP1 ISZERO PUSH2 0x3AF JUMPI PUSH1 0x0 DUP1 REVERT JUMPDEST POP PUSH2 0x3B8 PUSH2 0x1374 JUMP JUMPDEST PUSH1 0x40 MLOAD PUSH2 0x3C5 SWAP2 SWAP1 PUSH2 0x1B12 JUMP JUMPDEST PUSH1 0x40 MLOAD DUP1 SWAP2 SUB SWAP1 RETURN JUMPDEST CALLVALUE DUP1 ISZERO PUSH2 0x3DA JUMPI PUSH1 0x0 DUP1 REVERT JUMPDEST POP PUSH2 0x3E3 PUSH2 0x137A JUMP JUMPDEST PUSH1 0x40 MLOAD PUSH2 0x3F0 SWAP2 SWAP1 PUSH2 0x1B12 JUMP JUMPDEST PUSH1 0x40 MLOAD DUP1 SWAP2 SUB SWAP1 RETURN JUMPDEST CALLVALUE DUP1 ISZERO PUSH2 0x405 JUMPI PUSH1 0x0 DUP1 REVERT JUMPDEST POP PUSH2 0x420 PUSH1 0x4 DUP1 CALLDATASIZE SUB DUP2 ADD SWAP1 PUSH2 0x41B SWAP2 SWAP1 PUSH2 0x1C7D JUMP JUMPDEST PUSH2 0x1380 JUMP JUMPDEST STOP JUMPDEST CALLVALUE DUP1 ISZERO PUSH2 0x42E JUMPI PUSH1 0x0 DUP1 REVERT JUMPDEST POP PUSH2 0x449 PUSH1 0x4 DUP1 CALLDATASIZE SUB DUP2 ADD SWAP1 PUSH2 0x444 SWAP2 SWAP1 PUSH2 0x1C7D JUMP JUMPDEST PUSH2 0x1496 JUMP JUMPDEST STOP JUMPDEST CALLVALUE DUP1 ISZERO PUSH2 0x457 JUMPI PUSH1 0x0 DUP1 REVERT JUMPDEST POP PUSH2 0x472 PUSH1 0x4 DUP1 CALLDATASIZE SUB DUP2 ADD SWAP1 PUSH2 0x46D SWAP2 SWAP1 PUSH2 0x1AD6 JUMP JUMPDEST PUSH2 0x15AC JUMP JUMPDEST PUSH1 0x40 MLOAD PUSH2 0x47F SWAP2 SWAP1 PUSH2 0x1F83 JUMP JUMPDEST PUSH1 0x40 MLOAD DUP1 SWAP2 SUB SWAP1 RETURN JUMPDEST CALLVALUE DUP1 ISZERO PUSH2 0x494 JUMPI PUSH1 0x0 DUP1 REVERT JUMPDEST POP PUSH2 0x49D PUSH2 0x15EB JUMP JUMPDEST PUSH1 0x40 MLOAD PUSH2 0x4AA SWAP2 SWAP1 PUSH2 0x1C1D JUMP JUMPDEST PUSH1 0x40 MLOAD DUP1 SWAP2 SUB SWAP1 RETURN JUMPDEST CALLVALUE DUP1 ISZERO PUSH2 0x4BF JUMPI PUSH1 0x0 DUP1 REVERT JUMPDEST POP PUSH2 0x4DA PUSH1 0x4 DUP1 CALLDATASIZE SUB DUP2 ADD SWAP1 PUSH2 0x4D5 SWAP2 SWAP1 PUSH2 0x1C7D JUMP JUMPDEST PUSH2 0x1679 JUMP JUMPDEST PUSH1 0x40 MLOAD PUSH2 0x4E7 SWAP2 SWAP1 PUSH2 0x1CC5 JUMP JUMPDEST PUSH1 0x40 MLOAD DUP1 SWAP2 SUB SWAP1 RETURN JUMPDEST CALLVALUE DUP1 ISZERO PUSH2 0x4FC JUMPI PUSH1 0x0 DUP1 REVERT JUMPDEST POP PUSH2 0x505 PUSH2 0x1699 JUMP JUMPDEST PUSH1 0x40 MLOAD PUSH2 0x512 SWAP2 SWAP1 PUSH2 0x1F83 JUMP JUMPDEST PUSH1 0x40 MLOAD DUP1 SWAP2 SUB SWAP1 RETURN JUMPDEST CALLVALUE DUP1 ISZERO PUSH2 0x527 JUMPI PUSH1 0x0 DUP1 REVERT JUMPDEST POP PUSH2 0x530 PUSH2 0x16BF JUMP JUMPDEST PUSH1 0x40 MLOAD PUSH2 0x53D SWAP2 SWAP1 PUSH2 0x1B12 JUMP JUMPDEST PUSH1 0x40 MLOAD DUP1 SWAP2 SUB SWAP1 RETURN JUMPDEST CALLVALUE DUP1 ISZERO PUSH2 0x552 JUMPI PUSH1 0x0 DUP1 REVERT JUMPDEST POP PUSH2 0x56D PUSH1 0x4 DUP1 CALLDATASIZE SUB DUP2 ADD SWAP1 PUSH2 0x568 SWAP2 SWAP1 PUSH2 0x1AD6 JUMP JUMPDEST PUSH2 0x16C5 JUMP JUMPDEST STOP JUMPDEST CALLVALUE DUP1 ISZERO PUSH2 0x57B JUMPI PUSH1 0x0 DUP1 REVERT JUMPDEST POP PUSH2 0x584 PUSH2 0x18BA JUMP JUMPDEST PUSH1 0x40 MLOAD PUSH2 0x591 SWAP2 SWAP1 PUSH2 0x1B12 JUMP JUMPDEST PUSH1 0x40 MLOAD DUP1 SWAP2 SUB SWAP1 RETURN JUMPDEST CALLVALUE DUP1 ISZERO PUSH2 0x5A6 JUMPI PUSH1 0x0 DUP1 REVERT JUMPDEST POP PUSH2 0x5AF PUSH2 0x18C0 JUMP JUMPDEST PUSH1 0x40 MLOAD PUSH2 0x5BC SWAP2 SWAP1 PUSH2 0x1B12 JUMP JUMPDEST PUSH1 0x40 MLOAD DUP1 SWAP2 SUB SWAP1 RETURN JUMPDEST CALLVALUE DUP1 ISZERO PUSH2 0x5D1 JUMPI PUSH1 0x0 DUP1 REVERT JUMPDEST POP PUSH2 0x5DA PUSH2 0x18C6 JUMP JUMPDEST PUSH1 0x40 MLOAD PUSH2 0x5E7 SWAP2 SWAP1 PUSH2 0x1B12 JUMP JUMPDEST PUSH1 0x40 MLOAD DUP1 SWAP2 SUB SWAP1 RETURN JUMPDEST CALLVALUE DUP1 ISZERO PUSH2 0x5FC JUMPI PUSH1 0x0 DUP1 REVERT JUMPDEST POP PUSH2 0x617 PUSH1 0x4 DUP1 CALLDATASIZE SUB DUP2 ADD SWAP1 PUSH2 0x612 SWAP2 SWAP1 PUSH2 0x1AD6 JUMP JUMPDEST PUSH2 0x18CC JUMP JUMPDEST PUSH1 0x40 MLOAD PUSH2 0x624 SWAP2 SWAP1 PUSH2 0x1F83 JUMP JUMPDEST PUSH1 0x40 MLOAD DUP1 SWAP2 SUB SWAP1 RETURN JUMPDEST CALLVALUE DUP1 ISZERO PUSH2 0x639 JUMPI PUSH1 0x0 DUP1 REVERT JUMPDEST POP PUSH2 0x642 PUSH2 0x190B JUMP JUMPDEST PUSH1 0x40 MLOAD PUSH2 0x64F SWAP2 SWAP1 PUSH2 0x1B12 JUMP JUMPDEST PUSH1 0x40 MLOAD DUP1 SWAP2 SUB SWAP1 RETURN JUMPDEST PUSH2 0x660 PUSH2 0x1911 JUMP JUMPDEST STOP JUMPDEST CALLVALUE DUP1 ISZERO PUSH2 0x66E JUMPI PUSH1 0x0 DUP1 REVERT JUMPDEST POP PUSH2 0x689 PUSH1 0x4 DUP1 CALLDATASIZE SUB DUP2 ADD SWAP1 PUSH2 0x684 SWAP2 SWAP1 PUSH2 0x1C7D JUMP JUMPDEST PUSH2 0x193B JUMP JUMPDEST PUSH1 0x40 MLOAD PUSH2 0x696 SWAP2 SWAP1 PUSH2 0x1CC5 JUMP JUMPDEST PUSH1 0x40 MLOAD DUP1 SWAP2 SUB SWAP1 RETURN JUMPDEST PUSH2 0x6A7 PUSH2 0x195B JUMP JUMPDEST STOP JUMPDEST PUSH2 0x6B1 PUSH2 0x1A40 JUMP JUMPDEST STOP JUMPDEST CALLVALUE DUP1 ISZERO PUSH2 0x6BF JUMPI PUSH1 0x0 DUP1 REVERT JUMPDEST POP PUSH2 0x6C8 PUSH2 0x1A68 JUMP JUMPDEST PUSH1 0x40 MLOAD PUSH2 0x6D5 SWAP2 SWAP1 PUSH2 0x1F83 JUMP JUMPDEST PUSH1 0x40 MLOAD DUP1 SWAP2 SUB SWAP1 RETURN JUMPDEST PUSH1 0x0 DUP1 SLOAD SWAP1 PUSH2 0x100 EXP SWAP1 DIV PUSH20 0xFFFFFFFFFFFFFFFFFFFFFFFFFFFFFFFFFFFFFFFF AND PUSH20 0xFFFFFFFFFFFFFFFFFFFFFFFFFFFFFFFFFFFFFFFF AND CALLER PUSH20 0xFFFFFFFFFFFFFFFFFFFFFFFFFFFFFFFFFFFFFFFF AND EQ DUP1 PUSH2 0x781 JUMPI POP PUSH1 0xE PUSH1 0x0 CALLER PUSH20 0xFFFFFFFFFFFFFFFFFFFFFFFFFFFFFFFFFFFFFFFF AND PUSH20 0xFFFFFFFFFFFFFFFFFFFFFFFFFFFFFFFFFFFFFFFF AND DUP2 MSTORE PUSH1 0x20 ADD SWAP1 DUP2 MSTORE PUSH1 0x20 ADD PUSH1 0x0 KECCAK256 PUSH1 0x0 SWAP1 SLOAD SWAP1 PUSH2 0x100 EXP SWAP1 DIV PUSH1 0xFF AND JUMPDEST PUSH2 0x78A JUMPI PUSH1 0x0 DUP1 REVERT JUMPDEST PUSH1 0x9 DUP1 SLOAD SWAP1 POP DUP2 LT PUSH2 0x79B JUMPI PUSH1 0x0 DUP1 REVERT JUMPDEST PUSH1 0x0 PUSH1 0xA PUSH1 0x0 PUSH1 0x9 DUP5 DUP2 SLOAD DUP2 LT PUSH2 0x7B5 JUMPI PUSH2 0x7B4 PUSH2 0x1F9E JUMP JUMPDEST JUMPDEST SWAP1 PUSH1 0x0 MSTORE PUSH1 0x20 PUSH1 0x0 KECCAK256 ADD PUSH1 0x0 SWAP1 SLOAD SWAP1 PUSH2 0x100 EXP SWAP1 DIV PUSH20 0xFFFFFFFFFFFFFFFFFFFFFFFFFFFFFFFFFFFFFFFF AND PUSH20 0xFFFFFFFFFFFFFFFFFFFFFFFFFFFFFFFFFFFFFFFF AND PUSH20 0xFFFFFFFFFFFFFFFFFFFFFFFFFFFFFFFFFFFFFFFF AND DUP2 MSTORE PUSH1 0x20 ADD SWAP1 DUP2 MSTORE PUSH1 0x20 ADD PUSH1 0x0 KECCAK256 PUSH1 0x0 PUSH2 0x100 EXP DUP2 SLOAD DUP2 PUSH1 0xFF MUL NOT AND SWAP1 DUP4 ISZERO ISZERO MUL OR SWAP1 SSTORE POP PUSH1 0x9 PUSH1 0x1 PUSH1 0x9 DUP1 SLOAD SWAP1 POP PUSH2 0x845 SWAP2 SWAP1 PUSH2 0x1FFC JUMP JUMPDEST DUP2 SLOAD DUP2 LT PUSH2 0x856 JUMPI PUSH2 0x855 PUSH2 0x1F9E JUMP JUMPDEST JUMPDEST SWAP1 PUSH1 0x0 MSTORE PUSH1 0x20 PUSH1 0x0 KECCAK256 ADD PUSH1 0x0 SWAP1 SLOAD SWAP1 PUSH2 0x100 EXP SWAP1 DIV PUSH20 0xFFFFFFFFFFFFFFFFFFFFFFFFFFFFFFFFFFFFFFFF AND PUSH1 0x9 DUP3 DUP2 SLOAD DUP2 LT PUSH2 0x895 JUMPI PUSH2 0x894 PUSH2 0x1F9E JUMP JUMPDEST JUMPDEST SWAP1 PUSH1 0x0 MSTORE PUSH1 0x20 PUSH1 0x0 KECCAK256 ADD PUSH1 0x0 PUSH2 0x100 EXP DUP2 SLOAD DUP2 PUSH20 0xFFFFFFFFFFFFFFFFFFFFFFFFFFFFFFFFFFFFFFFF MUL NOT AND SWAP1 DUP4 PUSH20 0xFFFFFFFFFFFFFFFFFFFFFFFFFFFFFFFFFFFFFFFF AND MUL OR SWAP1 SSTORE POP PUSH1 0x9 DUP1 SLOAD DUP1 PUSH2 0x8EF JUMPI PUSH2 0x8EE PUSH2 0x2030 JUMP JUMPDEST JUMPDEST PUSH1 0x1 SWAP1 SUB DUP2 DUP2 SWAP1 PUSH1 0x0 MSTORE PUSH1 0x20 PUSH1 0x0 KECCAK256 ADD PUSH1 0x0 PUSH2 0x100 EXP DUP2 SLOAD SWAP1 PUSH20 0xFFFFFFFFFFFFFFFFFFFFFFFFFFFFFFFFFFFFFFFF MUL NOT AND SWAP1 SSTORE SWAP1 SSTORE POP JUMP JUMPDEST PUSH1 0x0 DUP1 SLOAD SWAP1 PUSH2 0x100 EXP SWAP1 DIV PUSH20 0xFFFFFFFFFFFFFFFFFFFFFFFFFFFFFFFFFFFFFFFF AND PUSH20 0xFFFFFFFFFFFFFFFFFFFFFFFFFFFFFFFFFFFFFFFF AND CALLER PUSH20 0xFFFFFFFFFFFFFFFFFFFFFFFFFFFFFFFFFFFFFFFF AND EQ PUSH2 0x97F JUMPI PUSH1 0x0 DUP1 REVERT JUMPDEST PUSH1 0xF DUP1 SLOAD SWAP1 POP DUP2 LT PUSH2 0x990 JUMPI PUSH1 0x0 DUP1 REVERT JUMPDEST PUSH1 0x0 PUSH1 0x10 PUSH1 0x0 PUSH1 0xF DUP5 DUP2 SLOAD DUP2 LT PUSH2 0x9AA JUMPI PUSH2 0x9A9 PUSH2 0x1F9E JUMP JUMPDEST JUMPDEST SWAP1 PUSH1 0x0 MSTORE PUSH1 0x20 PUSH1 0x0 KECCAK256 ADD PUSH1 0x0 SWAP1 SLOAD SWAP1 PUSH2 0x100 EXP SWAP1 DIV PUSH20 0xFFFFFFFFFFFFFFFFFFFFFFFFFFFFFFFFFFFFFFFF AND PUSH20 0xFFFFFFFFFFFFFFFFFFFFFFFFFFFFFFFFFFFFFFFF AND PUSH20 0xFFFFFFFFFFFFFFFFFFFFFFFFFFFFFFFFFFFFFFFF AND DUP2 MSTORE PUSH1 0x20 ADD SWAP1 DUP2 MSTORE PUSH1 0x20 ADD PUSH1 0x0 KECCAK256 PUSH1 0x0 PUSH2 0x100 EXP DUP2 SLOAD DUP2 PUSH1 0xFF MUL NOT AND SWAP1 DUP4 ISZERO ISZERO MUL OR SWAP1 SSTORE POP PUSH1 0xF PUSH1 0x1 PUSH1 0xF DUP1 SLOAD SWAP1 POP PUSH2 0xA3A SWAP2 SWAP1 PUSH2 0x1FFC JUMP JUMPDEST DUP2 SLOAD DUP2 LT PUSH2 0xA4B JUMPI PUSH2 0xA4A PUSH2 0x1F9E JUMP JUMPDEST JUMPDEST SWAP1 PUSH1 0x0 MSTORE PUSH1 0x20 PUSH1 0x0 KECCAK256 ADD PUSH1 0x0 SWAP1 SLOAD SWAP1 PUSH2 0x100 EXP SWAP1 DIV PUSH20 0xFFFFFFFFFFFFFFFFFFFFFFFFFFFFFFFFFFFFFFFF AND PUSH1 0xF DUP3 DUP2 SLOAD DUP2 LT PUSH2 0xA8A JUMPI PUSH2 0xA89 PUSH2 0x1F9E JUMP JUMPDEST JUMPDEST SWAP1 PUSH1 0x0 MSTORE PUSH1 0x20 PUSH1 0x0 KECCAK256 ADD PUSH1 0x0 PUSH2 0x100 EXP DUP2 SLOAD DUP2 PUSH20 0xFFFFFFFFFFFFFFFFFFFFFFFFFFFFFFFFFFFFFFFF MUL NOT AND SWAP1 DUP4 PUSH20 0xFFFFFFFFFFFFFFFFFFFFFFFFFFFFFFFFFFFFFFFF AND MUL OR SWAP1 SSTORE POP PUSH1 0xF DUP1 SLOAD DUP1 PUSH2 0xAE4 JUMPI PUSH2 0xAE3 PUSH2 0x2030 JUMP JUMPDEST JUMPDEST PUSH1 0x1 SWAP1 SUB DUP2 DUP2 SWAP1 PUSH1 0x0 MSTORE PUSH1 0x20 PUSH1 0x0 KECCAK256 ADD PUSH1 0x0 PUSH2 0x100 EXP DUP2 SLOAD SWAP1 PUSH20 0xFFFFFFFFFFFFFFFFFFFFFFFFFFFFFFFFFFFFFFFF MUL NOT AND SWAP1 SSTORE SWAP1 SSTORE POP JUMP JUMPDEST PUSH1 0x12 SLOAD DUP2 JUMP JUMPDEST PUSH1 0x60 PUSH1 0x9 DUP1 SLOAD DUP1 PUSH1 0x20 MUL PUSH1 0x20 ADD PUSH1 0x40 MLOAD SWAP1 DUP2 ADD PUSH1 0x40 MSTORE DUP1 SWAP3 SWAP2 SWAP1 DUP2 DUP2 MSTORE PUSH1 0x20 ADD DUP3 DUP1 SLOAD DUP1 ISZERO PUSH2 0xBA6 JUMPI PUSH1 0x20 MUL DUP3 ADD SWAP2 SWAP1 PUSH1 0x0 MSTORE PUSH1 0x20 PUSH1 0x0 KECCAK256 SWAP1 JUMPDEST DUP2 PUSH1 0x0 SWAP1 SLOAD SWAP1 PUSH2 0x100 EXP SWAP1 DIV PUSH20 0xFFFFFFFFFFFFFFFFFFFFFFFFFFFFFFFFFFFFFFFF AND PUSH20 0xFFFFFFFFFFFFFFFFFFFFFFFFFFFFFFFFFFFFFFFF AND DUP2 MSTORE PUSH1 0x20 ADD SWAP1 PUSH1 0x1 ADD SWAP1 DUP1 DUP4 GT PUSH2 0xB5C JUMPI JUMPDEST POP POP POP POP POP SWAP1 POP SWAP1 JUMP JUMPDEST PUSH1 0x60 PUSH1 0xD DUP1 SLOAD DUP1 PUSH1 0x20 MUL PUSH1 0x20 ADD PUSH1 0x40 MLOAD SWAP1 DUP2 ADD PUSH1 0x40 MSTORE DUP1 SWAP3 SWAP2 SWAP1 DUP2 DUP2 MSTORE PUSH1 0x20 ADD DUP3 DUP1 SLOAD DUP1 ISZERO PUSH2 0xC34 JUMPI PUSH1 0x20 MUL DUP3 ADD SWAP2 SWAP1 PUSH1 0x0 MSTORE PUSH1 0x20 PUSH1 0x0 KECCAK256 SWAP1 JUMPDEST DUP2 PUSH1 0x0 SWAP1 SLOAD SWAP1 PUSH2 0x100 EXP SWAP1 DIV PUSH20 0xFFFFFFFFFFFFFFFFFFFFFFFFFFFFFFFFFFFFFFFF AND PUSH20 0xFFFFFFFFFFFFFFFFFFFFFFFFFFFFFFFFFFFFFFFF AND DUP2 MSTORE PUSH1 0x20 ADD SWAP1 PUSH1 0x1 ADD SWAP1 DUP1 DUP4 GT PUSH2 0xBEA JUMPI JUMPDEST POP POP POP POP POP SWAP1 POP SWAP1 JUMP JUMPDEST PUSH1 0x2 DUP2 PUSH1 0x5 DUP2 LT PUSH2 0xC4E JUMPI PUSH1 0x0 DUP1 REVERT JUMPDEST ADD PUSH1 0x0 SWAP2 POP SWAP1 POP SLOAD DUP2 JUMP JUMPDEST PUSH1 0x8 SLOAD DUP2 JUMP JUMPDEST PUSH1 0x10 PUSH1 0x20 MSTORE DUP1 PUSH1 0x0 MSTORE PUSH1 0x40 PUSH1 0x0 KECCAK256 PUSH1 0x0 SWAP2 POP SLOAD SWAP1 PUSH2 0x100 EXP SWAP1 DIV PUSH1 0xFF AND DUP2 JUMP JUMPDEST PUSH1 0x1 PUSH1 0x0 SWAP1 SLOAD SWAP1 PUSH2 0x100 EXP SWAP1 DIV PUSH20 0xFFFFFFFFFFFFFFFFFFFFFFFFFFFFFFFFFFFFFFFF AND PUSH20 0xFFFFFFFFFFFFFFFFFFFFFFFFFFFFFFFFFFFFFFFF AND CALLER PUSH20 0xFFFFFFFFFFFFFFFFFFFFFFFFFFFFFFFFFFFFFFFF AND EQ PUSH2 0xCD9 JUMPI PUSH1 0x0 DUP1 REVERT JUMPDEST PUSH1 0x64 PUSH1 0x2 PUSH1 0x0 PUSH1 0x5 DUP2 LT PUSH2 0xCF0 JUMPI PUSH2 0xCEF PUSH2 0x1F9E JUMP JUMPDEST JUMPDEST ADD SLOAD PUSH1 0x11 SLOAD PUSH2 0xCFF SWAP2 SWAP1 PUSH2 0x205F JUMP JUMPDEST PUSH2 0xD09 SWAP2 SWAP1 PUSH2 0x20E8 JUMP JUMPDEST PUSH1 0x12 DUP2 SWAP1 SSTORE POP PUSH1 0x64 PUSH1 0x2 PUSH1 0x1 PUSH1 0x5 DUP2 LT PUSH2 0xD26 JUMPI PUSH2 0xD25 PUSH2 0x1F9E JUMP JUMPDEST JUMPDEST ADD SLOAD PUSH1 0x11 SLOAD PUSH2 0xD35 SWAP2 SWAP1 PUSH2 0x205F JUMP JUMPDEST PUSH2 0xD3F SWAP2 SWAP1 PUSH2 0x20E8 JUMP JUMPDEST PUSH1 0x13 DUP2 SWAP1 SSTORE POP PUSH1 0x64 PUSH1 0x2 DUP1 PUSH1 0x5 DUP2 LT PUSH2 0xD5B JUMPI PUSH2 0xD5A PUSH2 0x1F9E JUMP JUMPDEST JUMPDEST ADD SLOAD PUSH1 0x11 SLOAD PUSH2 0xD6A SWAP2 SWAP1 PUSH2 0x205F JUMP JUMPDEST PUSH2 0xD74 SWAP2 SWAP1 PUSH2 0x20E8 JUMP JUMPDEST PUSH1 0x14 DUP2 SWAP1 SSTORE POP PUSH1 0x64 PUSH1 0x2 PUSH1 0x3 PUSH1 0x5 DUP2 LT PUSH2 0xD91 JUMPI PUSH2 0xD90 PUSH2 0x1F9E JUMP JUMPDEST JUMPDEST ADD SLOAD PUSH1 0x11 SLOAD PUSH2 0xDA0 SWAP2 SWAP1 PUSH2 0x205F JUMP JUMPDEST PUSH2 0xDAA SWAP2 SWAP1 PUSH2 0x20E8 JUMP JUMPDEST PUSH1 0x15 DUP2 SWAP1 SSTORE POP PUSH1 0x64 PUSH1 0x2 PUSH1 0x4 PUSH1 0x5 DUP2 LT PUSH2 0xDC7 JUMPI PUSH2 0xDC6 PUSH2 0x1F9E JUMP JUMPDEST JUMPDEST ADD SLOAD PUSH1 0x11 SLOAD PUSH2 0xDD6 SWAP2 SWAP1 PUSH2 0x205F JUMP JUMPDEST PUSH2 0xDE0 SWAP2 SWAP1 PUSH2 0x20E8 JUMP JUMPDEST PUSH1 0x16 DUP2 SWAP1 SSTORE POP PUSH1 0x0 DUP1 SLOAD SWAP1 PUSH2 0x100 EXP SWAP1 DIV PUSH20 0xFFFFFFFFFFFFFFFFFFFFFFFFFFFFFFFFFFFFFFFF AND PUSH20 0xFFFFFFFFFFFFFFFFFFFFFFFFFFFFFFFFFFFFFFFF AND PUSH2 0x8FC PUSH1 0x12 SLOAD SWAP1 DUP2 ISZERO MUL SWAP1 PUSH1 0x40 MLOAD PUSH1 0x0 PUSH1 0x40 MLOAD DUP1 DUP4 SUB DUP2 DUP6 DUP9 DUP9 CALL SWAP4 POP POP POP POP ISZERO DUP1 ISZERO PUSH2 0xE4E JUMPI RETURNDATASIZE PUSH1 0x0 DUP1 RETURNDATACOPY RETURNDATASIZE PUSH1 0x0 REVERT JUMPDEST POP PUSH1 0x1 PUSH1 0x0 SWAP1 SLOAD SWAP1 PUSH2 0x100 EXP SWAP1 DIV PUSH20 0xFFFFFFFFFFFFFFFFFFFFFFFFFFFFFFFFFFFFFFFF AND PUSH20 0xFFFFFFFFFFFFFFFFFFFFFFFFFFFFFFFFFFFFFFFF AND PUSH2 0x8FC PUSH1 0x16 SLOAD SWAP1 DUP2 ISZERO MUL SWAP1 PUSH1 0x40 MLOAD PUSH1 0x0 PUSH1 0x40 MLOAD DUP1 DUP4 SUB DUP2 DUP6 DUP9 DUP9 CALL SWAP4 POP POP POP POP ISZERO DUP1 ISZERO PUSH2 0xEB9 JUMPI RETURNDATASIZE PUSH1 0x0 DUP1 RETURNDATACOPY RETURNDATASIZE PUSH1 0x0 REVERT JUMPDEST POP DUP1 MLOAD DUP3 MLOAD EQ PUSH2 0xEC8 JUMPI PUSH1 0x0 DUP1 REVERT JUMPDEST PUSH1 0x9 DUP1 SLOAD SWAP1 POP DUP3 MLOAD GT ISZERO PUSH2 0xEDB JUMPI PUSH1 0x0 DUP1 REVERT JUMPDEST PUSH1 0x0 JUMPDEST DUP3 MLOAD DUP2 LT ISZERO PUSH2 0x1012 JUMPI PUSH1 0xA PUSH1 0x0 DUP5 DUP4 DUP2 MLOAD DUP2 LT PUSH2 0xEFE JUMPI PUSH2 0xEFD PUSH2 0x1F9E JUMP JUMPDEST JUMPDEST PUSH1 0x20 MUL PUSH1 0x20 ADD ADD MLOAD PUSH20 0xFFFFFFFFFFFFFFFFFFFFFFFFFFFFFFFFFFFFFFFF AND PUSH20 0xFFFFFFFFFFFFFFFFFFFFFFFFFFFFFFFFFFFFFFFF AND DUP2 MSTORE PUSH1 0x20 ADD SWAP1 DUP2 MSTORE PUSH1 0x20 ADD PUSH1 0x0 KECCAK256 PUSH1 0x0 SWAP1 SLOAD SWAP1 PUSH2 0x100 EXP SWAP1 DIV PUSH1 0xFF AND ISZERO PUSH2 0xFFF JUMPI DUP2 DUP2 DUP2 MLOAD DUP2 LT PUSH2 0xF66 JUMPI PUSH2 0xF65 PUSH2 0x1F9E JUMP JUMPDEST JUMPDEST PUSH1 0x20 MUL PUSH1 0x20 ADD ADD MLOAD PUSH1 0xB PUSH1 0x0 DUP6 DUP5 DUP2 MLOAD DUP2 LT PUSH2 0xF85 JUMPI PUSH2 0xF84 PUSH2 0x1F9E JUMP JUMPDEST JUMPDEST PUSH1 0x20 MUL PUSH1 0x20 ADD ADD MLOAD PUSH20 0xFFFFFFFFFFFFFFFFFFFFFFFFFFFFFFFFFFFFFFFF AND PUSH20 0xFFFFFFFFFFFFFFFFFFFFFFFFFFFFFFFFFFFFFFFF AND DUP2 MSTORE PUSH1 0x20 ADD SWAP1 DUP2 MSTORE PUSH1 0x20 ADD PUSH1 0x0 KECCAK256 DUP2 SWAP1 SSTORE POP DUP2 DUP2 DUP2 MLOAD DUP2 LT PUSH2 0xFDE JUMPI PUSH2 0xFDD PUSH2 0x1F9E JUMP JUMPDEST JUMPDEST PUSH1 0x20 MUL PUSH1 0x20 ADD ADD MLOAD PUSH1 0xC PUSH1 0x0 DUP3 DUP3 SLOAD PUSH2 0xFF7 SWAP2 SWAP1 PUSH2 0x2119 JUMP JUMPDEST SWAP3 POP POP DUP2 SWAP1 SSTORE POP JUMPDEST DUP1 DUP1 PUSH2 0x100A SWAP1 PUSH2 0x216F JUMP JUMPDEST SWAP2 POP POP PUSH2 0xEDE JUMP JUMPDEST PUSH1 0x0 SWAP1 POP PUSH1 0x0 SWAP1 POP JUMPDEST DUP3 MLOAD DUP2 LT ISZERO PUSH2 0x1178 JUMPI PUSH1 0xA PUSH1 0x0 DUP5 DUP4 DUP2 MLOAD DUP2 LT PUSH2 0x103B JUMPI PUSH2 0x103A PUSH2 0x1F9E JUMP JUMPDEST JUMPDEST PUSH1 0x20 MUL PUSH1 0x20 ADD ADD MLOAD PUSH20 0xFFFFFFFFFFFFFFFFFFFFFFFFFFFFFFFFFFFFFFFF AND PUSH20 0xFFFFFFFFFFFFFFFFFFFFFFFFFFFFFFFFFFFFFFFF AND DUP2 MSTORE PUSH1 0x20 ADD SWAP1 DUP2 MSTORE PUSH1 0x20 ADD PUSH1 0x0 KECCAK256 PUSH1 0x0 SWAP1 SLOAD SWAP1 PUSH2 0x100 EXP SWAP1 DIV PUSH1 0xFF AND ISZERO PUSH2 0x1165 JUMPI DUP3 DUP2 DUP2 MLOAD DUP2 LT PUSH2 0x10A3 JUMPI PUSH2 0x10A2 PUSH2 0x1F9E JUMP JUMPDEST JUMPDEST PUSH1 0x20 MUL PUSH1 0x20 ADD ADD MLOAD PUSH20 0xFFFFFFFFFFFFFFFFFFFFFFFFFFFFFFFFFFFFFFFF AND PUSH2 0x8FC PUSH1 0xC SLOAD PUSH1 0xB PUSH1 0x0 DUP8 DUP7 DUP2 MLOAD DUP2 LT PUSH2 0x10DE JUMPI PUSH2 0x10DD PUSH2 0x1F9E JUMP JUMPDEST JUMPDEST PUSH1 0x20 MUL PUSH1 0x20 ADD ADD MLOAD PUSH20 0xFFFFFFFFFFFFFFFFFFFFFFFFFFFFFFFFFFFFFFFF AND PUSH20 0xFFFFFFFFFFFFFFFFFFFFFFFFFFFFFFFFFFFFFFFF AND DUP2 MSTORE PUSH1 0x20 ADD SWAP1 DUP2 MSTORE PUSH1 0x20 ADD PUSH1 0x0 KECCAK256 SLOAD PUSH1 0x15 SLOAD PUSH2 0x112E SWAP2 SWAP1 PUSH2 0x205F JUMP JUMPDEST PUSH2 0x1138 SWAP2 SWAP1 PUSH2 0x20E8 JUMP JUMPDEST SWAP1 DUP2 ISZERO MUL SWAP1 PUSH1 0x40 MLOAD PUSH1 0x0 PUSH1 0x40 MLOAD DUP1 DUP4 SUB DUP2 DUP6 DUP9 DUP9 CALL SWAP4 POP POP POP POP ISZERO DUP1 ISZERO PUSH2 0x1163 JUMPI RETURNDATASIZE PUSH1 0x0 DUP1 RETURNDATACOPY RETURNDATASIZE PUSH1 0x0 REVERT JUMPDEST POP JUMPDEST DUP1 DUP1 PUSH2 0x1170 SWAP1 PUSH2 0x216F JUMP JUMPDEST SWAP2 POP POP PUSH2 0x101B JUMP JUMPDEST PUSH1 0x0 SWAP1 POP PUSH1 0x0 SWAP1 POP JUMPDEST PUSH1 0xD DUP1 SLOAD SWAP1 POP DUP2 LT ISZERO PUSH2 0x1238 JUMPI PUSH1 0xD DUP2 DUP2 SLOAD DUP2 LT PUSH2 0x11A2 JUMPI PUSH2 0x11A1 PUSH2 0x1F9E JUMP JUMPDEST JUMPDEST SWAP1 PUSH1 0x0 MSTORE PUSH1 0x20 PUSH1 0x0 KECCAK256 ADD PUSH1 0x0 SWAP1 SLOAD SWAP1 PUSH2 0x100 EXP SWAP1 DIV PUSH20 0xFFFFFFFFFFFFFFFFFFFFFFFFFFFFFFFFFFFFFFFF AND PUSH20 0xFFFFFFFFFFFFFFFFFFFFFFFFFFFFFFFFFFFFFFFF AND PUSH2 0x8FC PUSH1 0xD DUP1 SLOAD SWAP1 POP PUSH1 0x13 SLOAD PUSH2 0x11F9 SWAP2 SWAP1 PUSH2 0x20E8 JUMP JUMPDEST SWAP1 DUP2 ISZERO MUL SWAP1 PUSH1 0x40 MLOAD PUSH1 0x0 PUSH1 0x40 MLOAD DUP1 DUP4 SUB DUP2 DUP6 DUP9 DUP9 CALL SWAP4 POP POP POP POP ISZERO DUP1 ISZERO PUSH2 0x1224 JUMPI RETURNDATASIZE PUSH1 0x0 DUP1 RETURNDATACOPY RETURNDATASIZE PUSH1 0x0 REVERT JUMPDEST POP DUP1 DUP1 PUSH2 0x1230 SWAP1 PUSH2 0x216F JUMP JUMPDEST SWAP2 POP POP PUSH2 0x1181 JUMP JUMPDEST PUSH1 0x0 SWAP1 POP PUSH1 0x0 SWAP1 POP JUMPDEST PUSH1 0xF DUP1 SLOAD SWAP1 POP DUP2 LT ISZERO PUSH2 0x12F8 JUMPI PUSH1 0xF DUP2 DUP2 SLOAD DUP2 LT PUSH2 0x1262 JUMPI PUSH2 0x1261 PUSH2 0x1F9E JUMP JUMPDEST JUMPDEST SWAP1 PUSH1 0x0 MSTORE PUSH1 0x20 PUSH1 0x0 KECCAK256 ADD PUSH1 0x0 SWAP1 SLOAD SWAP1 PUSH2 0x100 EXP SWAP1 DIV PUSH20 0xFFFFFFFFFFFFFFFFFFFFFFFFFFFFFFFFFFFFFFFF AND PUSH20 0xFFFFFFFFFFFFFFFFFFFFFFFFFFFFFFFFFFFFFFFF AND PUSH2 0x8FC PUSH1 0xF DUP1 SLOAD SWAP1 POP PUSH1 0x14 SLOAD PUSH2 0x12B9 SWAP2 SWAP1 PUSH2 0x20E8 JUMP JUMPDEST SWAP1 DUP2 ISZERO MUL SWAP1 PUSH1 0x40 MLOAD PUSH1 0x0 PUSH1 0x40 MLOAD DUP1 DUP4 SUB DUP2 DUP6 DUP9 DUP9 CALL SWAP4 POP POP POP POP ISZERO DUP1 ISZERO PUSH2 0x12E4 JUMPI RETURNDATASIZE PUSH1 0x0 DUP1 RETURNDATACOPY RETURNDATASIZE PUSH1 0x0 REVERT JUMPDEST POP DUP1 DUP1 PUSH2 0x12F0 SWAP1 PUSH2 0x216F JUMP JUMPDEST SWAP2 POP POP PUSH2 0x1241 JUMP JUMPDEST PUSH1 0x0 PUSH1 0x11 DUP2 SWAP1 SSTORE POP PUSH1 0x0 PUSH1 0x12 DUP2 SWAP1 SSTORE POP PUSH1 0x0 PUSH1 0x13 DUP2 SWAP1 SSTORE POP PUSH1 0x0 PUSH1 0x14 DUP2 SWAP1 SSTORE POP PUSH1 0x0 PUSH1 0x15 DUP2 SWAP1 SSTORE POP PUSH1 0x0 PUSH1 0x16 DUP2 SWAP1 SSTORE POP PUSH1 0x0 PUSH1 0xC DUP2 SWAP1 SSTORE POP POP POP POP JUMP JUMPDEST PUSH1 0x9 DUP2 DUP2 SLOAD DUP2 LT PUSH2 0x1345 JUMPI PUSH1 0x0 DUP1 REVERT JUMPDEST SWAP1 PUSH1 0x0 MSTORE PUSH1 0x20 PUSH1 0x0 KECCAK256 ADD PUSH1 0x0 SWAP2 POP SLOAD SWAP1 PUSH2 0x100 EXP SWAP1 DIV PUSH20 0xFFFFFFFFFFFFFFFFFFFFFFFFFFFFFFFFFFFFFFFF AND DUP2 JUMP JUMPDEST PUSH1 0x7 SLOAD DUP2 JUMP JUMPDEST PUSH1 0x15 SLOAD DUP2 JUMP JUMPDEST PUSH1 0x0 DUP1 SLOAD SWAP1 PUSH2 0x100 EXP SWAP1 DIV PUSH20 0xFFFFFFFFFFFFFFFFFFFFFFFFFFFFFFFFFFFFFFFF AND PUSH20 0xFFFFFFFFFFFFFFFFFFFFFFFFFFFFFFFFFFFFFFFF AND CALLER PUSH20 0xFFFFFFFFFFFFFFFFFFFFFFFFFFFFFFFFFFFFFFFF AND EQ PUSH2 0x13D8 JUMPI PUSH1 0x0 DUP1 REVERT JUMPDEST PUSH1 0xD DUP2 SWAP1 DUP1 PUSH1 0x1 DUP2 SLOAD ADD DUP1 DUP3 SSTORE DUP1 SWAP2 POP POP PUSH1 0x1 SWAP1 SUB SWAP1 PUSH1 0x0 MSTORE PUSH1 0x20 PUSH1 0x0 KECCAK256 ADD PUSH1 0x0 SWAP1 SWAP2 SWAP1 SWAP2 SWAP1 SWAP2 PUSH2 0x100 EXP DUP2 SLOAD DUP2 PUSH20 0xFFFFFFFFFFFFFFFFFFFFFFFFFFFFFFFFFFFFFFFF MUL NOT AND SWAP1 DUP4 PUSH20 0xFFFFFFFFFFFFFFFFFFFFFFFFFFFFFFFFFFFFFFFF AND MUL OR SWAP1 SSTORE POP PUSH1 0x1 PUSH1 0xE PUSH1 0x0 DUP4 PUSH20 0xFFFFFFFFFFFFFFFFFFFFFFFFFFFFFFFFFFFFFFFF AND PUSH20 0xFFFFFFFFFFFFFFFFFFFFFFFFFFFFFFFFFFFFFFFF AND DUP2 MSTORE PUSH1 0x20 ADD SWAP1 DUP2 MSTORE PUSH1 0x20 ADD PUSH1 0x0 KECCAK256 PUSH1 0x0 PUSH2 0x100 EXP DUP2 SLOAD DUP2 PUSH1 0xFF MUL NOT AND SWAP1 DUP4 ISZERO ISZERO MUL OR SWAP1 SSTORE POP POP JUMP JUMPDEST PUSH1 0x0 DUP1 SLOAD SWAP1 PUSH2 0x100 EXP SWAP1 DIV PUSH20 0xFFFFFFFFFFFFFFFFFFFFFFFFFFFFFFFFFFFFFFFF AND PUSH20 0xFFFFFFFFFFFFFFFFFFFFFFFFFFFFFFFFFFFFFFFF AND CALLER PUSH20 0xFFFFFFFFFFFFFFFFFFFFFFFFFFFFFFFFFFFFFFFF AND EQ PUSH2 0x14EE JUMPI PUSH1 0x0 DUP1 REVERT JUMPDEST PUSH1 0xF DUP2 SWAP1 DUP1 PUSH1 0x1 DUP2 SLOAD ADD DUP1 DUP3 SSTORE DUP1 SWAP2 POP POP PUSH1 0x1 SWAP1 SUB SWAP1 PUSH1 0x0 MSTORE PUSH1 0x20 PUSH1 0x0 KECCAK256 ADD PUSH1 0x0 SWAP1 SWAP2 SWAP1 SWAP2 SWAP1 SWAP2 PUSH2 0x100 EXP DUP2 SLOAD DUP2 PUSH20 0xFFFFFFFFFFFFFFFFFFFFFFFFFFFFFFFFFFFFFFFF MUL NOT AND SWAP1 DUP4 PUSH20 0xFFFFFFFFFFFFFFFFFFFFFFFFFFFFFFFFFFFFFFFF AND MUL OR SWAP1 SSTORE POP PUSH1 0x1 PUSH1 0x10 PUSH1 0x0 DUP4 PUSH20 0xFFFFFFFFFFFFFFFFFFFFFFFFFFFFFFFFFFFFFFFF AND PUSH20 0xFFFFFFFFFFFFFFFFFFFFFFFFFFFFFFFFFFFFFFFF AND DUP2 MSTORE PUSH1 0x20 ADD SWAP1 DUP2 MSTORE PUSH1 0x20 ADD PUSH1 0x0 KECCAK256 PUSH1 0x0 PUSH2 0x100 EXP DUP2 SLOAD DUP2 PUSH1 0xFF MUL NOT AND SWAP1 DUP4 ISZERO ISZERO MUL OR SWAP1 SSTORE POP POP JUMP JUMPDEST PUSH1 0xF DUP2 DUP2 SLOAD DUP2 LT PUSH2 0x15BC JUMPI PUSH1 0x0 DUP1 REVERT JUMPDEST SWAP1 PUSH1 0x0 MSTORE PUSH1 0x20 PUSH1 0x0 KECCAK256 ADD PUSH1 0x0 SWAP2 POP SLOAD SWAP1 PUSH2 0x100 EXP SWAP1 DIV PUSH20 0xFFFFFFFFFFFFFFFFFFFFFFFFFFFFFFFFFFFFFFFF AND DUP2 JUMP JUMPDEST PUSH1 0x60 PUSH1 0xF DUP1 SLOAD DUP1 PUSH1 0x20 MUL PUSH1 0x20 ADD PUSH1 0x40 MLOAD SWAP1 DUP2 ADD PUSH1 0x40 MSTORE DUP1 SWAP3 SWAP2 SWAP1 DUP2 DUP2 MSTORE PUSH1 0x20 ADD DUP3 DUP1 SLOAD DUP1 ISZERO PUSH2 0x166F JUMPI PUSH1 0x20 MUL DUP3 ADD SWAP2 SWAP1 PUSH1 0x0 MSTORE PUSH1 0x20 PUSH1 0x0 KECCAK256 SWAP1 JUMPDEST DUP2 PUSH1 0x0 SWAP1 SLOAD SWAP1 PUSH2 0x100 EXP SWAP1 DIV PUSH20 0xFFFFFFFFFFFFFFFFFFFFFFFFFFFFFFFFFFFFFFFF AND PUSH20 0xFFFFFFFFFFFFFFFFFFFFFFFFFFFFFFFFFFFFFFFF AND DUP2 MSTORE PUSH1 0x20 ADD SWAP1 PUSH1 0x1 ADD SWAP1 DUP1 DUP4 GT PUSH2 0x1625 JUMPI JUMPDEST POP POP POP POP POP SWAP1 POP SWAP1 JUMP JUMPDEST PUSH1 0xE PUSH1 0x20 MSTORE DUP1 PUSH1 0x0 MSTORE PUSH1 0x40 PUSH1 0x0 KECCAK256 PUSH1 0x0 SWAP2 POP SLOAD SWAP1 PUSH2 0x100 EXP SWAP1 DIV PUSH1 0xFF AND DUP2 JUMP JUMPDEST PUSH1 0x1 PUSH1 0x0 SWAP1 SLOAD SWAP1 PUSH2 0x100 EXP SWAP1 DIV PUSH20 0xFFFFFFFFFFFFFFFFFFFFFFFFFFFFFFFFFFFFFFFF AND DUP2 JUMP JUMPDEST PUSH1 0xC SLOAD DUP2 JUMP JUMPDEST PUSH1 0x0 DUP1 SLOAD SWAP1 PUSH2 0x100 EXP SWAP1 DIV PUSH20 0xFFFFFFFFFFFFFFFFFFFFFFFFFFFFFFFFFFFFFFFF AND PUSH20 0xFFFFFFFFFFFFFFFFFFFFFFFFFFFFFFFFFFFFFFFF AND CALLER PUSH20 0xFFFFFFFFFFFFFFFFFFFFFFFFFFFFFFFFFFFFFFFF AND EQ PUSH2 0x171D JUMPI PUSH1 0x0 DUP1 REVERT JUMPDEST PUSH1 0xD DUP1 SLOAD SWAP1 POP DUP2 LT PUSH2 0x172E JUMPI PUSH1 0x0 DUP1 REVERT JUMPDEST PUSH1 0x0 PUSH1 0xE PUSH1 0x0 PUSH1 0xD DUP5 DUP2 SLOAD DUP2 LT PUSH2 0x1748 JUMPI PUSH2 0x1747 PUSH2 0x1F9E JUMP JUMPDEST JUMPDEST SWAP1 PUSH1 0x0 MSTORE PUSH1 0x20 PUSH1 0x0 KECCAK256 ADD PUSH1 0x0 SWAP1 SLOAD SWAP1 PUSH2 0x100 EXP SWAP1 DIV PUSH20 0xFFFFFFFFFFFFFFFFFFFFFFFFFFFFFFFFFFFFFFFF AND PUSH20 0xFFFFFFFFFFFFFFFFFFFFFFFFFFFFFFFFFFFFFFFF AND PUSH20 0xFFFFFFFFFFFFFFFFFFFFFFFFFFFFFFFFFFFFFFFF AND DUP2 MSTORE PUSH1 0x20 ADD SWAP1 DUP2 MSTORE PUSH1 0x20 ADD PUSH1 0x0 KECCAK256 PUSH1 0x0 PUSH2 0x100 EXP DUP2 SLOAD DUP2 PUSH1 0xFF MUL NOT AND SWAP1 DUP4 ISZERO ISZERO MUL OR SWAP1 SSTORE POP PUSH1 0xD PUSH1 0x1 PUSH1 0xD DUP1 SLOAD SWAP1 POP PUSH2 0x17D8 SWAP2 SWAP1 PUSH2 0x1FFC JUMP JUMPDEST DUP2 SLOAD DUP2 LT PUSH2 0x17E9 JUMPI PUSH2 0x17E8 PUSH2 0x1F9E JUMP JUMPDEST JUMPDEST SWAP1 PUSH1 0x0 MSTORE PUSH1 0x20 PUSH1 0x0 KECCAK256 ADD PUSH1 0x0 SWAP1 SLOAD SWAP1 PUSH2 0x100 EXP SWAP1 DIV PUSH20 0xFFFFFFFFFFFFFFFFFFFFFFFFFFFFFFFFFFFFFFFF AND PUSH1 0xD DUP3 DUP2 SLOAD DUP2 LT PUSH2 0x1828 JUMPI PUSH2 0x1827 PUSH2 0x1F9E JUMP JUMPDEST JUMPDEST SWAP1 PUSH1 0x0 MSTORE PUSH1 0x20 PUSH1 0x0 KECCAK256 ADD PUSH1 0x0 PUSH2 0x100 EXP DUP2 SLOAD DUP2 PUSH20 0xFFFFFFFFFFFFFFFFFFFFFFFFFFFFFFFFFFFFFFFF MUL NOT AND SWAP1 DUP4 PUSH20 0xFFFFFFFFFFFFFFFFFFFFFFFFFFFFFFFFFFFFFFFF AND MUL OR SWAP1 SSTORE POP PUSH1 0xD DUP1 SLOAD DUP1 PUSH2 0x1882 JUMPI PUSH2 0x1881 PUSH2 0x2030 JUMP JUMPDEST JUMPDEST PUSH1 0x1 SWAP1 SUB DUP2 DUP2 SWAP1 PUSH1 0x0 MSTORE PUSH1 0x20 PUSH1 0x0 KECCAK256 ADD PUSH1 0x0 PUSH2 0x100 EXP DUP2 SLOAD SWAP1 PUSH20 0xFFFFFFFFFFFFFFFFFFFFFFFFFFFFFFFFFFFFFFFF MUL NOT AND SWAP1 SSTORE SWAP1 SSTORE POP JUMP JUMPDEST PUSH1 0x13 SLOAD DUP2 JUMP JUMPDEST PUSH1 0x14 SLOAD DUP2 JUMP JUMPDEST PUSH1 0x11 SLOAD DUP2 JUMP JUMPDEST PUSH1 0xD DUP2 DUP2 SLOAD DUP2 LT PUSH2 0x18DC JUMPI PUSH1 0x0 DUP1 REVERT JUMPDEST SWAP1 PUSH1 0x0 MSTORE PUSH1 0x20 PUSH1 0x0 KECCAK256 ADD PUSH1 0x0 SWAP2 POP SLOAD SWAP1 PUSH2 0x100 EXP SWAP1 DIV PUSH20 0xFFFFFFFFFFFFFFFFFFFFFFFFFFFFFFFFFFFFFFFF AND DUP2 JUMP JUMPDEST PUSH1 0x16 SLOAD DUP2 JUMP JUMPDEST PUSH1 0x7 SLOAD CALLVALUE LT ISZERO PUSH2 0x1920 JUMPI PUSH1 0x0 DUP1 REVERT JUMPDEST CALLVALUE PUSH1 0x11 PUSH1 0x0 DUP3 DUP3 SLOAD PUSH2 0x1932 SWAP2 SWAP1 PUSH2 0x2119 JUMP JUMPDEST SWAP3 POP POP DUP2 SWAP1 SSTORE POP JUMP JUMPDEST PUSH1 0xA PUSH1 0x20 MSTORE DUP1 PUSH1 0x0 MSTORE PUSH1 0x40 PUSH1 0x0 KECCAK256 PUSH1 0x0 SWAP2 POP SLOAD SWAP1 PUSH2 0x100 EXP SWAP1 DIV PUSH1 0xFF AND DUP2 JUMP JUMPDEST PUSH1 0x8 SLOAD CALLVALUE LT ISZERO PUSH2 0x196A JUMPI PUSH1 0x0 DUP1 REVERT JUMPDEST PUSH1 0x1 PUSH1 0xA PUSH1 0x0 CALLER PUSH20 0xFFFFFFFFFFFFFFFFFFFFFFFFFFFFFFFFFFFFFFFF AND PUSH20 0xFFFFFFFFFFFFFFFFFFFFFFFFFFFFFFFFFFFFFFFF AND DUP2 MSTORE PUSH1 0x20 ADD SWAP1 DUP2 MSTORE PUSH1 0x20 ADD PUSH1 0x0 KECCAK256 PUSH1 0x0 PUSH2 0x100 EXP DUP2 SLOAD DUP2 PUSH1 0xFF MUL NOT AND SWAP1 DUP4 ISZERO ISZERO MUL OR SWAP1 SSTORE POP PUSH1 0x9 CALLER SWAP1 DUP1 PUSH1 0x1 DUP2 SLOAD ADD DUP1 DUP3 SSTORE DUP1 SWAP2 POP POP PUSH1 0x1 SWAP1 SUB SWAP1 PUSH1 0x0 MSTORE PUSH1 0x20 PUSH1 0x0 KECCAK256 ADD PUSH1 0x0 SWAP1 SWAP2 SWAP1 SWAP2 SWAP1 SWAP2 PUSH2 0x100 EXP DUP2 SLOAD DUP2 PUSH20 0xFFFFFFFFFFFFFFFFFFFFFFFFFFFFFFFFFFFFFFFF MUL NOT AND SWAP1 DUP4 PUSH20 0xFFFFFFFFFFFFFFFFFFFFFFFFFFFFFFFFFFFFFFFF AND MUL OR SWAP1 SSTORE POP CALLVALUE PUSH1 0x11 PUSH1 0x0 DUP3 DUP3 SLOAD PUSH2 0x1A37 SWAP2 SWAP1 PUSH2 0x2119 JUMP JUMPDEST SWAP3 POP POP DUP2 SWAP1 SSTORE POP JUMP JUMPDEST PUSH1 0x0 CALLVALUE GT PUSH2 0x1A4D JUMPI PUSH1 0x0 DUP1 REVERT JUMPDEST CALLVALUE PUSH1 0x11 PUSH1 0x0 DUP3 DUP3 SLOAD PUSH2 0x1A5F SWAP2 SWAP1 PUSH2 0x2119 JUMP JUMPDEST SWAP3 POP POP DUP2 SWAP1 SSTORE POP JUMP JUMPDEST PUSH1 0x0 DUP1 SLOAD SWAP1 PUSH2 0x100 EXP SWAP1 DIV PUSH20 0xFFFFFFFFFFFFFFFFFFFFFFFFFFFFFFFFFFFFFFFF AND DUP2 JUMP JUMPDEST PUSH1 0x0 PUSH1 0x40 MLOAD SWAP1 POP SWAP1 JUMP JUMPDEST PUSH1 0x0 DUP1 REVERT JUMPDEST PUSH1 0x0 DUP1 REVERT JUMPDEST PUSH1 0x0 DUP2 SWAP1 POP SWAP2 SWAP1 POP JUMP JUMPDEST PUSH2 0x1AB3 DUP2 PUSH2 0x1AA0 JUMP JUMPDEST DUP2 EQ PUSH2 0x1ABE JUMPI PUSH1 0x0 DUP1 REVERT JUMPDEST POP JUMP JUMPDEST PUSH1 0x0 DUP2 CALLDATALOAD SWAP1 POP PUSH2 0x1AD0 DUP2 PUSH2 0x1AAA JUMP JUMPDEST SWAP3 SWAP2 POP POP JUMP JUMPDEST PUSH1 0x0 PUSH1 0x20 DUP3 DUP5 SUB SLT ISZERO PUSH2 0x1AEC JUMPI PUSH2 0x1AEB PUSH2 0x1A96 JUMP JUMPDEST JUMPDEST PUSH1 0x0 PUSH2 0x1AFA DUP5 DUP3 DUP6 ADD PUSH2 0x1AC1 JUMP JUMPDEST SWAP2 POP POP SWAP3 SWAP2 POP POP JUMP JUMPDEST PUSH2 0x1B0C DUP2 PUSH2 0x1AA0 JUMP JUMPDEST DUP3 MSTORE POP POP JUMP JUMPDEST PUSH1 0x0 PUSH1 0x20 DUP3 ADD SWAP1 POP PUSH2 0x1B27 PUSH1 0x0 DUP4 ADD DUP5 PUSH2 0x1B03 JUMP JUMPDEST SWAP3 SWAP2 POP POP JUMP JUMPDEST PUSH1 0x0 DUP2 MLOAD SWAP1 POP SWAP2 SWAP1 POP JUMP JUMPDEST PUSH1 0x0 DUP3 DUP3 MSTORE PUSH1 0x20 DUP3 ADD SWAP1 POP SWAP3 SWAP2 POP POP JUMP JUMPDEST PUSH1 0x0 DUP2 SWAP1 POP PUSH1 0x20 DUP3 ADD SWAP1 POP SWAP2 SWAP1 POP JUMP JUMPDEST PUSH1 0x0 PUSH20 0xFFFFFFFFFFFFFFFFFFFFFFFFFFFFFFFFFFFFFFFF DUP3 AND SWAP1 POP SWAP2 SWAP1 POP JUMP JUMPDEST PUSH1 0x0 PUSH2 0x1B84 DUP3 PUSH2 0x1B59 JUMP JUMPDEST SWAP1 POP SWAP2 SWAP1 POP JUMP JUMPDEST PUSH2 0x1B94 DUP2 PUSH2 0x1B79 JUMP JUMPDEST DUP3 MSTORE POP POP JUMP JUMPDEST PUSH1 0x0 PUSH2 0x1BA6 DUP4 DUP4 PUSH2 0x1B8B JUMP JUMPDEST PUSH1 0x20 DUP4 ADD SWAP1 POP SWAP3 SWAP2 POP POP JUMP JUMPDEST PUSH1 0x0 PUSH1 0x20 DUP3 ADD SWAP1 POP SWAP2 SWAP1 POP JUMP JUMPDEST PUSH1 0x0 PUSH2 0x1BCA DUP3 PUSH2 0x1B2D JUMP JUMPDEST PUSH2 0x1BD4 DUP2 DUP6 PUSH2 0x1B38 JUMP JUMPDEST SWAP4 POP PUSH2 0x1BDF DUP4 PUSH2 0x1B49 JUMP JUMPDEST DUP1 PUSH1 0x0 JUMPDEST DUP4 DUP2 LT ISZERO PUSH2 0x1C10 JUMPI DUP2 MLOAD PUSH2 0x1BF7 DUP9 DUP3 PUSH2 0x1B9A JUMP JUMPDEST SWAP8 POP PUSH2 0x1C02 DUP4 PUSH2 0x1BB2 JUMP JUMPDEST SWAP3 POP POP PUSH1 0x1 DUP2 ADD SWAP1 POP PUSH2 0x1BE3 JUMP JUMPDEST POP DUP6 SWAP4 POP POP POP POP SWAP3 SWAP2 POP POP JUMP JUMPDEST PUSH1 0x0 PUSH1 0x20 DUP3 ADD SWAP1 POP DUP2 DUP2 SUB PUSH1 0x0 DUP4 ADD MSTORE PUSH2 0x1C37 DUP2 DUP5 PUSH2 0x1BBF JUMP JUMPDEST SWAP1 POP SWAP3 SWAP2 POP POP JUMP JUMPDEST PUSH1 0x0 PUSH2 0x1C4A DUP3 PUSH2 0x1B59 JUMP JUMPDEST SWAP1 POP SWAP2 SWAP1 POP JUMP JUMPDEST PUSH2 0x1C5A DUP2 PUSH2 0x1C3F JUMP JUMPDEST DUP2 EQ PUSH2 0x1C65 JUMPI PUSH1 0x0 DUP1 REVERT JUMPDEST POP JUMP JUMPDEST PUSH1 0x0 DUP2 CALLDATALOAD SWAP1 POP PUSH2 0x1C77 DUP2 PUSH2 0x1C51 JUMP JUMPDEST SWAP3 SWAP2 POP POP JUMP JUMPDEST PUSH1 0x0 PUSH1 0x20 DUP3 DUP5 SUB SLT ISZERO PUSH2 0x1C93 JUMPI PUSH2 0x1C92 PUSH2 0x1A96 JUMP JUMPDEST JUMPDEST PUSH1 0x0 PUSH2 0x1CA1 DUP5 DUP3 DUP6 ADD PUSH2 0x1C68 JUMP JUMPDEST SWAP2 POP POP SWAP3 SWAP2 POP POP JUMP JUMPDEST PUSH1 0x0 DUP2 ISZERO ISZERO SWAP1 POP SWAP2 SWAP1 POP JUMP JUMPDEST PUSH2 0x1CBF DUP2 PUSH2 0x1CAA JUMP JUMPDEST DUP3 MSTORE POP POP JUMP JUMPDEST PUSH1 0x0 PUSH1 0x20 DUP3 ADD SWAP1 POP PUSH2 0x1CDA PUSH1 0x0 DUP4 ADD DUP5 PUSH2 0x1CB6 JUMP JUMPDEST SWAP3 SWAP2 POP POP JUMP JUMPDEST PUSH1 0x0 DUP1 REVERT JUMPDEST PUSH1 0x0 PUSH1 0x1F NOT PUSH1 0x1F DUP4 ADD AND SWAP1 POP SWAP2 SWAP1 POP JUMP JUMPDEST PUSH32 0x4E487B7100000000000000000000000000000000000000000000000000000000 PUSH1 0x0 MSTORE PUSH1 0x41 PUSH1 0x4 MSTORE PUSH1 0x24 PUSH1 0x0 REVERT JUMPDEST PUSH2 0x1D2E DUP3 PUSH2 0x1CE5 JUMP JUMPDEST DUP2 ADD DUP2 DUP2 LT PUSH8 0xFFFFFFFFFFFFFFFF DUP3 GT OR ISZERO PUSH2 0x1D4D JUMPI PUSH2 0x1D4C PUSH2 0x1CF6 JUMP JUMPDEST JUMPDEST DUP1 PUSH1 0x40 MSTORE POP POP POP JUMP JUMPDEST PUSH1 0x0 PUSH2 0x1D60 PUSH2 0x1A8C JUMP JUMPDEST SWAP1 POP PUSH2 0x1D6C DUP3 DUP3 PUSH2 0x1D25 JUMP JUMPDEST SWAP2 SWAP1 POP JUMP JUMPDEST PUSH1 0x0 PUSH8 0xFFFFFFFFFFFFFFFF DUP3 GT ISZERO PUSH2 0x1D8C JUMPI PUSH2 0x1D8B PUSH2 0x1CF6 JUMP JUMPDEST JUMPDEST PUSH1 0x20 DUP3 MUL SWAP1 POP PUSH1 0x20 DUP2 ADD SWAP1 POP SWAP2 SWAP1 POP JUMP JUMPDEST PUSH1 0x0 DUP1 REVERT JUMPDEST PUSH1 0x0 PUSH2 0x1DB5 PUSH2 0x1DB0 DUP5 PUSH2 0x1D71 JUMP JUMPDEST PUSH2 0x1D56 JUMP JUMPDEST SWAP1 POP DUP1 DUP4 DUP3 MSTORE PUSH1 0x20 DUP3 ADD SWAP1 POP PUSH1 0x20 DUP5 MUL DUP4 ADD DUP6 DUP2 GT ISZERO PUSH2 0x1DD8 JUMPI PUSH2 0x1DD7 PUSH2 0x1D9D JUMP JUMPDEST JUMPDEST DUP4 JUMPDEST DUP2 DUP2 LT ISZERO PUSH2 0x1E01 JUMPI DUP1 PUSH2 0x1DED DUP9 DUP3 PUSH2 0x1C68 JUMP JUMPDEST DUP5 MSTORE PUSH1 0x20 DUP5 ADD SWAP4 POP POP PUSH1 0x20 DUP2 ADD SWAP1 POP PUSH2 0x1DDA JUMP JUMPDEST POP POP POP SWAP4 SWAP3 POP POP POP JUMP JUMPDEST PUSH1 0x0 DUP3 PUSH1 0x1F DUP4 ADD SLT PUSH2 0x1E20 JUMPI PUSH2 0x1E1F PUSH2 0x1CE0 JUMP JUMPDEST JUMPDEST DUP2 CALLDATALOAD PUSH2 0x1E30 DUP5 DUP3 PUSH1 0x20 DUP7 ADD PUSH2 0x1DA2 JUMP JUMPDEST SWAP2 POP POP SWAP3 SWAP2 POP POP JUMP JUMPDEST PUSH1 0x0 PUSH8 0xFFFFFFFFFFFFFFFF DUP3 GT ISZERO PUSH2 0x1E54 JUMPI PUSH2 0x1E53 PUSH2 0x1CF6 JUMP JUMPDEST JUMPDEST PUSH1 0x20 DUP3 MUL SWAP1 POP PUSH1 0x20 DUP2 ADD SWAP1 POP SWAP2 SWAP1 POP JUMP JUMPDEST PUSH1 0x0 PUSH2 0x1E78 PUSH2 0x1E73 DUP5 PUSH2 0x1E39 JUMP JUMPDEST PUSH2 0x1D56 JUMP JUMPDEST SWAP1 POP DUP1 DUP4 DUP3 MSTORE PUSH1 0x20 DUP3 ADD SWAP1 POP PUSH1 0x20 DUP5 MUL DUP4 ADD DUP6 DUP2 GT ISZERO PUSH2 0x1E9B JUMPI PUSH2 0x1E9A PUSH2 0x1D9D JUMP JUMPDEST JUMPDEST DUP4 JUMPDEST DUP2 DUP2 LT ISZERO PUSH2 0x1EC4 JUMPI DUP1 PUSH2 0x1EB0 DUP9 DUP3 PUSH2 0x1AC1 JUMP JUMPDEST DUP5 MSTORE PUSH1 0x20 DUP5 ADD SWAP4 POP POP PUSH1 0x20 DUP2 ADD SWAP1 POP PUSH2 0x1E9D JUMP JUMPDEST POP POP POP SWAP4 SWAP3 POP POP POP JUMP JUMPDEST PUSH1 0x0 DUP3 PUSH1 0x1F DUP4 ADD SLT PUSH2 0x1EE3 JUMPI PUSH2 0x1EE2 PUSH2 0x1CE0 JUMP JUMPDEST JUMPDEST DUP2 CALLDATALOAD PUSH2 0x1EF3 DUP5 DUP3 PUSH1 0x20 DUP7 ADD PUSH2 0x1E65 JUMP JUMPDEST SWAP2 POP POP SWAP3 SWAP2 POP POP JUMP JUMPDEST PUSH1 0x0 DUP1 PUSH1 0x40 DUP4 DUP6 SUB SLT ISZERO PUSH2 0x1F13 JUMPI PUSH2 0x1F12 PUSH2 0x1A96 JUMP JUMPDEST JUMPDEST PUSH1 0x0 DUP4 ADD CALLDATALOAD PUSH8 0xFFFFFFFFFFFFFFFF DUP2 GT ISZERO PUSH2 0x1F31 JUMPI PUSH2 0x1F30 PUSH2 0x1A9B JUMP JUMPDEST JUMPDEST PUSH2 0x1F3D DUP6 DUP3 DUP7 ADD PUSH2 0x1E0B JUMP JUMPDEST SWAP3 POP POP PUSH1 0x20 DUP4 ADD CALLDATALOAD PUSH8 0xFFFFFFFFFFFFFFFF DUP2 GT ISZERO PUSH2 0x1F5E JUMPI PUSH2 0x1F5D PUSH2 0x1A9B JUMP JUMPDEST JUMPDEST PUSH2 0x1F6A DUP6 DUP3 DUP7 ADD PUSH2 0x1ECE JUMP JUMPDEST SWAP2 POP POP SWAP3 POP SWAP3 SWAP1 POP JUMP JUMPDEST PUSH2 0x1F7D DUP2 PUSH2 0x1B79 JUMP JUMPDEST DUP3 MSTORE POP POP JUMP JUMPDEST PUSH1 0x0 PUSH1 0x20 DUP3 ADD SWAP1 POP PUSH2 0x1F98 PUSH1 0x0 DUP4 ADD DUP5 PUSH2 0x1F74 JUMP JUMPDEST SWAP3 SWAP2 POP POP JUMP JUMPDEST PUSH32 0x4E487B7100000000000000000000000000000000000000000000000000000000 PUSH1 0x0 MSTORE PUSH1 0x32 PUSH1 0x4 MSTORE PUSH1 0x24 PUSH1 0x0 REVERT JUMPDEST PUSH32 0x4E487B7100000000000000000000000000000000000000000000000000000000 PUSH1 0x0 MSTORE PUSH1 0x11 PUSH1 0x4 MSTORE PUSH1 0x24 PUSH1 0x0 REVERT JUMPDEST PUSH1 0x0 PUSH2 0x2007 DUP3 PUSH2 0x1AA0 JUMP JUMPDEST SWAP2 POP PUSH2 0x2012 DUP4 PUSH2 0x1AA0 JUMP JUMPDEST SWAP3 POP DUP3 DUP3 LT ISZERO PUSH2 0x2025 JUMPI PUSH2 0x2024 PUSH2 0x1FCD JUMP JUMPDEST JUMPDEST DUP3 DUP3 SUB SWAP1 POP SWAP3 SWAP2 POP POP JUMP JUMPDEST PUSH32 0x4E487B7100000000000000000000000000000000000000000000000000000000 PUSH1 0x0 MSTORE PUSH1 0x31 PUSH1 0x4 MSTORE PUSH1 0x24 PUSH1 0x0 REVERT JUMPDEST PUSH1 0x0 PUSH2 0x206A DUP3 PUSH2 0x1AA0 JUMP JUMPDEST SWAP2 POP PUSH2 0x2075 DUP4 PUSH2 0x1AA0 JUMP JUMPDEST SWAP3 POP DUP2 PUSH32 0xFFFFFFFFFFFFFFFFFFFFFFFFFFFFFFFFFFFFFFFFFFFFFFFFFFFFFFFFFFFFFFFF DIV DUP4 GT DUP3 ISZERO ISZERO AND ISZERO PUSH2 0x20AE JUMPI PUSH2 0x20AD PUSH2 0x1FCD JUMP JUMPDEST JUMPDEST DUP3 DUP3 MUL SWAP1 POP SWAP3 SWAP2 POP POP JUMP JUMPDEST PUSH32 0x4E487B7100000000000000000000000000000000000000000000000000000000 PUSH1 0x0 MSTORE PUSH1 0x12 PUSH1 0x4 MSTORE PUSH1 0x24 PUSH1 0x0 REVERT JUMPDEST PUSH1 0x0 PUSH2 0x20F3 DUP3 PUSH2 0x1AA0 JUMP JUMPDEST SWAP2 POP PUSH2 0x20FE DUP4 PUSH2 0x1AA0 JUMP JUMPDEST SWAP3 POP DUP3 PUSH2 0x210E JUMPI PUSH2 0x210D PUSH2 0x20B9 JUMP JUMPDEST JUMPDEST DUP3 DUP3 DIV SWAP1 POP SWAP3 SWAP2 POP POP JUMP JUMPDEST PUSH1 0x0 PUSH2 0x2124 DUP3 PUSH2 0x1AA0 JUMP JUMPDEST SWAP2 POP PUSH2 0x212F DUP4 PUSH2 0x1AA0 JUMP JUMPDEST SWAP3 POP DUP3 PUSH32 0xFFFFFFFFFFFFFFFFFFFFFFFFFFFFFFFFFFFFFFFFFFFFFFFFFFFFFFFFFFFFFFFF SUB DUP3 GT ISZERO PUSH2 0x2164 JUMPI PUSH2 0x2163 PUSH2 0x1FCD JUMP JUMPDEST JUMPDEST DUP3 DUP3 ADD SWAP1 POP SWAP3 SWAP2 POP POP JUMP JUMPDEST PUSH1 0x0 PUSH2 0x217A DUP3 PUSH2 0x1AA0 JUMP JUMPDEST SWAP2 POP PUSH32 0xFFFFFFFFFFFFFFFFFFFFFFFFFFFFFFFFFFFFFFFFFFFFFFFFFFFFFFFFFFFFFFFF DUP3 EQ ISZERO PUSH2 0x21AD JUMPI PUSH2 0x21AC PUSH2 0x1FCD JUMP JUMPDEST JUMPDEST PUSH1 0x1 DUP3 ADD SWAP1 POP SWAP2 SWAP1 POP JUMP INVALID LOG2 PUSH5 0x6970667358 0x22 SLT KECCAK256 0xB3 SHL 0x2D 0xBE 0xE3 PUSH16 0x227817600FEFF4AC530EF63E12822B44 PUSH13 0xAD1209C5494E6522E564736F6C PUSH4 0x4300080C STOP CALLER LOG2 PUSH5 0x6970667358 0x22 SLT KECCAK256 0x2A 0xC7 0x4D SMOD 0xB4 DIV PUSH27 0xD1D271EB6CF9E1FBD7052FCBC530C3CF846F4367BDFF8DCE0C6473 PUSH16 0x6C634300080C00330000000000000000 "
    },
    "gasEstimates": {
      "creation": {
        "codeDepositCost": "2440200",
        "executionCost": "26894",
        "totalCost": "2467094"
      },
      "external": {
        "createGroup(uint256[5],uint256,uint256)": "infinite",
        "deployedGroups(uint256)": "4934",
        "getDeployedGroups()": "infinite",
        "system()": "2555"
      }
    },
    "methodIdentifiers": {
      "createGroup(uint256[5],uint256,uint256)": "52422603",
      "deployedGroups(uint256)": "086a17d8",
      "getDeployedGroups()": "2968740d",
      "system()": "95bf75fd"
    }
  },
  "storageLayout": {
    "storage": [
      {
        "astId": 3,
        "contract": "Group.sol:GroupFactory",
        "label": "system",
        "offset": 0,
        "slot": "0",
        "type": "t_address_payable"
      },
      {
        "astId": 6,
        "contract": "Group.sol:GroupFactory",
        "label": "deployedGroups",
        "offset": 0,
        "slot": "1",
        "type": "t_array(t_address_payable)dyn_storage"
      }
    ],
    "types": {
      "t_address_payable": {
        "encoding": "inplace",
        "label": "address payable",
        "numberOfBytes": "20"
      },
      "t_array(t_address_payable)dyn_storage": {
        "base": "t_address_payable",
        "encoding": "dynamic_array",
        "label": "address payable[]",
        "numberOfBytes": "32"
      }
    }
  },
  "userdoc": {
    "kind": "user",
    "methods": {},
    "version": 1
  }
}